:020000040040BA
:10000000F0244020B50F400065104000651040000E
:1000100065104000651040006510400000000000C1
:10002000000000000000000000000000651040001B
:1000300065104000000000006510400065104000A1
:100040006510400065104000051440006510400038
:1000500065104000651040006510400065104000CC
:100060006510400000000000F10640000907400054
:1000700021074000651040006510400065104000F9
:1000800039074000510740006510400065104000EE
:10009000651040006510400065104000651040008C
:1000A000651040006510400065104000651040007C
:1000B000651040006510400065104000651040006C
:1000C000651040006510400065104000651040005C
:1000D00000000000651040000000000065104000B6
:1000E000651040006510400065104000651040003C
:1000F000651040006510400065104000651040002C
:10010000651040006510400065104000651040001B
:10011000651040000000000000000000000000002A
:1001200065104000651040006510400065104000FB
:1001300065104000000000006510400065104000A0
:1001400010B5054C237833B9044B13B10448AFF311
:1001500000800123237010BD3C04402000000000FB
:10016000301C40000C4B43B10C480D4910B5AFF3A7
:1001700000800C48036823B910BD0A48036833B9EE
:100180007047094B002BF7D0BDE810401847064BCD
:10019000002BF5D0184700BF00000000301C4000C5
:1001A00040044020301C40000000000080B582B0B8
:1001B00000AF78607B68072B31D801A252F823F09A
:1001C0001D024000E1014000E9014000F101400052
:1001D000F901400001024000090240001302400002
:1001E0000020114B98471AE001200F4B984716E06A
:1001F00000200E4B984712E010200C4B98470EE061
:1002000020200A4B98470AE03E210020084B9847DF
:1002100005E03E210120064B984700E000BF00BFEB
:100220000837BD4680BD00BF69084000D5084000C2
:100230004509400080B582B000AF78607B68072B2D
:1002400026D801A252F823F0690240006D02400056
:100250006D0240007F0240007F0240007F024000AC
:100260007F0240007F024000012312E00B4B9847C1
:100270000346002B14BF01230023DBB209E0084B27
:1002800098470346002B14BF01230023DBB200E094
:10029000002318460837BD4680BD00BFA1084000B6
:1002A000BD09400080B483B000AF78607B68072B45
:1002B00025D801A252F823F0D9024000DF02400005
:1002C000E5024000EB024000EF024000F302400074
:1002D000F7024000FB0240004FF4FA4310E04FF4F5
:1002E00000430DE04FF400430AE0084B08E0084BE0
:1002F00006E0084B04E0074B02E0064B00E0002359
:1003000018460C37BD465DF8047B704700093D0078
:1003100000127A00001BB70080B582B000AF034620
:10032000FB7100BFFB791846054B9847034683F0E5
:100330000103DBB2002BF5D100BF0837BD4680BDFD
:100340003502400080B586B000AFF8607A603B604F
:100350000B46FB727B68002B07D13B68002B04D156
:10036000FB684FF470021A6019E0FB7A18460E4BD6
:10037000984702467B68B2FBF3F37B617B693A687E
:1003800002FB03F37B613B68013B1A04074B1340FC
:100390007A68D2B2134343F47C52FB681A6000BF00
:1003A0001837BD4680BD00BFA50240000000FF0712
:1003B00080B582B000AF786039603B68002B08D10F
:1003C000094B9847094A7B681B6843F000539362C6
:1003D00005E0064A7B681B6843F48033D36100BFA5
:1003E0000837BD4680BD00BFD909400000060E4059
:1003F00080B582B000AF78607B68002B03D1054BDD
:100400009847034602E0044B9847034618460837CE
:10041000BD4680BDF5094000110A400080B582B09C
:1004200000AF0346FB71FB79033B042B08D8FB7933
:100430001846064B9847FB791846054B984700E04D
:1004400000BF00BF0837BD4680BD00BFAD01400002
:100450001903400080B582B000AF786000BF7868B3
:10046000044B98470346002BF9D000231846083761
:10047000BD4680BDF103400080B500AF0620054BAE
:100480009847024613469B0013449A0013441846AB
:1004900080BD00BFA502400080B500AF024B984769
:1004A0000346184680BD00BF7904400090B583B074
:1004B00000AF1348134B98470620134B9847381D3D
:1004C000192301220621114CA0473B1D002118468B
:1004D0000F4B984700200F4B984702200E4B984730
:1004E00000200E4B98470E4B98470E4B98470346FB
:1004F0001846044B984700BF0C37BD4690BD00BF5F
:1005000000A3E111D51140001D0440004503400047
:10051000B10340005504400069074000E507400072
:100520006D1040009904400080B485B000AFF860C1
:10053000B9607A607B68002B03D0FB68BA685A66A2
:1005400002E0FB68BA681A6600BF1437BD465DF862
:10055000047B704780B483B000AF786039607B68FB
:100560003A681A6300BF0C37BD465DF8047B7047DC
:1005700080B483B000AF786039607B683A685A63B2
:1005800000BF0C37BD465DF8047B704780B584B072
:1005900000AFF860B9607A603B60B968F868124BE8
:1005A0009847BA69B968F868104B98473B68002BC0
:1005B00003D0FB68BA681A6502E0FB68BA685A653E
:1005C0007B68002B03D0FB68BA681A6302E0FB6803
:1005D000BA685A63FB68BA681A61FB68BA681A603D
:1005E00000BF1037BD4680BDF10540002905400021
:1005F00080B483B000AF786039607B683A685A6431
:1006000000BF0C37BD465DF8047B704780B483B0F3
:1006100000AF78607B68DB6C18460C37BD465DF830
:10062000047B704780B483B000AF78607B689B6CBC
:1006300018460C37BD465DF8047B704780B584B022
:1006400000AF786039607868264B9847F860786822
:10065000254B98470246FB681340FB60FB68002B64
:100660003CD00023BB6034E0204ABB681B0113442C
:100670001A683B689A4226D11C4ABB681B01134486
:1006800004331A68FB681340002B1CD0174ABB6860
:100690001B0113440C331B681449BA6812010A4445
:1006A00010681249BA6812010A44043212681146ED
:1006B00098470E4ABB681B01134404331B68DB4395
:1006C000FA681340FB60BB680133BB60BB68062B54
:1006D00003D8FB68002BC7D100E000BF00BF103774
:1006E000BD4680BD0D064000250640005804402050
:1006F00080B500AF0A210248024B984700BF80BD79
:10070000000E0E403D06400080B500AF0B210248B0
:10071000024B984700BF80BD00100E403D064000D0
:1007200080B500AF0C210248024B984700BF80BD46
:1007300000120E403D06400080B500AF1021024877
:10074000024B984700BF80BD00140E403D0640009C
:1007500080B500AF11210248024B984700BF80BD11
:1007600000160E403D06400080B483B000AF7860B4
:100770007B68013B032B1AD801A252F823F000BF7B
:1007800091074000970740009F074000A7074000DF
:1007900000237B600EE04FF480737B600AE04FF42F
:1007A00040737B6006E04FF400737B6002E000233F
:1007B0007B6000BF0A490A4B1B6B23F440727B68C5
:1007C00013430B6300BF064B9B6E03F00803002B23
:1007D000F9D000BF0C37BD465DF8047B704700BF01
:1007E00000060E4080B485B000AF78601D491D4BF7
:1007F0001B6B23F070027B6813430B634FF4805331
:10080000FB6007E0FB68002B01D1012323E0FB68BC
:10081000013BFB60134B9B6E03F00803002BF1D0F0
:10082000104A104B1B6B23F0030343F002031363C6
:100830004FF48053FB6007E0FB68002B01D10123DC
:1008400009E0FB68013BFB60064B9B6E03F008036D
:10085000002BF1D0002318461437BD465DF8047B09
:10086000704700BF00060E4080B483B000AF7860D0
:100870007B68012B05D10749064B9A68064B134349
:100880008B60044B054A1A6000BF0C37BD465DF80B
:10089000047B704710180E40000010A5080000A54A
:1008A00080B400AF094B5B6903F08003002B07D0D5
:1008B000074B9B6E03F08003002B01D0012300E067
:1008C00000231846BD465DF8047B704710180E40A3
:1008D00000060E4080B483B000AF78601549154B18
:1008E0001A6A154B13430B6200BF124B9B6E03F445
:1008F0000033002BF9D00F490E4B1A6A0F4B1340EF
:100900007A68134343F45C130B6200BF094B9B6E80
:1009100003F40033002BF9D00649064B1A6A084B42
:10092000134043F45C130B6200BF0C37BD465DF807
:10093000047B704700060E40080037008FFFC8FF99
:10094000FFFFC8FE80B483B000AF786039607B6879
:10095000002B08D01349134B1B6A134A1A40134B40
:1009600013430B6218E00F490E4B1A6A104B1340E9
:100970003A68120292B21A430E4B13430B6200BF45
:10098000084B9B6E03F00103002BF9D00549054B82
:100990001A6A094B13430B6200BF0C37BD465DF862
:1009A000047B704700060E40FCFFC8FE02003701C2
:1009B000FCFFC8FF010037000000370180B400AF22
:1009C000044B9B6E03F480331846BD465DF8047BF0
:1009D000704700BF00060E4080B400AF044B4FF0DC
:1009E00000529A6200BFBD465DF8047B704700BFAD
:1009F00000060E4080B400AF044B9B6E03F0020370
:100A00001846BD465DF8047B704700BF00060E40E7
:100A100080B400AF044B9B6E03F040031846BD4604
:100A20005DF8047B704700BF00060E4080B483B0C1
:100A300000AF78607B683F2B01D901232FE07B68F2
:100A40001F2B13D8194B9A6901217B6801FA03F314
:100A50001A4001217B6801FA03F39A421ED0134A1F
:100A600001217B6801FA03F3136117E07B68203BE7
:100A70007B600E4BD3F8082101217B6801FA03F358
:100A80001A4001217B6801FA03F39A4206D0074A13
:100A900001217B6801FA03F3C2F8003100231846F4
:100AA0000C37BD465DF8047B704700BF00060E4062
:100AB00080B483B000AF786039603B68002B06D00B
:100AC0007B685B6843F001027B685A6005E07B68E5
:100AD0005B6823F001027B685A6000BF0C37BD469B
:100AE0005DF8047B704780B483B000AF78603960F4
:100AF0007B683A681A6200BF0C37BD465DF8047B1C
:100B00007047000080B487B000AFF860B9607A60C9
:100B10003B6000237B61FB685B6803F00103012BF2
:100B200009D1BB680C2B06D9BB680C3BBB607B6949
:100B300043F480037B61BB68334AA2FB0323DB08D9
:100B40001805B968304BA3FB0123DA0813469B0054
:100B500013445B00CA1A130403437A6913437B618D
:100B60007B68294AA2FB0323DB0818037968264B1C
:100B7000A3FB0123DA0813469B0013445B00CA1A47
:100B8000130203437A6913437B613B681E4AA2FB4D
:100B90000323DB08180139681B4BA3FB0123DA0888
:100BA00013469B0013445B00CA1A40EA02037A69A9
:100BB00013437B61FB681B6843F00102FB681A600A
:100BC00000BFFB689B6903F00103012BF9D1FB68AF
:100BD0000122DA61FB687A699A60FB681B6823F07E
:100BE0000102FB681A60FB68DB6943F00402FB68E2
:100BF000DA61FB68DB6A03F0010318461C37BD4667
:100C00005DF8047B704700BFCDCCCCCC80B487B0FE
:100C100000AFF860B9607A603B6000237B61BB681D
:100C2000002B24D0FB685B6803F00103012B09D182
:100C30007B680C2B06D97B680C3B7B607B6943F49B
:100C400080037B617B682E4AA2FB0323DB08180527
:100C500079682B4BA3FB0123DA0813469B0013444E
:100C60005B00CA1A130403437A6913437B613B6830
:100C7000002B14D03B6A224AA2FB0323DB08180393
:100C8000396A1F4BA3FB0123DA0813469B00134468
:100C90005B00CA1A130203437A6913437B617B6AC0
:100CA000002B14D0BB6A164AA2FB0323DB081801F1
:100CB000B96A134BA3FB0123DA0813469B001344C4
:100CC0005B00CA1A40EA02037A6913437B61FB683E
:100CD0001A690C4B1340FA681361FB687A691A6150
:100CE000FB681A69084B1343FA681361FB68DB6AF7
:100CF00003F0040318461C37BD465DF8047B7047BB
:100D0000CDCCCCCC7F7F7FFF8080800080B487B04B
:100D100000AFF860B9607A603B6000237B61BB681C
:100D2000464AA2FB03239B091801BB68444AA2FB65
:100D300003235909434BA3FB0123DA0813469B0005
:100D400013445B00CA1A40EA02037A6913437B61C9
:100D5000BB683C4AA2FB0323D9083A4BA3FB0123FF
:100D6000DA0813469B0013445B00CA1A1003B968E3
:100D7000344BA3FB0123DA0813469B0013445B00AA
:100D8000CA1A130203437A6913437B617B682D4AB5
:100D9000A2FB0323DB08180579682A4BA3FB012378
:100DA000DA0813469B0013445B00CA1A130403437A
:100DB0007A6913437B613B6A5B057A6913437B6104
:100DC0003B68204AA2FB0323DB08180739681D4B48
:100DD000A3FB0123DA0813469B0013445B00CA1AE5
:100DE000130603437A6913437B61FB681B6843F076
:100DF0000202FB681A6000BFFB689B6903F00103F5
:100E0000012BF9D1FB680122DA61FB687A69DA60AB
:100E1000FB681B6823F00202FB681A60FB68DB6951
:100E200043F00402FB68DA61FB68DB6A03F002034B
:100E300018461C37BD465DF8047B7047D34D6210E1
:100E40001F85EB51CDCCCCCC80B487B000AFF8601F
:100E5000B9607A603B6000237B61BB68002B14D0D3
:100E60007B68224AA2FB0323DB08180579681F4B25
:100E7000A3FB0123DA0813469B0013445B00CA1A44
:100E8000130403437A6913437B613B68002B14D03E
:100E90003B6A164AA2FB0323DB081807396A134B87
:100EA000A3FB0123DA0813469B0013445B00CA1A14
:100EB000130603437A6913437B61FB685A690C4B41
:100EC0001340FA685361FB687A695A61FB685A6992
:100ED000084B1343FA685361FB68DB6A03F00803AD
:100EE00018461C37BD465DF8047B7047CDCCCCCC92
:100EF000FFFF7F7F0000808080B483B000AF786008
:100F00007B689B6918460C37BD465DF8047B7047CB
:100F100080B483B000AF786039607B683A68DA618A
:100F200000BF0C37BD465DF8047B704780B483B0CA
:100F300000AFEFF310837B607B68002B0CBF0123B5
:100F40000023DBB23B6072B6BFF35F8F044B00221D
:100F50001A703B6818460C37BD465DF8047B704735
:100F60000A00402080B483B000AF78607B68002B1B
:100F700014BF01230023DBB218460C37BD465DF8D1
:100F8000047B704780B582B000AF78607868074B0B
:100F900098470346002B05D0054B01221A70BFF37A
:100FA0005F8F62B600BF0837BD4680BD650F400049
:100FB0000A00402080B584B000AF1E4BFB601E4B82
:100FC000BB60FA68BB689A420CD007E0BB681A1D88
:100FD000BA60FA68111DF96012681A60BB68174A96
:100FE0009342F3D3164BBB6004E0BB681A1DBA6092
:100FF00000221A60BB68134A9342F6D3124BFB607F
:10100000124AFB6823F07F039360114B9847786086
:10101000104A104B1B6843F470031360BFF34F8FEB
:10102000BFF36F8F78680C4B98470C4B98470C4B6D
:101030009847FEE7301C4000000040203C04402060
:101040003C044020F00440200000400000ED00E09F
:101050002D0F400088ED00E0850F4000751A40001C
:10106000AD16400080B400AFFEE7000080B400AFD2
:10107000524B1B6B03F00303012B14D0012B02D343
:10108000022B38D07AE04E4B5B6903F08003002BD3
:1010900004D04C4B4FF400421A606FE0494B4FF4C0
:1010A000FA421A606AE0454B1B6A03F08073002B1A
:1010B00003D0444B444A1A6060E0424B434A1A60F2
:1010C0003E4B1B6A03F07003102B04D0202B08D07A
:1010D000002B0ED00EE03B4B1B685B00394A1360BF
:1010E00008E0384B1A6813465B001344354A136016
:1010F00000E000BF42E0314B1B6A03F08073002B1D
:1011000003D0304B304A1A601CE02E4B2F4A1A6035
:101110002A4B1B6A03F07003102B04D0202B08D03D
:10112000002B0ED00EE0274B1B685B00254A136096
:1011300008E0244B1A6813465B001344214A1360ED
:1011400000E000BF1D4B1B6B03F00303022B14D107
:101150001A4B9B6A1B0CC3F30A030133194A12682A
:1011600002FB03F3174A1360144B9B6ADBB2154A68
:101170001268B2FBF3F3134A136000BF0F4B1B6BF3
:1011800003F07003702B08D10E4B1B68104AA2FBB2
:1011900003235B080B4A13600AE0084B1B6B1B0917
:1011A00003F00703074A126822FA03F3054A1360A3
:1011B00000BFBD465DF8047B704700BF00060E40CF
:1011C00010180E400C004020001BB70000093D0025
:1011D000ABAAAAAA80B483B000AF78607B68194A32
:1011E000934204D8184B4FF080621A6023E07B686A
:1011F000164A934203D8144B154A1A601BE07B68C9
:10120000144A934203D8104B134A1A6013E07B68C8
:10121000124A934203D80C4B114A1A600BE07B68C8
:10122000104A934204D8084B4FF004221A6002E09F
:10123000054B0D4A1A6000BF0C37BD465DF8047BB4
:10124000704700BFFF2C3101000C0E40FF596202B5
:1012500000010004FF86930300020004FFB3C404EE
:1012600000030004FFE0F5050005000480B483B02E
:1012700000AF0346FB71094997F907305B09FA791A
:1012800002F01F02012000FA02F241F8232000BF01
:101290000C37BD465DF8047B704700BF00E100E0FD
:1012A00080B483B000AF0346FB71094997F907305A
:1012B0005B09FA7902F01F02012000FA02F22033E2
:1012C00041F8232000BF0C37BD465DF8047B704712
:1012D00000E100E080B483B000AF0346FB71094930
:1012E00097F907305B09FA7902F01F02012000FA32
:1012F00002F2603341F8232000BF0C37BD465DF891
:10130000047B704700E100E080B483B000AF034687
:101310003960FB7197F90730002B0BDA0D49FB7927
:1013200003F00F03043B3A68D2B25201D2B20B442D
:101330001A7609E0084997F907303A68D2B25201A3
:10134000D2B20B4483F8002300BF0C37BD465DF8D2
:10135000047B704700ED00E000E100E080B483B062
:1013600000AF78607B68072B25D801A252F823F0E4
:1013700091134000971340009D134000A3134000B9
:10138000A7134000AB134000AF134000B31340005D
:101390004FF4FA4310E04FF400430DE04FF40043E4
:1013A0000AE0084B08E0084B06E0084B04E0074B56
:1013B00002E0064B00E0002318460C37BD465DF8FE
:1013C000047B704700093D0000127A00001BB70043
:1013D00080B500AF0620054B9847024613469B0098
:1013E00013449A001344184680BD00BF5D134000AB
:1013F00080B500AF024B98470346184680BD00BF3A
:10140000D113400080B582B000AF1648164B984704
:1014100078607B6803F00403002B03D0042111489B
:10142000124B98477B6803F00203002B06D0022181
:101430000C480E4B98470E4B01221A7001210948A7
:101440000A4B984708210748084B98471021054840
:10145000064B984720210348044B984700BF0837A4
:10146000BD4680BD60180E40F90E4000110F4000CF
:10147000C8044020F0B585B000AF78603960002323
:10148000FB608EE04FF480714A484B4B98473B68B5
:10149000002B26D03B681D464FEAE576474B984720
:1014A00003464FF0000403FB06F105FB04F20A4477
:1014B000A5FB03342244144641F22B714FF0000285
:1014C0005D1844EB0206284631463D4C41F22C7231
:1014D0004FF00003A04703460C461846394B984787
:1014E00016E0364B984703464FF0000436494FF05C
:1014F00000025D1844EB020628463146304C334A60
:101500004FF00003A04703460C4618462D4B984762
:101510004FF4807127482E4B98473B68002B26D00C
:101520003B681D464FEAE576244B984703464FF04B
:10153000000403FB06F105FB04F20A44A5FB033497
:101540002244144641F22B714FF000025D1844EB27
:101550000206284631461A4C41F22C724FF0000325
:10156000A04703460C461846164B984716E0134B07
:10157000984703464FF0000413494FF000025D18EE
:1015800044EB0206284631460D4C104A4FF000034A
:10159000A04703460C4618460A4B9847FB680133A0
:1015A000FB60FA687B689A42FFF66CAF00BF1437A5
:1015B000BD46F0BD00120E4071054000F113400021
:1015C0006517400001004020DF835A00E0835A0085
:1015D0005505400090B585B002AF78600C20074BF0
:1015E00098477A680023009300234FF480710448E1
:1015F000044CA04700BF0C37BD4690BD2D0A4000EB
:1016000000120E408D05400082B090B585B002AF4B
:101610007860396007F1180181E80C0002201A4B4C
:10162000984700217868194B9847B969FA69386A70
:101630007B6A009303467868154CA047B96AFA6A3A
:101640003B6B7868134CA0473B685BB21846124B63
:1016500098473B685BB21846104B98473B685BB2B3
:10166000002118460E4B98473B685BB218460D4B5D
:101670009847796B78680C4B984700BF0C37BD468C
:10168000BDE8904002B070472D0A4000B10A40000A
:101690000D0D4000050B4000A1124000D512400086
:1016A000091340006D124000E70A4000B0B58EB04B
:1016B00006AF224B9847224B4FF400425A6000205D
:1016C000204B9847204B3C1D1D460FCD0FC495E87D
:1016D000070084E80700022305936D4607F10C0418
:1016E0000FCC0FC523682B603B1D0CCB0221174884
:1016F000174CA047BA68FB680093012301211348E7
:10170000144CA0477969BB69FA691432029201222C
:101710000192009301230A4601210C480E4CA04778
:101720000E4B1B78DBB2002BFAD0C82105200C4BE6
:1017300098470A4B00221A70F2E700BFAD04400040
:1017400050180E40D5154000E41B400060180E40B4
:1017500009164000490E40000D0C4000C80440200E
:101760007514400053B94AB9002908BF00281CBFAE
:101770004FF0FF314FF0FF3000F07AB9ADF1080CB7
:101780006DE904CE00F006F8DDF804E0DDE902239F
:1017900004B070472DE9F0478C460D460446089E7C
:1017A000002B51D18A4217466DD9B2FA82FEBEF1A2
:1017B000000F0BD0CEF1200C01FA0EF520FA0CFC34
:1017C00002FA0EF74CEA050C00FA0EF44FEA174A3B
:1017D000250CBCFBFAF81FFA87F90AFB18CC45EA7E
:1017E0000C4508FB09F3AB420AD9ED1908F1FF32A9
:1017F00080F02381AB4240F22081A8F102083D44F1
:10180000ED1AA4B2B5FBFAF00AFB105544EA054400
:1018100000FB09F9A14509D9E41900F1FF3380F073
:101820000A81A14540F2078102383C44A4EB090437
:1018300040EA08400021002E61D024FA0EF4002373
:1018400034607360BDE8F0878B4207D9002E54D016
:10185000002186E821000846BDE8F087B3FA83F14D
:10186000002940F08E80AB4202D3824200F2FA801F
:10187000841A65EB03050120AC46002E3FD086E8B4
:101880001010BDE8F08712B90127B7FBF2F7B7FADD
:1018900087FEBEF1000F34D1EB1B3A0C1FFA87FC18
:1018A0000121B3FBF2F8250C02FB183345EA03458E
:1018B0000CFB08F3AB4207D9ED1908F1FF3002D257
:1018C000AB4200F2D1808046ED1AA3B2B5FBF2F034
:1018D00002FB105543EA05440CFB00FCA44507D964
:1018E000E41900F1FF3302D2A44500F2B880184693
:1018F000A4EB0C0440EA08409DE731463046BDE8C1
:10190000F087CEF1200405FA0EF307FA0EF720FA5D
:1019100004F83A0C25FA04F448EA0308B4FBF2F19F
:101920004FEA184502FB11441FFA87FC45EA0445BB
:1019300001FB0CF3AB4200FA0EF409D9ED1901F1E9
:10194000FF3080F08A80AB4240F2878002393D440C
:10195000EB1A1FFA88F5B3FBF2F002FB103345EAED
:10196000034500FB0CF3AB4207D9ED1900F1FF383A
:101970006FD2AB426DD902383D44EB1A40EA0141C7
:101980008FE7C1F1200722FA07F88B4005FA01F42E
:1019900048EA030320FA07FE4FEA134CFD404EEAE3
:1019A000040EB5FBFCF94FEA1E440CFB19551FFA57
:1019B00083F844EA054509FB08F4AC4202FA01F257
:1019C00000FA01FA08D9ED1809F1FF3043D2AC4210
:1019D00041D9A9F102091D442D1B1FFA8EFEB5FB4A
:1019E000FCF00CFB10554EEA054400FB08F8A0453E
:1019F00007D9E41800F1FF3529D2A04527D90238CC
:101A00001C4440EA0940A4EB0804A0FB02894C45B1
:101A1000C6464D4615D312D056B1BAEB0E0364EB51
:101A2000050404FA07F7CB401F43CC4037607460CD
:101A30000021BDE8F0871846F8E69046E0E6C2458A
:101A4000EAD2B8EB020E69EB03050138E4E7284659
:101A5000D7E7404691E78146BEE7014678E702387E
:101A60003C4445E7084608E7A8F102083D442BE757
:101A7000704700BF70B50F4E0F4D761BB61018BFE4
:101A8000002405D0013455F8043B9847A642F9D10B
:101A90000A4E0B4D761B00F0B5F8B61018BF0024A7
:101AA00006D0013455F8043B9847A642F9D170BDE1
:101AB00070BD00BF101C4000101C4000181C4000EE
:101AC000101C4000024B13B1024800F005B87047EB
:101AD00000000000E51A4000002301461A4618469F
:101AE00000F01EB838B50A4C0A4D641BA4100AD089
:101AF00004F18043013B05EB8305013C55F80439B3
:101B00009847002CF9D1BDE8384000F085B800BFF7
:101B1000281C4000241C4000704700BF704700BFD5
:101B20002DE9F8432C4D0646286898460F46914605
:101B3000FFF7F2FF294B1C68D4F84831002B3ED048
:101B40005A681F2A1CDC02F1010E76B103EB8201F8
:101B50000124C1F88890D3F8880194402043022ED4
:101B6000C3F88801C1F8088123D00232C3F804E029
:101B7000286843F82270FFF7D1FF0020BDE8F88302
:101B8000174B0BB34FF4C870AFF300800346D8B1C6
:101B9000D4F848210260002141600A46C4F8480197
:101BA0004FF0010EC0F88811C0F88C11002EDCD067
:101BB000CCE7D3F88C110C43C3F88C41D5E704F57E
:101BC000A673C4F84831BBE72868FFF7A7FF4FF0BA
:101BD000FF30BDE8F88300BF38044020001C4000FF
:101BE00000000000E20700000300000013000000F6
:101BF0000C0000000F0000002D000000010000009C
:101C000010004020F8B500BFF8BC08BC9E467047E5
:101C1000C51A400065014000F8B500BFF8BC08BC1B
:081C20009E467047410140009F
:081C28006CFBFF7F01000000CE
:101C3000BFF35F8F0138FBD17047010000093D0001
:101C400000000000FC02402064034020CC03402040
:101C50000000000000000000000000000000000084
:101C60000000000000000000000000000000000074
:101C70000000000000000000000000000000000064
:101C80000000000000000000000000000000000054
:101C90000000000000000000000000000000000044
:101CA0000000000000000000000000000000000034
:101CB0000000000000000000000000000000000024
:101CC0000000000000000000000000000000000014
:101CD0000000000000000000000000000000000004
:101CE00000000000000000000100000000000000F3
:101CF0000E33CDAB34126DE6ECDE05000B000000B8
:101D000000000000000000000000000000000000D3
:101D100000000000000000000000000000000000C3
:101D200000000000000000000000000000000000B3
:101D300000000000000000000000000000000000A3
:0C2060000000000000000000CC04402044
:0400000500400FB5F3
:00000001FF
