S019000052544F532D4C43442D6D6178546F7563682E737265634D
S21440000098E84020191D4000171D4000171D40006D
S214400010171D4000171D4000171D4000000000003F
S214400020000000000000000000000000F12040003A
S214400030171D40000000000091214000F9214000BB
S214400040171D4000171D4000171D4000171D40009B
S214400050171D4000171D4000171D4000171D40008B
S214400060171D40000000000091164000A5164000F5
S214400070B9164000171D4000171D4000171D4000D0
S214400080CD164000E1164000171D4000171D4000E9
S214400090171D4000171D4000171D4000171D40004B
S2144000A0171D4000171D4000171D4000171D40003B
S2144000B0171D40005D024000171D4000171D400000
S2144000C0171D4000171D4000171D4000171D40001B
S2144000D0171D4000171D4000171D4000171D40000B
S2144000E071024000171D4000171D4000171D4000BC
S2144000F0171D4000171D4000171D4000171D4000EB
S214400100171D4000171D4000171D4000171D4000DA
S214400110171D400000000000000000000000000026
S214400120171D4000171D4000171D4000171D4000BA
S214400130171D4000171D4000171D4000171D4000AA
S214400140171D4000171D4000171D4000171D40009A
S214400150171D4000000000000000000000000000E6
S214400160000000000000000010B5054C237833B9AD
S214400170044B13B10448AFF300800123237010BD35
S214400180C009402000000000F46D44000C4B43B111
S2144001900C480D4910B5AFF300800C48036823B9EE
S2144001A010BD0A48036833B97047094B002BF7D097
S2144001B0BDE810401847064B002BF5D0184700BF47
S2144001C000000000F46D4400C4094020F46D440073
S2144001D00000000070B582B0026BC36A1340019302
S2144001E000241C4E1C4DA84214BF002001200501CF
S2144001F00BE00E2C1ED8019A04F10C0101238B4013
S214400200134210D10134102C22D00B2CF1D8019A75
S2144002100123A3401342F5D02B1956F82330002B68
S214400220F0D09847EEE72B1956F82330002BE9D04C
S2144002309847E7E7019A04F10F0101238B401342E8
S214400240E0D02B1956F82330002BDBD09847D9E75F
S21440025002B070BD90C740200040064008B5024836
S214400260024B984708BD00BF00C00340D501400080
S21440027008B50248024B984708BD00BF00400640FC
S214400280D50140002DE9F0419CB00446484D19ABDD
S21440029095E8070003C31A8010AE05F10C070FCF90
S2144002A00FC60FCF0FC63B6833600DAB05F130026B
S2144002B007CA03C31A7004AE3C350FCD0FC60FCD28
S2144002C00FC62B683370002503953A4B02934A2796
S2144002D08DF80C70384B01931320384B9847384EA6
S2144002E001A93046374B984702233A4631462046C6
S2144002F0354EB0472A4606212046344EB0470122A6
S21440030001462046324FB8473248334B98472A4634
S21440031007212046B047202201462046B8472A46B5
S21440032007212046B047411C102289B22046B847D4
S2144003302A4607212046B047811C4B2289B22046D8
S214400340B8472A4607212046B047C11C842289B2B6
S2144003502046B8472A4608212046B04719AA0146F3
S2144003602046DFF87880C0472A4609212046B04715
S21440037010AA01462046C0472A462E212046B047AE
S2144003800DAA01462046C0472A4638212046B04797
S21440039004AA01462046C0472A4606212046B047C2
S2144003A0811C012289B22046B8471CB0BDE8F081C6
S2144003B098724000801A060080D1F0081518400058
S2144003C000800140611A4000E10340007906400089
S2144003D031074000D828320001004020B9064000CE
S2144003E0F0B587B004460E461746816002738361B7
S2144003F00025056107209D4B98472060019505958F
S214400400022302930390072304938DF8147001A9E6
S2144004103046974B9847401B18BF0120404208B1D2
S21440042007B0F0BD2568A87900EB400040008F4B30
S21440043098476060002301930493059307238DF843
S2144004400430022302930390AB7903EB43035B0033
S2144004500493237B8DF8143001A9A068844B9847F9
S214400460003018BF012040420028D9D12768606874
S214400470BB7903EB430676000736B6B23A460637F4
S2144004800021DFF8F0C192F801E0157845EA0E2524
S21440049085EA410111F0807F18BF81EA0C010232E3
S2144004A0BA42F0D1027843EA022383EA410212F0CC
S2144004B0807F03D082F4000282F01B02A6F1080778
S2144004C0012F12DD0123DFF8ACE1C1184D78C15C85
S2144004D041EA052181EA420212F0807F18BF82EA93
S2144004E00E0202339BB2BB42EFDB304410F8083CAE
S2144004F083EA420212F0807F03D082F4000282F048
S2144005001B0222F07F450023019305938DF804607B
S214400510360A8DF8056002230293CDF80CD00323EB
S2144005200493237B8DF8143001A9A068504B98475C
S21440053028B34FF0FF33AB4240F08B802568A87954
S21440054098B100230133DAB29042FBD86268431E6A
S214400550DBB2013303EB430302EB43010020537944
S2144005601844C0B206329142F9D140003F4B9847FA
S2144005706061AB7973B100270126BE4637E09DF82F
S21440058002209DF8003043EA02439DF8012043EAEA
S2144005900223D0E76FF0030042E70130C0B2626842
S2144005A05319197981421CD35B79002BF5D06268C8
S2144005B02A445379002BF0D033461178626902F80A
S2144005C01310626902EB430250700133DBB262687B
S2144005D02A44991B92F805C0C9B28C45EDD81E46F0
S2144005E0DBE70137FFB223689B799F4207D207EBD0
S2144005F047035A001546636813447046D4E75BB316
S2144006001046013BDBB2013303EB430302EB4302EC
S214400610002143791944C9B206308242F9D1F1B17A
S21440062062691378092B0FD000230133DBB28B426B
S2144006300CD012F8020F0928F7D15BB2B3F1FF3F96
S21440064010D023770020EBE60023F6E76FF0030098
S214400650E6E66FF00300E3E66FF00300E0E66FF0D7
S2144006600300DDE66FF00300DAE600BF79434000A2
S214400670951A40001B00800003689A79D2B110B4E6
S214400680446823788B420ED0A31D013AD2B2013281
S21440069002EB420204EB4202934209D01C4613F896
S2144006A0060B8842F8D1B4F801005DF8044B704759
S2144006B00020FAE70020704730B587B0002301934A
S2144006C0049305938DF804100B0A8DF80530022329
S2144006D00293039203689A79BAB14468B4F8013039
S2144006E08B420FD0A31D013AD2B2013202EB420236
S2144006F004EB4202934216D01C460633B4F801502F
S2144007008D42F7D1E2780132D2B20492037B8DF863
S214400710143001A98068054B9847003018BF012067
S214400720404207B030BD0022EFE700BF411B40000B
S21440073000B589B08DF807200023039307938DF802
S2144007400C10090A8DF80D10022304930DF10703CF
S214400750059301230693037B8DF81C3003A980681C
S214400760044B9847003018BF0120404209B05DF85E
S21440077004FB00BF411B40008269074B03EB52134A
S2144007805B02D96B02F01F02012303FA02F20A420F
S2144007900CBF1846002070470707200030B587B0CA
S2144007A004460D46002205210D4B98470023019331
S2144007B005938DF80400000A8DF805000223029385
S2144007C0039509230493237B8DF8143001A9A06870
S2144007D0044B9847003018BF0120404207B030BD58
S2144007E079064000951A4000F0B585B004460E469E
S2144007F0174D184F2046A84728B301A92046B847AA
S214400800034610BB9DF80430626912F81320092A8B
S214400810F0D1227F9B1A33709DF8053073709DF897
S21440082008309DF806101A0942EA011272809DF8B7
S214400830072003F00F0343EA0213B3809DF8093004
S214400840B371002301E06FF00303184605B0F0BD16
S214400850790740009D07400010B51048104B984758
S2144008603E2100200F4B98470F4CA0470028FCD055
S2144008700E4B98470E4A0F4B9A620F4CA0470028E3
S214400880FCD002200D4B984700200D4B98470D4B4F
S21440089098470D48024B984710BD00BF000E2707EB
S2144008A0ED1E400091174000E5174000F517400048
S2144008B0013F182000060E4005184000F51640007F
S2144008C02D174000E11D400000A3E11110B504467D
S2144008D0104B984780232360636843F001036360AE
S2144008E0636843F010036360636823F080036360CB
S2144008F000212046084B9847636823F00203636054
S214400900636823F00403636000212046034B984746
S21440091010BD00BF351840006118400077184000F1
S2144009202DE9F04104460D46164615491846154B26
S2144009309847074600231A4629682046DFF85C8019
S214400940C0470822296820460F4B9847FAB22968C4
S21440095020460E4B98470822296820460C4B98475D
S2144009607208296820460B4B984786F0010202F031
S214400970010229682046084B9847BDE8F08100BF31
S21440098080D1F008531940003F19400069194000D3
S214400990F9184000BD184000DB184000911940008F
S2144009A008B5436813F0040F06D009680F2900D92C
S2144009B008BD064B984708BD09680329F8D80123A7
S2144009C003FA01F1C943014B9847F1E7611840002B
S2144009D01AB110B40C46114406E00020704714F8D3
S2144009E0013BC360A1420CD043F69923026912F042
S2144009F0020FF4D1013BF9D16FF002005DF8044BD1
S214400A0070470020FAE73AB170B415460C460D44DC
S214400A10FF2640F2012112E000207047C66043F6F0
S214400A209923026931EA020204D0013BF9D16FF002
S214400A3002000EE0836804F8013BA5420BD043F663
S214400A409923026912F0020FE8D1013BF9D16FF009
S214400A50020070BC70470020FBE700002DE9F04123
S214400A6080B90C469046002A0FDD8F18084E094D77
S214400A70306821462B6898470134BC42F8D140463E
S214400A80BDE8F0814FF0FF38F9E78046F7E700BF52
S214400A9018C8402010C840200138022815D82DE933
S214400AA0F0410E4614469AB10D46DFF838800C4F9A
S214400AB0D8F8000015F8011B3B68984700280ADB69
S214400AC0A81B013CF4D1BDE8F0814FF0FF307047E1
S214400AD01046BDE8F0814FF0FF30BDE8F08100BF22
S214400AE014C8402018C840202DE9F0414FF4004279
S214400AF09E4B5A60BFF34F8FBFF36F8F9C4B0022C5
S214400B00C3F850225A6942F400325A61BFF34F8FFD
S214400B10BFF36F8FD3F88070C7F34E3607F00700E9
S214400B200430C7F3C907B7FA87FE0EF01F0EBFF3AF
S214400B304F8F4FF0FF3404FA00FC06FA00F004FA38
S214400B400EF407FA0EFE1D463A46734640EA030187
S214400B50C5F86012013A2344B2F1FF3FF6D1013E98
S214400B606044B6F1FF3FEFD1BFF34F8F804B5A69D9
S214400B7042F480325A61BFF34F8FBFF36F8F7D4A86
S214400B807D495160A1F580715160BFF34F8FBFF32F
S214400B906F8FD3F8902222F00102C3F89022D3F848
S214400BA0942222F00102C3F89422BFF34F8FBFF382
S214400BB06F8F0A20714CA0470B20A0470C20A047FF
S214400BC01020A0471120A0476D4E4FF48078C6F8FD
S214400BD01080C6F8A080C6F830806A4C4FF4006596
S214400BE06561C4F8A0506566C4F890506565256296
S214400BF0C4F88450236F23F400632367636F23F4A1
S214400C0000636367C4F8C050C4F8D450C4F8B0500A
S214400C104FF400132366C4F8903063656362C4F8EB
S214400C208030226F22F400122267626F22F4001294
S214400C3062676360544AD2F8143143F01003C2F836
S214400C40143102F5B22210231366C2F89030536571
S214400C505362C2F88030116F19431167516F1943C0
S214400C605167536008222266C4F89020626562622B
S214400C70C4F88020216F21F008012167616F21F0C0
S214400C800801616762602366C4F8903063656362FA
S214400C90C4F88030226F22F010022267626F22F082
S214400CA010026267636000234FF400524FF06051B9
S214400CB03046364FB84700234FF080424FF06051E1
S214400CC03046B8470123FF224FF000613046B84710
S214400CD001233F224FF000612D48B84701234FF4CF
S214400CE0C0324FF000612046B847012342464FF0DD
S214400CF000613046B84701232A464FF0006130462F
S214400D00B84701234FF400224FF000612148B8470E
S214400D1000234FF400724FF080513046B8474FF4EE
S214400D20007130461C4B98474FF0805174201B4C46
S214400D30A0474FF080517520A0474FF08051762055
S214400D40A0474FF080517B20A0474FF060511820BD
S214400D50A0474FF060510620A0474FF06051532007
S214400D60A04753200E4B9847BDE8F08150180E40E0
S214400D7000ED00E0000C0E400C08005A151840002C
S214400D8000120E40000E0E40008008404114400005
S214400D9000160E4000140E404D1340001115400042
S214400DA0D914400030B40468B4F5A07F02D340F2B2
S214400DB03F1404601468B4F5A07F02D340F23F1499
S214400DC014600C68B4F5F07F02D340F2DF140C6078
S214400DD01C68B4F5F07F02D340F2DF141C60046850
S214400DE01568AC4201D9056014600A6818688242EA
S214400DF001D908601A6030BC7047000010B582B058
S214400E0006200A4B9847002303222C210848094C09
S214400E10A04700230193019BFE2B05D8019B01337D
S214400E200193019BFE2BF9D902B010BDF51440008A
S214400E30008000408918400070B582B005460E46D6
S214400E4014460620144B984700230322294613488D
S214400E50134DA84700230193019BFE2B05D8019B09
S214400E6001330193019BFE2BF9D90CB902B070BD3A
S214400E7006200C4B98472246314608480A4B98476E
S214400E8000230193019B5E2BF0D8019B0133019315
S214400E90019B5E2BF9D9E9E7F5144000008000403D
S214400EA089184000D9144000D109400030B583B0BD
S214400EB004460D4606200A4B98472A4621460948CE
S214400EC0094B984700230193019BFE2B05D8019BB5
S214400ED001330193019BFE2BF9D903B030BD00BF0F
S214400EE0D914400000800040D1094000014630B18E
S214400EF0034A044B013BFDD19142FAD870477047F4
S214400F00A1860100A086010000B583B058B94823E9
S214400F108DF8073001220DF107013620044B984723
S214400F2003B05DF804FBE8238DF80730F2E700BF16
S214400F30390E400010B584B0ADF80E00013A0244B8
S214400F40ADF80C20ADF80A10013B1944ADF8081076
S214400F50030A8DF804308DF80500C2F307238DF898
S214400F6006308DF8072004220DEB02012A20104C93
S214400F70A047002211461046A0479DF80B308DF83A
S214400F8004309DF80A308DF805309DF809308DF80C
S214400F9006309DF808308DF8073004220DEB02012C
S214400FA02B20A047002211461046A04704B010BD93
S214400FB0390E400008B5002211462920014B9847BB
S214400FC008BD00BF390E400010B4C0F30744C0F35C
S214400FD00721064B03F570721C70597098700333E6
S214400FE09342F9D15DF8044B704700BFDC094020BE
S214400FF010B584B0ADF80600ADF80410030A8DF8BD
S2144010000C30C0B28DF80D008DF80E308DF80F0004
S214401010042203A92A200E4CA0470022114610465F
S214401020A0479DF805208DF80C209DF804308DF8DB
S2144010300D308DF80E208DF80F30042203A92B209A
S214401040A047002211461046A04704B010BD00BF7E
S214401050390E40002DE9F04387B08146032706AE9F
S21440106046F8087D5D4D28465D4B98470024009421
S2144010705C4B3A4631462846DFF89881C0472246C0
S21440108039462846584B984731462846574B984746
S21440109001202860686122462146554EB047C82048
S2144010A0544DA847224621461120B047C820A8479D
S2144010B081238DF80A308DF80B4010264FF001083A
S2144010C04B4F254642460DF10A01FB20B8479DF896
S2144010D00A3001338DF80A300395039BFE2B05D862
S2144010E0039B01330393039BFE2BF9D92A462946DB
S2144010F0D320B8470620404B984742460DF1090199
S21440110036483E4B98470395039BFE2B05D8039BDA
S21440111001330393039BFE2BF9D99DF80930B34066
S2144011201C4342460DF10B01FB20B8470395039A3A
S21440113040F6FE739A4206D81A46039B0133039341
S214401140039B9342F9D9083E16F1080FBAD149F2EB
S21440115088439C4203D0012007B0BDE8F08306AD2B
S214401160482305F8013D012229463620204EB04747
S2144011706420204CA04704238DF8173001222946CE
S214401180CF20B0476420A04706238DF817300122B1
S21440119029463A20B0476420A04700221146132033
S2144011A0B0476420A047164B98476420A0470020CD
S2144011B0144B98476420A047B9F80430B9F800208B
S2144011C000210846104CA047D9F808000F4B984716
S2144011D0002108460E4B98470020BDE7008000409F
S2144011E0CD084000002D3101F9184000A10940000B
S2144011F0390E4000ED0E4000D9144000070A40006A
S214401200B50F4000090F4000350F4000C90F4000A1
S214401210F10F4000210940002DE9F04184B00390D1
S2144012200291019204AA42F8103D134601AA02A96F
S21440123003A8224CA047BDF80C00BDF80810009B40
S21440124001335B1A019A0132121A9BB292B21C4CBD
S214401250A0471C4B98470399019D691A009D01358C
S214401260029BED1A01FB0555174BA3FB05231B0AF2
S21440127063B15C1EDFF858804FF47077134E3946E2
S2144012804046B047013CB4F1FF3FF8D10E49A1FBC0
S2144012900531090A01EB8101A5EB811101EB410102
S2144012A00B480A4B98474FF4F0734FF4A072002156
S2144012B00846034CA04704B0BDE8F081A50D4000A9
S2144012C0350F4000FD0D4000CDCCCCCCAD0E4000DF
S2144012D0DC09402010B584B003900291013A1044D6
S2144012E00190013B194404AB43F8101D01AA02A922
S2144012F003A8134CA047BDF80C00BDF80810009B8F
S21440130001335B1A019A0132121A9BB292B20D4C0B
S214401310A0470399019A511A029A009B9A1A02FB17
S21440132001F202EB420206992C20074B98474FF4F5
S214401330F0734FF4A07200210846A04704B010BDD9
S214401340A50D4000350F4000390E40000163704740
S2144013504264B1F1C05F3AD013D8B1F1006F25D0E6
S214401360B1F1805F0AD1036F13430367436F416F48
S2144013700B4023EA02034367426070470029FBD1D3
S2144013807047B1F1205F21D009D8B1F1005FF3D1A9
S214401390036F13430367436F13434367ECE7B1F1AF
S2144013A0405F13D0B1F1605F10D0E5E710B4016F35
S2144013B0046FD34321401C4619400167436F416F79
S2144013C00B402340436742605DF8044B7047036F11
S2144013D0016F0B4023EA02030367436F13434367DF
S2144013E0CAE7416412F0010F0DD1016612F00A0FF0
S2144013F00BD0016212F0020F09D112F0080F08D08C
S214401400C0F8841005E04166F0E74162F2E7C0F8B4
S214401410801041610160704710B4019C41644CB932
S21440142001664BB101654AB94163016101605DF8EF
S214401430044B70474166F4E74165F4E70163F4E71F
S21440144070B582B0054616461C46B1F1005F14D012
S2144014500AD9B1F1405F24D0B1F1605F21D0B1F13B
S214401460205F17D000201AE0B1F1805F05D0B1F1BF
S214401470C05F02D0B1F1006FF4D132462846114B1E
S214401480984714F0010F02D12E66012007E06E66E1
S214401490012004E01A4631460B4B9847012002B023
S2144014A070BD04F001030093C4F38003B1F1605FA4
S2144014B014BF0022012231462846044CA047012092
S2144014C0EDE700BF51134000E313400019144000FD
S2144014D0C06C7047806C7047054B03EB50135B0243
S2144014E000F01F00012202FA00F01863704700BFA8
S2144014F007072000054B03EB50135B0200F01F006C
S214401500012202FA00F05863704700BF0707200028
S21440151070B582B00D46464C04EB5014640201F0A0
S214401520F043B3F1005F59D00AD8B3F1805F2FD0B3
S214401530B3F1C05F3FD0B3F1006F16D0002012E089
S214401540B3F1405F5DD0B3F1605F5AD0B3F1205F36
S214401550F4D100F01F0101262A4606FA01F1204682
S214401560344B9847304602B070BD00F01F0001264D
S214401570864032464FF0006120462F4B984715F084
S214401580010F02D126660120EDE766660120EAE7F4
S21440159000F01F000126864032464FF0805120461C
S2144015A0254B984715F0010F02D126660120DAE751
S2144015B066660120D7E700F01F00012686403246C7
S2144015C04FF0C05120461C4B984715F0010F02D1F2
S2144015D026660120C7E766660120C4E700F01F00C4
S2144015E00126864032464FF000512046124B98471F
S2144015F015F0010F02D126660120B4E76666012089
S214401600B1E705F0605200F01F01012605EA060327
S2144016100093C5F38003B2F1605F14BF002201223D
S21440162006FA01F12046054CA04730469BE700BF2E
S21440163007072000E31340005113400019144000F0
S2144016402DE9F041044688460E4B9847054620460D
S2144016500D4B9847054013D00C4C04F1600603E050
S214401660B4420DD010345DB120684045F8D1616871
S2144016702942F5D0E3689847636825EA0305EFE713
S214401680BDE8F081D1144000D51440009C0D4020A8
S21440169008B50A210148024B984708BD000E0E4087
S2144016A04116400008B50B210148024B984708BD3B
S2144016B000100E404116400008B50C210148024B70
S2144016C0984708BD00120E404116400008B510214C
S2144016D00148024B984708BD00140E404116400092
S2144016E008B511210148024B984708BD00160E4028
S2144016F041164000032811D0042812D002280CBFFF
S2144017004FF480710021084A136B23F440730B4357
S2144017101363936E13F0080FFBD070474FF440717D
S214401720F1E74FF40071EEE700060E40174A136BE0
S21440173023F0700318431063936E13F0080F0AD11A
S2144017404FF4805311498A6E12F0080F03D1013BC3
S214401750F9D1012070470D4A136B23F0030343F081
S21440176002031363936E13F0080F0AD14FF48053AD
S21440177006498A6E12F0080F05D1013BF9D10120C7
S2144017807047002070470020704700BF00060E409C
S214401790A0B90E48036A090289B20D4A1A400D4B99
S2144017A01343194301620246936E13F0010FFBD0B8
S2144017B0064A116A084B0B431362704703490B6A8B
S2144017C0064A1A40064B13430B62704700060E400B
S2144017D0FCFFC8FF0100370000003701FCFFC8FED1
S2144017E002003701024B986E00F48030704700BF0D
S2144017F000060E404FF00052014B9A62704700BF01
S21440180000060E40024B986E00F00200704700BF84
S21440181000060E4000F07F00054BC3F80C01D3F8DD
S2144018200C2142F01022C3F80C210020704700BF64
S21440183000060E4008B5074B984203D0064B984228
S21440184004D008BD1520054B984708BD2A20034BF9
S2144018509847F6E700800040008005401518400095
S214401860436823F4702343604368090401F47021FD
S214401870194341607047436823F07F4343604368A1
S21440188043EA01614160704730B443F699240569E4
S21440189015F0020F03D1013CF9D101200CE0446859
S2144018A014F0020F06D0120402F4702211430BB15A
S2144018B041F08071C160002030BC704732B900EB07
S2144018C08100036B23F001030363704700EB810044
S2144018D0036B43F001030363704732B900EB8100AA
S2144018E0036B23F002030363704700EB8100036B36
S2144018F043F0020303637047042A03D06AB1082A00
S21440190016D0704700EB8100036B23F00803036397
S214401910036B43F004030363704700EB8100036BE3
S21440192023F008030363036B23F004030363704749
S21440193000EB8100036B43F008030363E1E700EB31
S21440194081010B6B23F0F0030B630B6B1A430A63A6
S2144019507047431E1944B1FBF0F0431EFE2B94BF64
S21440196000B24FF0FF3070477AB110B4144600EB27
S21440197081010B6B23F47F430B630A6B42EA04221C
S2144019800A6300205DF8044B70474FF0FF30704705
S21440199010B400EB8101086B80B208630C6B44EA1C
S2144019A0036343EA02430B635DF8044B7047000051
S2144019B0284B99424BD8A3F57A5399422DD910B467
S2144019C0254CA4FB0234A40B033C244B0B449B0045
S2144019D0B2FBF3F2033AFF2C1DD900210131640813
S2144019E0FF2C01D90629F9D9FF2A07D9062905D897
S2144019F001315208FF2A01D90629F9D913029BB2B0
S214401A00090401F4E0210B43E4B2234303610020C0
S214401A105DF8044B70470021E6E74900B2FBF1F25F
S214401A20033AFF2A11D9002301335208FF2A01D96D
S214401A30062BF9D9110289B21B0403F4E0230B43A9
S214401A40D2B21A430261002070470023F2E7012019
S214401A50704700BF801A0600F11976050012FD3F58
S214401A6008B54FF0FF328262026A80220260026B43
S214401A700822026020220260042202600A68496846
S214401A80034B9847012814BF0020012008BD00BF23
S214401A90B1194000CA68002A4CD070B48C68002641
S214401AA046604B681B0203F4407343F480530D7C3E
S214401AB02D0405F4FE052B434360C6604D685DB1BA
S214401AC00B78012D02DD4E7846EA0323022D04DD15
S214401AD0897841EA032300E00023C36001230360C2
S214401AE0022512E0056013F0020F1BD0036B237033
S214401AF0036A13F0010FFBD0036A002070BC7047E6
S214401B00036B04F8013B013AF2D0036A13F4807F7A
S214401B1014D147F23051012AE4D013F0020FEFD12E
S214401B20002AE5D0036A13F4807F05D10139F2D14B
S214401B300920E3E7012070470520DFE70520DDE7C1
S214401B40CB68002B43D070B48C68002646600A7C75
S214401B50120402F4FE024D682D0205F440752A4335
S214401B604260C6604D685DB10A78012D02DD4E7850
S214401B7046EA0222022D04DD897841EA022200E08C
S214401B800022C26004E014F8012B4263013B0FD0F0
S214401B90026A12F4807F1ED112F0040FF3D1026A5B
S214401BA012F4807F15D112F0040FECD1002BF6D141
S214401BB0036A13F4807F11D113F0040FF8D0022388
S214401BC00360036A13F0010FFBD0002004E00120FD
S214401BD07047052000E0052070BC70470520FBE7F5
S214401BE0436913F0020F02D0C16100207047012004
S214401BF07047436913F0010F03D083690B700020D0
S214401C0070470120704710B40B01934214D9C900A5
S214401C104B0803EBC202B2FBF1F2D3085C1E4FF650
S214401C20FE718C4201D9012017E0416841F4002141
S214401C3041600CE0012010E0590801EBC202B2FB03
S214401C40F3F2D3085C1E4FF6FE718C42F2D81204B3
S214401C5002F4E0221A43026200205DF8044B70470B
S214401C60084BC0F8E4300023436043628362882315
S214401C700360242303604FF4807303604FF4002313
S214401C80036070470041535570B505460C461646EE
S214401C900F4B984700220F4B1A60A4B1324621687A
S214401CA028460D4B9847024678B96368A1680B43AF
S214401CB021690B43E1680B4306490B6069680B4397
S214401CC06B60104670BD0122FBE70122F9E700BFBA
S214401CD0611C40000C0E4020071C4000402303605F
S214401CE07047102303607047436913F0020F04D017
S214401CF0C1F30801C1610020704701207047436965
S214401D0013F0010F05D08369C3F308030B6000206E
S214401D10704701207047FEE700B583B0254B264A42
S214401D209A4210D0254B234A9A420CD2013B9B1A2A
S214401D3023F00303043313441F4951F8040B42F8BD
S214401D40040B9A42F9D11E4B1E4A9A420AD2013BD4
S214401D509B1A23F0030304331344002142F8041B68
S214401D609342FBD1184A194B23F07F039360EFF35D
S214401D701083B3FA83F35B09019372B6BFF35F8FA8
S214401D800022134B1A700199124A136843F47003E9
S214401D901360BFF34F8FBFF36F8F29B101220C4BF7
S214401DA01A70BFF35F8F62B60B4B98470B4B984742
S214401DB0FEE700BF00004020F46D4400C00940200C
S214401DC098C84020C009402000ED00E000004000D8
S214401DD00A00402088ED00E001434000F941400001
S214401DE03B4B1B6B03F00303012B1DD083B1022B2F
S214401DF036D0374B1B6B03F07003702B5FD0344BE1
S214401E001A6B3449C2F302120B68D3400B6070471A
S214401E10314B5B6913F0800F14BF4FF400424FF410
S214401E20FA422C4B1A60E4E7294B1B6A13F0807F7A
S214401E3003D02A4A274B1A60DBE7294A254B1A600B
S214401E40234B1B6A03F07003102B05D0202BD0D1F8
S214401E50224A204B1A60CCE7224A1E4B1A60C8E73B
S214401E601B4B1B6A13F0807F16D01C4A194B1A6016
S214401E70174B1B6B03F00303022BBAD1144A916A2B
S214401E80926A1448C1F30A41036801FB0333D2B295
S214401E90B3FBF2F30360ACE7114A0E4B1A600C4BEF
S214401EA01B6A03F07003102B05D0202BE0D10B4AA1
S214401EB0084B1A60DCE70B4A064B1A60D8E7054A1F
S214401EC013680949A1FB03135B081360704700BF02
S214401ED000060E400C00402010180E40001BB700B5
S214401EE000093D0000127A00ABAAAAAA164B9842F7
S214401EF013D9164B984215D9154B984216D9154BFF
S214401F00984217D9144B984218D9144B984294BF0C
S214401F10134A144A144B1A6070474FF08062124BB3
S214401F201A607047114A104B1A607047104A0E4BA1
S214401F301A6070470F4A0C4B1A6070474FF00422E5
S214401F40094B1A60704700BFBFF35E017FE7BD02D2
S214401F503FDB1C04FFCE7B05BFC2DA067FB63908DE
S214401F600005000400060004000C0E4000010004BA
S214401F7000020004000300040A4B1B6853B1094BDF
S214401F801B681A180849914208DB1046054A10603B
S214401F9018467047054A034B1A60F0E74FF0FF308B
S214401FA0704700BF100E4020FCFF452098EA4020B6
S214401FB04FF0FF3070474FF400534B60002070479F
S214401FC0012070470020704700F1080343604FF03F
S214401FD0FF328260C36003610023036070470023C2
S214401FE00361704743684B609A688A609A6851609C
S214401FF099600861036801330360704730B40D6828
S214402000B5F1FF3F02D000F1080202E0026904E0A9
S2144020101A4653681C68A542FAD253684B609960CA
S2144020208A605160086103680133036030BC7047C2
S21440203003694268816891608268416851605A6865
S214402040904205D000220261186801381860704737
S21440205082685A60F6E700000D4B1B68B3F1FF3FFD
S2144020600AD04FF0800372B683F31188BFF36F8FA8
S214402070BFF34F8F62B6FEE74FF0800372B683F32E
S2144020801188BFF36F8FBFF34F8F62B6FEE700BF76
S2144020901000402006480068006880F3088862B652
S2144020A061B6BFF34F8FBFF36F8F00DF00BF0000F6
S2144020B008ED00E0DFF80C00016841F470010160B3
S2144020C07047000088ED00E04FF0807340F8043C15
S2144020D040F8081C054B40F80C3C40F8202C6FF0AC
S2144020E0020340F8243C4438704700BF5920400063
S2144020F0064B19680868B0E8F04F80F30988BFF3CC
S2144021006F8F4FF0000080F31188704724C6402040
S214402110704700BF4FF0800372B683F31188BFF359
S2144021206F8FBFF34F8F62B60B4A1368013313604D
S214402130012B0FD1094B1B6813F0FF0F0AD04FF04D
S214402140800372B683F31188BFF36F8FBFF34F8F50
S21440215062B6FEE7704700BF1000402004ED00E086
S2144021600A4B1B6853B94FF0800372B683F311884D
S214402170BFF36F8FBFF34F8F62B6FEE7013B034A54
S21440218013600BB983F31188704700BF10004020DE
S214402190EFF30980BFF36F8F154B1A681EF0100FD0
S2144021A008BF20ED108A20E9F04F10604DF8043D3E
S2144021B04FF0800072B680F31188BFF34F8FBFF3A5
S2144021C06F8F62B601F0AAF84FF0000080F31188D6
S2144021D008BC19680868B0E8F04F1EF0100F08BF3A
S2144021E0B0EC108A80F30988BFF36F8F704700BF4A
S2144021F024C64020704700BF08B5EFF311834FF068
S214402200800272B682F31188BFF36F8FBFF34F8F91
S21440221062B6054B984718B14FF08052034B1A6090
S214402220002383F3118808BD892F400004ED00E0A9
S214402230034A044B1A600722043B1A60704700BFEB
S2144022407FA9030014E000E000B583B0254B1A7860
S214402250D2B20192FF221A701B78DBB28DF803309F
S2144022609DF8033003F080031F4A137007221F4B6C
S2144022701A609DF8033013F0800F10D0062200E05D
S2144022800A469DF803305B00DBB28DF803309DF8BC
S2144022900330511E13F0800FF2D1144B1A60134ACC
S2144022A013681B0203F4E0631360019BDBB20D4A24
S2144022B013700F4B1A6842F460021A601A6842F0B4
S2144022C060421A600B4B984700220B4B1A600B4B30
S2144022D098470B4A136843F040431360094B9847AE
S2144022E0094B984700E400E0140E4020180E4020AA
S2144022F020ED00E03122400010004020B520400094
S21440230034EF00E09520400059204000EFF305836D
S2144023100F2B11D9124A9B5CDBB2124A12789A42B2
S2144023200AD94FF0800372B683F31188BFF36F8FDC
S214402330BFF34F8F62B6FEE70B4B1B6803F4E063B8
S2144023400A4A126893420AD94FF0800372B683F362
S2144023501188BFF36F8FBFF34F8F62B6FEE77047AB
S214402360F0E300E0140E40200CED00E0180E402094
S21440237038B5044610F0070F02D020F007040834A2
S214402380114B9847114B1B6893B1114B1B681C446B
S214402390A34213D24BF2F77294420FD80B4A1568F9
S2144023A01D440B4B1C600B4B98474DB1284638BD1F
S2144023B0094B23F00703054A1360E6E7054B9847A9
S2144023C0064B98470025F1E76D2F40001C0E402035
S2144023D020C64020D5304000280E40205B3E4000BE
S2144023E050B14FF0800372B683F31188BFF36F8FFE
S2144023F0BFF34F8F62B6FEE77047000038B504461D
S2144024001546026C5AB90368002B2ED140681B4B08
S214402410984700236360A36B0133A36338BD6DB94F
S2144024208068174B9847A368226C1344A360626881
S21440243093421CD32368A3600020ECE7C068104B8F
S2144024409847236C5B42E2681A44E26021688A42FD
S21440245002D262681344E360022D0AD1A36B53B1E3
S214402460A36B013BA3630020D5E70020D3E7002001
S214402470D1E70020CFE70020CDE700BF1D37400062
S214402480E948400030B583B00190446D74B1A26B0A
S214402490E36B9A4215D34FF0800372B683F31188EC
S2144024A0BFF36F8FBFF34F8F62B6FEE74FF08003E8
S2144024B072B683F31188BFF36F8FBFF34F8F62B648
S2144024C0FEE7A26B934203D80025284603B030BDF2
S2144024D00A4601A920460B4B98470546A36CB3F124
S2144024E0FF3F0AD1636A002BEFD004F12400064B6D
S2144024F09847002818BF0125E7E7A36C0133A3647B
S214402500E3E700BFFD234000F1344000026C72B1A7
S21440251010B50346C4681444C4604068844201D37E
S2144025201868D8600846D968014B984710BD704770
S214402530E9484000F8B50446224B9847A36C002B68
S2144025401BDD214D214F224E0BE0636AABB104F1F7
S2144025502400B04778B9A36C013BA364A36C002B5E
S2144025600BDD636D002BF0D000212046A8470128E4
S214402570F1D1B847EFE7B847EDE74FF0FF33A36434
S214402580144B98470F4B9847636C002B14DD236918
S21440259093B104F110060E4D0C4F07E0636C013BFF
S2144025A06364636C002B07DD23692BB13046A84774
S2144025B00028F3D0B847F1E74FF0FF336364054B8C
S2144025C09847F8BD15214000852440004D36400010
S2144025D0F13440006121400038B508B304460D464A
S2144025E01D4B98472268216CE36B03FB01F3D01820
S2144025F060600020A063A2605B1A1344E3604FF063
S214402600FF336364A364FDB923692BB104F1100062
S214402610124B984701280ED0114B9847012038BDE1
S2144026204FF0800372B683F31188BFF36F8FBFF30A
S2144026304F8F62B6FEE74FF080520A4B1A60BFF3E8
S2144026404F8FBFF36F8FE7E704F11000064DA847A2
S21440265004F12400A847DFE715214000F13440008C
S2144026606121400004ED00E0C91F4000F8B550B9B4
S2144026704FF0800372B683F31188BFF36F8FBFF3BA
S2144026804F8F62B6FEE7064617460D4689B101FBF8
S21440269000F05930124B98470446E8B94FF0800393
S2144026A072B683F31188BFF36F8FBFF34F8F62B656
S2144026B0FEE758200A4B984704460028EED0206094
S2144026C0E663256401212046064B984784F85070FF
S2144026D0002363652046F8BD00F158030360EFE72A
S2144026E071234000D92540002DE9F04F85B0019276
S2144026F0B8B1044601B3022B2CD01D468846664B23
S2144027009847002834D1019B002B38D04FF08003E7
S21440271072B683F31188BFF36F8FBFF34F8F62B6E5
S214402720FEE74FF0800372B683F31188BFF36F8FD6
S214402730BFF34F8F62B6FEE7026C002ADBD04FF045
S214402740800372B683F31188BFF36F8FBFF34F8F4A
S21440275062B6FEE7E26B012ACFD04FF0800372B636
S21440276083F31188BFF36F8FBFF34F8F62B6FEE7D8
S21440277000274A4EDFF850A1DFF82C9142E00027B0
S214402780F7E72A4641462046454B9847636D9BB13E
S21440279029462046434B9847012807D14FF08052A0
S2144027A0414B1A60BFF34F8FBFF36F8F3F4B984735
S2144027B0012005B0BDE8F08F636A73B104F12400D0
S2144027C03B4B98470128F1D14FF08052364B1A6068
S2144027D0BFF34F8FBFF36F8FE8E70028E6D04FF088
S2144027E08052314B1A60BFF34F8FBFF36F8FDDE7D8
S2144027F02E4B98470020DCE720462E4B98472E4B22
S21440280098470127B047A26BE36B9A42B9D3022D93
S214402810B7D0019B002BEBD00FB902A8D047234B73
S2144028209847264B9847B047636CB3F1FF3F01D1BA
S21440283000236364A36CB3F1FF3F01D10023A3647C
S2144028401A4B984701A902A81D4B9847E0B9B047D4
S214402850D4F838B0E76B154B9847BB45CCD10199B7
S21440286004F11000174B98472046124B9847124BDE
S21440287098470028C5D14FF08053C9F80030BFF3C1
S2144028804F8FBFF36F8FBCE720460A4B98470A4BE3
S214402890984700208DE700BF59364000152140007C
S2144028A0FD2340008524400004ED00E06121400007
S2144028B0F134400035254000D53040006D2F4000B3
S2144028C0B9354000ED33400089354000002836D009
S2144028D02DE9F041044600293CD0022B48D01E4644
S2144028E015468846354B9847EFF311874FF08003DF
S2144028F072B683F31188BFF36F8FBFF34F8F62B604
S214402900A26BE36B9A4201D3022E4FD13246414628
S21440291020462B4B9847A36CB3F1FF3F41D1636DE4
S214402920002B33D031462046264B9847002D3FD0CB
S21440293001283DD1286087F31188BDE8F0814FF02B
S214402940800372B683F31188BFF36F8FBFF34F8F48
S21440295062B6FEE7006C0028BFD04FF0800372B628
S21440296083F31188BFF36F8FBFF34F8F62B6FEE7D6
S214402970E06B0128B3D04FF0800372B683F3118822
S214402980BFF36F8FBFF34F8F62B6FEE7636A8BB1BC
S21440299004F124000C4B984775B168B101202860BB
S2144029A0C9E7A36C0133A3640120C4E70020C2E753
S2144029B00120C0E70120BEE70120BCE70D23400010
S2144029C0FD23400085244000F13440002DE9F047C7
S2144029D084B0019298B10446E1B198460F46614BE7
S2144029E0984728BB019B53B34FF0800372B683F3DE
S2144029F01188BFF36F8FBFF34F8F62B6FEE74FF07D
S214402A00800372B683F31188BFF36F8FBFF34F8F87
S214402A1062B6FEE7026C002ADFD04FF0800372B643
S214402A2083F31188BFF36F8FBFF34F8F62B6FEE715
S214402A3000264D4DDFF860A1DFF83C914BE00026C4
S214402A40F7E7E56839462046484B9847B8F1000F07
S214402A501DD1A36B013BA363236813B9444B98472E
S214402A60606023696BB104F11000424B984701281F
S214402A7007D14FF08052404B1A60BFF34F8FBFF3E1
S214402A806F8F3E4B9847012004B0BDE8F087E56065
S214402A90636A002BF5D004F12400364B9847002893
S214402AA0EFD04FF08052344B1A60BFF34F8FBFF3D6
S214402AB06F8FE6E7314B98470020E5E7A847606808
S214402AC02F4B98472D4B984730E020462D4B984744
S214402AD02D4B98470126A847A36B002BB1D1019BED
S214402AE0002BE7D00EB902A8D047244B9847274B77
S214402AF09847A847636CB3F1FF3F01D10023636456
S214402B00A36CB3F1FF3F01D10023A3641B4B98474E
S214402B1001A902A81E4B9847E8B9A847A66B174BD1
S214402B209847002ED1D12368002BC7D0019904F1D5
S214402B302400184B98472046124B9847124B98470C
S214402B400028C7D14FF08053C9F80030BFF34F8FED
S214402B50BFF36F8FBEE720460A4B98470A4B98470D
S214402B60002091E759364000152140000D254000D1
S214402B70D9374000F134400004ED00E061214000C8
S214402B807936400035254000D53040006D2F400056
S214402B90B9354000ED3340008935400010B40B4B4A
S214402BA01B6853B10123094C54F8332032B101332A
S214402BB0082BF9D15DF8044B70470023034A42F8CE
S214402BC0331002EBC3035860F4E700BF1CC8402034
S214402BD070B504460D4616460F4B9847636CB3F1E6
S214402BE0FF3F0BD0A36CB3F1FF3F0AD00B4B984787
S214402BF0A36B4BB120460A4B984770BD00236364D5
S214402C00F0E70023A364F1E73246294604F12400A6
S214402C10044B9847EEE700BF152140006121400075
S214402C203525400071344000084B1B681B683BB19B
S214402C30064B1B68DB68DB685A68054B1A607047B2
S214402C404FF0FF32024B1A60704700BF28C6402044
S214402C50D4C6402010B50F4B1B6858600E4B1B68FF
S214402C6098420ED304460D4B18680A4B1968043137
S214402C700B4B98470B4B1B689C4201D2094B1C6080
S214402C8010BD094B1868034B19680431044B98472C
S214402C9010BD00BF24C640201CC7402028C6402088
S214402CA0FD1F4000D4C640202CC640202DE9F04FE2
S214402CB083B00C9DDDF834A00E9E60B1042D15D96E
S214402CC04FF0800372B683F31188BFF36F8FBFF364
S214402CD04F8F62B6FEE74FF0800372B683F31188DB
S214402CE0BFF36F8FBFF34F8F62B6FEE701909846F3
S214402CF091460F4636B99000624B984706460028E4
S214402D0000F09E8058205F4B98470446002800F00D
S214402D10948006634FEA8902A52130465A4B98476D
S214402D206FF040464E44236B03EB860323F00706C2
S214402D303B7884F834303B78002B40F08480002782
S214402D4084F83D70E562A564E76404F104094846EA
S214402D50DFF884B1D84704F11800D8472461C5F19C
S214402D600503A3616462276584F85470424601995E
S214402D703046464B98472060BAF1000F01D0CAF85B
S214402D800040434B9847434A136801331360424B15
S214402D901B68002B66D1404B1C601368012B21D169
S214402DA03E4F38463E4EB04707F11400B04707F155
S214402DB02800B04707F13C00B04707F15000B04745
S214402DC0DFF818814046B047364F3846B047364859
S214402DD0B0473648B0473648B047364BC3F8008011
S214402DE0354B1F60354A1368013313602364E06A2D
S214402DF0334A1168012383400B43136000EB800085
S214402E004946264B03EB80002E4B98472E4B98475F
S214402E102E4B1B68002B31D01F4B1B68DB6A9D4234
S214402E202ED94FF080522A4B1A60BFF34F8FBFF314
S214402E306F8F012003B0BDE8F08F3046254B984792
S214402E404FF0FF30F6E73B4604F134020937597835
S214402E5002F8011F13F8011F00293FF470AFBB4270
S214402E60F5D16CE7194B1B68002BBBD10A4B1B688E
S214402E70DB6A9D42B6D3084B1C60B3E70120D9E716
S214402E800120D7E7712340001D4A4000C92040007A
S214402E901521400094C6402024C6402030C640201D
S214402EA0C91F4000C0C64020DCC6402008C740209E
S214402EB0F4C6402028C640202CC64020A0C640204D
S214402EC0A8C64020E51F400061214000F0C64020D3
S214402ED004ED00E0E1234000DF1F4000ACC6402088
S214402EE010B584B00023039302930193009382228B
S214402EF016491748174CA04701280BD020BB4FF067
S214402F00800372B683F31188BFF36F8FBFF34F8F82
S214402F1062B6FEE7104B98470128EFD14FF080038A
S214402F2072B683F31188BFF36F8FBFF34F8F62B6CD
S214402F304FF0FF32094B1A600122094B1A600022FB
S214402F40084B1A60084B984704B010BDF872400012
S214402F5085324000AD2C4000C5384000D4C64020E5
S214402F60F0C640201CC7402049224000024A136851
S214402F7001331360704700BF9CC64020014B186861
S214402F80704700BF1CC740202DE9F047424B1B68E6
S214402F90002B78D1414B1A6801321A601E68D6B9A8
S214402FA03F4B1B681B6853B14FF0800372B683F3E8
S214402FB01188BFF36F8FBFF34F8F62B6FEE7384A74
S214402FC01168384B186810601960374A1368013327
S214402FD01360364B9847364B1B689E4218D20024E7
S214402FE0344B1B68DB6A03EB8303334A52F82330C7
S214402FF0022B28BF0124314B1B680BB9304B984736
S214403000304B1B68002B0CBF20460120BDE8F087E4
S2144030100024DFF88C90DFF8B8802B4F1FE04FF08D
S214403020FF32234B1A60DBE7214A1360D8E705F1ED
S2144030301800C047E86A3A680123834013433B6060
S21440304000EB800051461C4B03EB80001F4B98471B
S214403050184B1B68EA6ADB6A9A4228BF0124D9F8F3
S21440306000301B68002BDAD0D9F80030DB68DD680A
S2144030706B689E42D8D305F1040A5046C047AB6AF7
S214403080002BD4D1D6E70D4A1368013313600C4B9E
S21440309098470024B4E700BF9CC640201CC7402089
S2144030A028C640202CC64020D8C64020292C4000A8
S2144030B0D4C6402024C6402030C6402098C6402073
S2144030C0593E400020C74020A8C64020E51F40008B
S2144030D0312040002DE9F843384B1B6853B94FF078
S2144030E0800372B683F31188BFF36F8FBFF34F8FA1
S2144030F062B6FEE7324B9847304B1A68013A1A6080
S2144031001B68002B55D12F4B1B68002B32D1002457
S2144031102D4B98472046BDE8F883FB68DC6804F1F1
S2144031201800B04704F104084046B047E06A2A68F1
S2144031300123834013432B6000EB8000414609EB9C
S2144031408000224B9847224B1B68E26ADB6A9A4211
S2144031500CD23B68002BE0D11E4B1B68DBB11D4BED
S2144031601B68C3B11C4E1D4D1A4C0EE001221B4B72
S2144031701A60EEE71A4F1B4E1B4DDFF87490E8E7D7
S2144031802368013B236023682BB1B0470028F7D063
S21440319001232B60F4E7114B1B68012B0BD14FF03A
S2144031A08052124B1A60BFF34F8FBFF36F8F0124CC
S2144031B0AEE70024ACE70024AAE700BF9CC6402048
S2144031C01521400094C6402061214000E51F400084
S2144031D024C6402098C64020892F400020C7402063
S2144031E0DCC6402031204000A8C6402004ED00E068
S2144031F030C6402010B5002829D00446184B1B681E
S21440320053B14FF0800372B683F31188BFF36F8FCC
S214403210BFF34F8F62B6FEE7124B9847124B1B68C0
S2144032201C44124B18680430114B984748B90F4B52
S2144032301A6810490B68D06A0122824023EA0203CA
S2144032400B6020460C4B98470C4B984738B94FF0CC
S21440325080520B4B1A60BFF34F8FBFF36F8F10BD7A
S2144032609CC640206D2F40001CC7402024C64020EE
S21440327031204000A8C64020552C4000D5304000A4
S21440328004ED00E080B5DFF88880194EDFF88490C2
S2144032902AE0184B1B68012B1ED82B68002BF8D051
S2144032A0C0473468B847002CF7D0134B9847F368AC
S2144032B0DC68201D114B9847114A1368013B136088
S2144032C02B68013B2B600F4B9847206BDFF848A0DC
S2144032D0D0472046D047E0E74FF08053C9F800304B
S2144032E0BFF34F8FBFF36F8F074D084FD5E700BF33
S2144032F008C7402030C640201521400031204000FD
S21440330094C6402061214000A4C64020D5304000ED
S2144033106D2F400004ED00E0E12340002D4B1B687C
S214403320002B2CD110B500222B4B1A602B4B1B6860
S2144033301B6B1A68B2F1A53F03D15A68B2F1A53F9C
S21440334021D0264B186819683431254B9847254BB1
S2144033501B68B3FA83F3DBB2C3F11F0303EB8301AD
S214403360214A52F82120BAB94FF0800372B683F34F
S2144033701188BFF36F8FBFF34F8F62B6FEE701220F
S214403380154B1A6070479A68B2F1A53FD9D1DB68F1
S214403390B3F1A53FD5D1DAE7134A9900C81802EB36
S2144033A08000446864684460194402460832944287
S2144033B009D003EB83030C4A02EB83035B68DA68AD
S2144033C0064B1A6010BD6068074A02EB81025060E7
S2144033D0EFE700BF9CC6402020C7402024C64020C0
S2144033E0413E4000A8C6402030C6402038B5E0B137
S2144033F00C46174D29681831164B984728680430F4
S214403400154B984740B92A6814490B68D06A012280
S214403410824023EA02030B60B4F1FF3F10D0104B0A
S214403420186820440F4B984738BD4FF0800372B65B
S21440343083F31188BFF36F8FBFF34F8F62B6FEE7FB
S214403440034B196804310848084B984738BD00BFFD
S21440345024C64020FD1F400031204000A8C6402022
S2144034601CC74020552C4000F4C64020E51F4000B5
S214403470E8B170B515460C46164E31681831164BF5
S214403480984730680430154B984740B9326814491D
S2144034900B68D06A0122824023EA02030B60012DAA
S2144034A010D0104B186820440F4B984770BD4FF013
S2144034B0800372B683F31188BFF36F8FBFF34F8FCD
S2144034C062B6FEE7034B196804310848024B98473A
S2144034D070BD00BF24C64020E51F4000312040009C
S2144034E0A8C640201CC74020552C4000F4C64020AB
S2144034F038B5C368DC6824B304F1180528461A4B6F
S21440350098471A4B1B683BBB251D2846164B9847C9
S214403510E06A174A1168012383400B43136000EBAF
S21440352080002946134B03EB8000134B9847134B00
S2144035301B68E26ADB6A9A4213D90120104B186076
S21440354038BD4FF0800372B683F31188BFF36F8F98
S214403550BFF34F8F62B6FEE729460A48064B9847A8
S214403560E5E7002038BD00BF312040009CC6402023
S214403570A8C6402030C64020E51F400024C6402054
S21440358020C74020DCC6402030B1094A126802609D
S214403590084A1268426070474FF0800372B683F361
S2144035A01188BFF36F8FBFF34F8F62B6FEE700BF41
S2144035B0D8C640201CC7402038B5C0B1044609B321
S2144035C00D461D4B98471D4B1A682B68B3F1FF3FBD
S2144035D02ED01B4909682068884202D061688A421A
S2144035E028D26168501A834217D801241CE04FF055
S2144035F0800372B683F31188BFF36F8FBFF34F8F8C
S21440360062B6FEE74FF0800372B683F31188BFF3CD
S2144036106F8FBFF34F8F62B6FEE79B1A0B442B604B
S2144036202046084B98470024074B9847204638BD0D
S2144036300024F9E70124F7E7152140001CC7402085
S214403640D8C6402089354000612140000122014B08
S2144036501A60704720C74020054B1B6833B1054BA6
S2144036601B68002B0CBF02200020704701207047CB
S214403670F0C640209CC64020002844D038B50446BA
S214403680C26A21490968C96A8A4214D281690029F6
S21440369005DB1D490968C96AC1F10501816102EB74
S2144036A082021A4901EB82026169914204D0164AAD
S2144036B01268D26AE26238BD251D2846144B9847E8
S2144036C070B9E36A03EB8301104A52F821203AB9F5
S2144036D010480268012101FA03F322EA030303605B
S2144036E0094B1B68D86AE0620A4A11680123834086
S2144036F00B43136000EB80002946044B03EB80002D
S214403700054B984738BD704724C6402030C64020F9
S21440371031204000A8C64020E51F400000284DD07C
S21440372038B50446274A126890420AD04FF08003C4
S21440373072B683F31188BFF36F8FBFF34F8F62B6B5
S214403740FEE7C26C52B94FF0800372B683F311881D
S214403750BFF36F8FBFF34F8F62B6FEE7013AC26486
S214403760C06AA16C88422BD052BB251D2846164BFA
S214403770984768B9E16A01EB8102144B53F822304E
S21440378033B91348036801228A4023EA02030360E0
S214403790A06CE062C0F10503A3610D4A11680124E4
S2144037A004FA00F30B43136000EB80002946074BF6
S2144037B003EB8000074B9847204638BD00207047F3
S2144037C0002038BD24C640203120400030C640206E
S2144037D0A8C64020E51F4000054B1B6823B1044B9C
S2144037E01A68D36C0133D364014B1868704700BF26
S2144037F024C6402008B54160006191420CD8D21AD8
S21440380083699A4201D3012008BD011D094B1868FF
S214403810094B9847002008BD9A4203D2994201D3EB
S214403820012008BD011D054B1868034B9847002032
S21440383008BD00BF28C74020FD1F400024C74020C9
S21440384070B5154B9847154B1B6813B1144B9847EA
S21440385070BD144D2846144EB047144C2046B04711
S214403860134B1D60134B1C60002210210520124B89
S21440387098470A4B186018B11049114B9847E5E72E
S2144038804FF0800372B683F31188BFF36F8FBFF398
S2144038904F8F62B6FEE700BF1521400058C7402054
S2144038A0612140002CC74020C91F400040C740202F
S2144038B024C7402028C740206D26400000734000A3
S2144038C09D2B400010B584B00F4B98470F4B1B689C
S2144038D073B10023039302930193042200924FF4A2
S2144038E082720B490B480C4CA04708B104B010BD7F
S2144038F04FF0800372B683F31188BFF36F8FBFF328
S2144039004F8F62B6FEE700BF4138400058C74020A0
S21440391008734000453A4000AD2C4000D8B130B561
S21440392085B015460446154A106820B31A460091DD
S21440393001950294052919DC114B984702284FF04F
S21440394000030CBF089A1A4669460C4800680D4C9E
S214403950A04705B030BD4FF0800372B683F31188A0
S214403960BFF36F8FBFF34F8F62B6FEE70023694603
S214403970054CA047EDE70020EBE700BF58C74020C6
S21440398059364000E9264000CD2840002DE9F04752
S21440399082B08046244B98470746244B1B68984283
S2144039A01BD30023C8F80030204B1F60384602B0B7
S2144039B0BDE8F087002100910B46524620461C4C3D
S2144039C0A04760B94FF0800372B683F31188BFF307
S2144039D06F8FBFF34F8F62B6FEE7164D164E2B68BD
S2144039E01A68C2B1DB68D3F800A0DC6804F10409A9
S2144039F04846B047636A20469847E369012BEED1B4
S214403A00A36953449A45D5D26360246149462868E1
S214403A100A4B9847E3E70A4A10680649086013606D
S214403A200123C8F80030BFE77D2F400054C7402030
S214403A301D39400024C7402031204000FD1F400073
S214403A4028C740202DE9F04788B0754E754FDFF8FF
S214403A50FC91DFF8FC8133681A68002A00F0CE80BB
S214403A60DB681C68B84704A86F4B98470546049B1C
S214403A70002B44D1A04212D20022611B6B4B186827
S214403A806B4B98476B4B984700283AD14FF0805382
S214403A90C9F80030BFF34F8FBFF36F8F31E0654BEF
S214403AA098473368DB68D3F80CA00AF10400C04797
S214403AB0DAF81C30012B04D0DAF824305046984708
S214403AC01FE0DAF8181023462A46214450465A4D3D
S214403AD0A8470128F0D1002100910B4622465046C7
S214403AE0564CA0470028E7D14FF0800372B683F3C8
S214403AF01188BFF36F8FBFF34F8F62B6FEE74D4B13
S214403B0098474A4D4E4C06E007990698059B9847BD
S214403B10049B002B09DA00231A4604A92868A0470C
S214403B20002898D0049B002BEEDBDDF818A0DAF8CE
S214403B30143013B10AF10400C04703A83A4B984723
S214403B40049B092BE7D801A252F823F0753B4000AE
S214403B50753B4000753B4000173B4000C93B40006A
S214403B60F53B4000753B4000753B4000173B40002E
S214403B70C93B4000059CDAF818102346024621440B
S214403B8050462D4CA0470128BCD1DAF82430504688
S214403B909847DAF81C30012BB4D1DAF81820002107
S214403BA000910B46059802445046244CA0470028F6
S214403BB0A8D14FF0800372B683F31188BFF36F8F9E
S214403BC0BFF34F8F62B6FEE70599CAF8181031B1B9
S214403BD00346024601445046174CA04792E74FF032
S214403BE0800372B683F31188BFF36F8FBFF34F8F96
S214403BF062B6FEE75046134B984783E7B84704A89B
S214403C00094B98470546049B002B7FF478AF0E4B34
S214403C101B681A68B2FA82F2520900242DE700BFE8
S214403C2024C740206D2F40008D39400058C74020A3
S214403C30D12B4000D5304000F53740001D394000BC
S214403C40CD294000E123400028C7402004ED00E095
S214403C503120400008B50248024B984708BD00BFD7
S214403C60707340005143400008B50248024B9847E5
S214403C7008BD00BF787340005143400008B5024875
S214403C80024B984708BD00BF807340005143400038
S214403C90F0B583B005460C46002301932A4B984264
S214403CA013D02A4B984218D0294B98421DD0294B06
S214403CB09D4222D0284B9D4227D0284B9D422ED055
S214403CC0274B9D4235D003B0F0BD1F46254E2146BA
S214403CD03846B0470028FAD1E9E71F46214E21462C
S214403CE03846B0470028FAD1E4E71F461D4E214625
S214403CF03846B0470028FAD1DFE71F46194E21461E
S214403D003846B0470028FAD1DAE71E46164D01A9D4
S214403D103046A8470028FAD1019B2370D3E71E46B9
S214403D20114D01A93046A8470028FAD1019B2370BF
S214403D30C9E71E460C4D01A93046A8470028FAD1CF
S214403D40019B2370BFE700BF00080E40000A0E40EC
S214403D50001A0E40001C0E40004002400080024008
S214403D6000C00240F31B4000FF1C400070B50C46EC
S214403D702A4B984213D02A4B984219D0294B984246
S214403D801FD0294B984225D0284B98422BD0284B01
S214403D90984231D0274B984237D0002070BD1E46FF
S214403DA0254D21463046A8470028FAD1012070BD4F
S214403DB01E46214D21463046A8470028FAD101200C
S214403DC070BD1E461C4D21463046A8470028FAD1F5
S214403DD0012070BD1E46184D21463046A847002893
S214403DE0FAD1012070BD1E46144D21463046A847E4
S214403DF00028FAD1012070BD1E46104D214630469F
S214403E00A8470028FAD1012070BD1E460B4D21461A
S214403E103046A8470028FAD1012070BD00080E4061
S214403E20000A0E40001A0E40001C0E4000400240A1
S214403E300080024000C00240E11B4000E91C4000F8
S214403E4008B50A4601460248024B9847FEE700BFBF
S214403E50486C44005143400070474FF0800372B6B0
S214403E6083F31188BFF36F8FBFF34F8F62B6FEE7C1
S214403E7010B50648064B984740F2DF1340F23F1213
S214403E8000210846034CA04710BD00BFFCFCFC00C8
S214403E90C90F4000191240002DE9F04782B01F4676
S214403EA0DDF828800B780BB30546164618460C46B8
S214403EB0DFF8409003E014F8013F1846B3B16A7A41
S214403EC09A42F8D32B7AC01A6B6803EBC00ADAF82A
S214403ED004108B684A680968009139463046C847DE
S214403EE0DAF804305B6843441E44E4E702B0BDE8B9
S214403EF0F08700BFD51240002DE9F04784B0054654
S214403F00894690464FF0000A5446154F154E08E035
S214403F100134E4B24FF0010A2846B047092C1BD8BA
S214403F20D0B101A92846B8470028F5D1BAF1000F0C
S214403F30EED1BDF8083003EB8303C3F39313C3F508
S214403F40A073C9F80030BDF80630C3EB0313C3F3C3
S214403F50D313C8F80030DBE704B0BDE8F08700BFF5
S214403F60E90740007907400080B58AB002A8134BA5
S214403F709847134D134EDFF85880134C0CE0002240
S214403F80114602A8B0473220A04702A8A8470028FA
S214403F90F5D14FF49670A04702A8A8470028F8D05D
S214403FA001AA694602A8B04700231A466946D8F8CF
S214403FB00000064FB847C820A047E6E78502400005
S214403FC079074000F93E4000F5314000E9264000C0
S214403FD06CC8402084B0F8B506AC84E80F000446B0
S214403FE0079D0A9E0B9F9DF8303083B9099B094870
S214403FF01840094B984760086908CB198219791A06
S214404000301A064CA047BDE8F84004B07047089BFD
S214404010EDE700BFFCFCFC00C90F40001912400051
S2144040202DE9F04383B002AC04E90600009EDDF8BB
S214404030049013B398460446002503E00135203427
S214404040454514D0E3699847236922685208991A6F
S2144040508E42F3D31A449642F0D8626963685B088E
S214404060D11A4945EAD813444B45E7D301E04FF00F
S214404070FF35284603B0BDE8F0834FF0FF35F8E73C
S214404080F0B5B7B0002208210A204B4B98474B4B5F
S21440409018604B484FF4A07303604FF4F0734360CE
S2144040A0484B8360C360484B9847484B984701232A
S2144040B0009300231A4646494648474CA047474C7B
S2144040C02EAD26460FCE0FC596E80F0085E80F00AA
S2144040D026AD04F120060FCE0FC596E80F0085E802
S2144040E00F001EAD40340FCC0FC594E80F0085E896
S2144040F00F0006AC2EAD0FCD0FC495E80F0084E838
S2144041000F000EAC26AD0FCD0FC495E80F0084E827
S2144041100F0016AC1EAD0FCD0FC495E80F0084E817
S2144041200F0036AB13E90F008DE80F002EAB0FCB18
S2144041302B4CA0472AAB0FCB8DE80F0026AB0FCBFE
S214404140A04722AB0FCB8DE80F001EAB0FCBA0478E
S21440415004AC1A4E234F03E0059A04992248B84708
S214404160224D00234FF4FA7221463068A8470028B3
S214404170F7D0032394E8060006A81D4DA847054639
S21440418001461C48B847002DE6DB36AB03EB451529
S21440419015F8A83CB3FA83F35B0905F8A83CA5F1EB
S2144041A0C00EB03D95E80F008DE80F009EE80F006A
S2144041B00B4DA847D0E700BF6D2640006CC8402096
S2144041C05CC84020FCFCFC0055104000713E40009E
S2144041D0286C440088734000993E400010734000AD
S2144041E0D53F4000514340003C6C4400CD29400040
S2144041F021404000346C440000B58BB0294B9847B2
S214404200294B9847294D2A4B1D602A4A2A4B1A604B
S2144042102A4A2B4B1A604FF4E1330493C02305938C
S2144042204FF4006306930024079408940E20254B11
S2144042309847254A04A92846244B98472846244BA5
S21440424098472846234B9847234E3368214698681C
S214404250224DA847336821465868A84703940294DD
S2144042600194009423464FF400721D491D481E4C8D
S214404270A047012802D01D481D4B984700230393B2
S2144042800293019300934FF480621A491A48164CE1
S214404290A047012802D01548154B9847174B98471A
S2144042A0FEE700BF59084000E90A4000008002408F
S2144042B018C840206D3D400014C84020913C400046
S2144042C010C840201518400080D1F008891C4000D6
S2144042D0DD1C4000E31C400014004020F54A40002E
S2144042E0FC6B4400693F4000AD2C4000006C44002D
S2144042F051434000246C440081404000E12E400081
S21440430070B50F4E0F4D761BB61018BF002405D063
S214404310013455F8043B9847A642F9D10A4E0B4D56
S214404320761B42F051FDB61018BF002406D001346B
S21440433055F8043B9847A642F9D170BD70BD00BF02
S214404340D46D4400D46D4400DC6D4400D46D44000C
S2144043500FB400B5074983B004AB086853F8042B84
S2144043608168019300F05AFD03B05DF804EB04B099
S214404370704700BF14004020024B0146186800F00A
S21440438003B800BF140040202DE9F04F01F10B06A2
S214404390162E83B0054640F29E8036F0070600F1A2
S2144043A0BD80B14200F2BA8000F086FBB6F5FC7FD5
S2144043B0C0F09382730A00F0B880042B00F2798133
S2144043C0B30903F1390003F1380EC300BF4F3B4435
S2144043D0A3F108015C68A14206D10CE0002A80F2F5
S2144043E0AA80E468A14206D0636823F003039A1BC0
S2144043F00F2AF3DD70463C69DFF8E4E2744500F0CE
S214404400AB81636823F003039A1B0F2A00F3908165
S214404410002AC7F814E0C7F810E080F29D80B3F594
S214404420007F80F06181DB0803F1010C99107A6807
S21440443057F83C80C4F8088001238B4007EBCC013A
S21440444013430839E1607B6047F83C40C8F80C40AD
S2144044508210012494409C4200F28B801C4206D17C
S21440446020F0030064001C4200F10400FAD007EB81
S214404470C009CC468046DCF80C309C4507D16DE13F
S214404480002A80F27B81DB689C4500F06781596892
S21440449021F003018A1B0F2AF2DDD3F80CC0D3F8B3
S2144044A0088000939C19284646F0010642F0010514
S2144044B05E60C8F80CC0CCF808807C613C61C4F8EB
S2144044C00CE0C4F808E065605A5000F0FBFA009B28
S2144044D003F108041EE0102920D800F0EDFA10265B
S2144044E018230220794F3B44A3F108025C689442AB
S2144044F000F03D816368E168A66823F00303234427
S21440450028465A68F16042F001028E605A6000F018
S214404510D9FA0834204603B0BDE8F08F00240C23B7
S21440452020462B6003B0BDE8F08F40204FF4007368
S2144045304FF03F0E4AE72344E1685A68A66842F0C7
S2144045400102F16028468E605A6000F0BBFA0834DB
S214404550204603B0BDE8F08F234428465A6842F010
S21440456001025A6000F0AEFA0834204603B0BDE8B7
S214404570F08FBC68636823F00308B04504D3A8EB0B
S21440458006030F2B00F38580DFF85891504BD9F87F
S21440459000201B680132334404EB080A00F05581C2
S2144045A003F580530F3323F47F6B2BF00F0B5946E4
S2144045B0284600F08DFA411C024600F0FC808245F9
S2144045C000F2F780434B19685944196000F04D815A
S2144045D0D9F8000001301BBFA2EB0A0A5144C9F8C3
S2144045E00020196012F0070100F01581C1F10800A3
S2144045F0C1F580510244083102EB0B09C9F30B099F
S214404600A1EB0909494628460193009200F060FA5A
S214404610431C9DE80C0000F04381801A484440F05B
S21440462001001968BA604944BC425060196017D00E
S214404630B8F10F0F40F2FB806068A8F10C0222F040
S214404640070204EB020E00F001004FF0050C104389
S2144046500F2A6060CEF804C0CEF808C000F217817A
S2144046601D4BBC681A68914288BF19601B4B1A687C
S2144046709142626888BF196022F003029642A2EB1C
S214404680060301D80F2B04DC284600F01BFA002452
S21440469040E7A21943F0010346F00106666028464B
S2144046A0BA60536000F00EFA0834204603B0BDE806
S2144046B0F08F142B71D9542B00F2A380330B03F1E7
S2144046C06F0003F16E0EC30080E600BF400440203A
S2144046D08CC740205CC7402084C7402088C7402005
S2144046E048044020480840205A0A042A5BD9142A25
S2144046F000F2AE8002F15C01C9005B3207EB010CB0
S2144047007958ACF1080C8C4500F088804A6822F055
S2144047100302934273D289688C45F7D1DCF80C20AB
S2144047207B68E260C4F808C09460CCF80C408FE622
S214404730A11946F0010C42F00106C4F804C0284610
S21440474079613961C1F80CE0C1F808E04E60E2508A
S21440475000F0B8F90834DDE67B6879E608F1010830
S21440476018F0030F0CF1080C7FF485AE2DE0DC68E2
S214404770A34208BF02303FF43EAEBBE619441C4697
S2144047804A68DB6854F8086F42F001024A602846DF
S214404790F3609E6000F096F9BCE603F15C0003F11E
S2144047A05B0EC30012E69A0902F13901C90038329D
S2144047B0A4E7BC4254D0BC68626822F003025DE7BE
S2144047C059F80839994540F0868010F0030F00F1FB
S2144047D0FF30F5D17B6823EA04037B6064009C428B
S2144047E03FF6C7AE002C3FF4C4AE1C4240467FF4B2
S2144047F03EAE64001C4200F10400FAD037E68C4618
S2144048008CE7B3F5AA7F15D8F30B03F1780003F1D4
S214404810770EC300DAE54FF48051EDE67B689210E0
S214404820012101FA02F213437B60624679E70123D5
S214404830536029E740F25452934222D8B30C03F116
S2144048407D0003F17C0EC300C0E503F1100BAEE61D
S214404850542A29D81A0B02F16F01C9006E324DE76F
S214404860204B196859441960B2E6CAF30B00002879
S2144048707FF4AEAE08EB0B03BA6843F00103536017
S214404880EEE67F204FF47E734FF07E0E9EE504F1F9
S21440489008012846009301F0DDFB009B1968DFE61F
S2144048A001204FF00009BCE6B2F5AA7F05D8DA0B26
S2144048B002F17801C900773220E740F254518A422B
S2144048C005D89A0C02F17D01C9007C3216E74FF4F8
S2144048D07E717E2212E77B6880E7F00806F10803C7
S2144048E000E600BF5CC74020844641EA000313F060
S2144048F003036DD1403A41D351F8043B40F8043BA2
S21440490051F8043B40F8043B51F8043B40F8043B64
S21440491051F8043B40F8043B51F8043B40F8043B54
S21440492051F8043B40F8043B51F8043B40F8043B44
S21440493051F8043B40F8043B51F8043B40F8043B34
S21440494051F8043B40F8043B51F8043B40F8043B24
S21440495051F8043B40F8043B51F8043B40F8043B14
S21440496051F8043B40F8043B51F8043B40F8043B04
S21440497051F8043B40F8043B403ABDD2303211D3A4
S21440498051F8043B40F8043B51F8043B40F8043BE4
S21440499051F8043B40F8043B51F8043B40F8043BD4
S2144049A0103AEDD20C3205D351F8043B40F8043BA4
S2144049B0043AF9D2043208D0D2071CBF11F8013BA2
S2144049C000F8013B01D30B8803806046704700BF68
S2144049D0082A13D38B078DD010F003038AD0C3F177
S2144049E00403D21ADB071CBF11F8013B00F8013B59
S2144049F080D331F8023B20F8023B7BE7043AD9D318
S214404A00013A11F8013B00F8013BF9D20B780370EC
S214404A104B7843708B7883706046704770B48607D7
S214404A2046D0541E002A41D0CAB2034602E014F1D2
S214404A30FF343BD303F8012B9D07F8D1032C2ED926
S214404A40CDB245EA05250F2C45EA054519D903F1AF
S214404A5010022646103E0F2E42F8105C42F80C5CC0
S214404A6042F8085C42F8045C02F11002F2D8A4F165
S214404A70100222F00F0204F00F041032032C1344ED
S214404A800DD91E462246043A032A46F8045BFAD855
S214404A90221F22F003020432134404F003042CB114
S214404AA0C9B21C4403F8011B9C42FBD170BC704742
S214404AB014460346C2E700BF014801F065BD00BF8B
S214404AC080C84020014801F061BD00BF80C840203A
S214404AD038B5074C0023054608462360FDF74CFAD8
S214404AE0431C00D038BD2368002BFBD02B6038BD5C
S214404AF094C8402000290CBF022200224FF4806355
S214404B0000F000B82DE9F043614C256883B00446B8
S214404B100F4690461E4615B1AB6B002B64D0B8F1DD
S214404B20020F06D0B8F1010F00F29F80002EC0F2AF
S214404B309C80636ED80734D52146284601F00CF990
S214404B40216B41B104F14003994202D0284601F05E
S214404B5081FA00232363B4F90C300022A26162601C
S214404B601A063AD423F44A6323F00303B8F1020F3B
S214404B70A3811DD001AB6A462146284601F008FDB8
S214404B80A3891843A081002E32D1009E3046FFF7FD
S214404B90F3FB074600286BD0A38943F08003A3812C
S214404BA028E0A3899905C7D4A06D01F0EDFCC3E7C2
S214404BB00025616E002604F1430243F00203012003
S214404BC0A660CE07A38122602261606101D4980569
S214404BD03ED5284603B0BDE8F0832169284601F05B
S214404BE039FAB4F90C30BDE7284601F00DF996E7DE
S214404BF0002FCBD0AB6B002B33D0009BB4F90C20EE
S214404C0027609E421CBF42F40062A281B8F1010FA9
S214404C1004BF42F00102A28192B212F0080327615B
S214404C2066610ED0D1071AD5656E7642002315F020
S214404C300105A661A36009D00025284603B0BDE85B
S214404C40F083A360656E15F00105F5D19305C0D4D9
S214404C50A06D01F09BFC284603B0BDE8F083A6603B
S214404C60F0E7284601F0D0F8C7E74FF0FF35B0E749
S214404C70DDF80090B14504D04846FFF77DFB074677
S214404C8020B9B4F90C304FF0FF3592E74E4683E733
S214404C90140040200000000000000000000000005B
S214404CA000000000000000000000000000000000BF
S214404CB000000000000000000000000000000000AF
S214404CC090F800F06DE9024520F007016FF0000C07
S214404CD010F0070491F820F040F049804FF00004AF
S214404CE06FF00700D1E9002391F840F000F108008A
S214404CF082FA4CF2A4FA8CF283FA4CF3A2FA8CF3C2
S214404D004BBBD1E9022382FA4CF200F10800A4FA28
S214404D108CF283FA4CF3A2FA8CF3E3B9D1E904237C
S214404D2082FA4CF200F10800A4FA8CF283FA4CF3B3
S214404D30A2FA8CF37BB9D1E9062301F1200182FA6D
S214404D404CF200F10800A4FA8CF283FA4CF3A2FA73
S214404D508CF3002BC6D0002A04BF04301A4612BA81
S214404D60B2FA82F2FDE8024500EBD2007047D1E984
S214404D70002304F00305C4F100004FEAC50514F013
S214404D80040F91F840F00CFA05F562EA05021CBFE4
S214404D9063EA050362464FF00004A9E72DE9F84FA1
S214404DA04B6E9C0493462FD59368126853B30E46B9
S214404DB0074602F1080919E920045FEA9A0817D065
S214404DC0043D002401E0A04510D0324655F8041FAB
S214404DD0384601F0BBF8431C04F10104F3D100232C
S214404DE0CBF80830CBF80430BDE8F88FDBF8083055
S214404DF02AF0030AA3EB0A03CBF8083009F10809A6
S214404E00002BD8D10020EAE701F00AFA0023CBF8BD
S214404E100830CBF80430BDE8F88F00BF2DE9F04FDE
S214404E20ADB01D468B4690460793069018B1836BEF
S214404E30002B00F0F380DBF86430BBF90C00DF0792
S214404E4081B202D48E0540F1FC808C040AD4DBF893
S214404E50643040F4005123F40053ABF80C10CBF808
S214404E60643089B2080740F1B380DBF81030002B7D
S214404E7000F0AE8001F01A030A2B00F0B580002344
S214404E800DF170090B93119310930393CDF83C905A
S214404E90CA46CDF810B098F800304446FBB1252BF2
S214404EA002D11CE0252B03D014F8013F002BF9D18A
S214404EB0A4EB08059DB1109B119ACAF800800133F7
S214404EC02A44072BCAF80450119210937ADD002A20
S214404ED040F0B084039B10922B44CA460393237839
S214404EE0002B00F0E08300204FF000038DF83730B1
S214404EF004F1010862780546064603464FF0FF3443
S214404F0008F10108A2F12001582900F2DE82DFE80C
S214404F1011F02102DC02DC022902DC02DC02DC02A7
S214404F20DC02DC02DC0289029502DC02A200BD0241
S214404F30DC029F01A401A401A401A401A401A401D0
S214404F40A401A401A401DC02DC02DC02DC02DC02D7
S214404F50DC02DC02DC02DC02DC02B201DC02DC0247
S214404F60DC02DC02DC02DC02DC02DC02DC02DC020C
S214404F709701DC02DC02DC02DC02DC029B01DC0284
S214404F80DC025302DC02DC02DC02DC02DC02DC0275
S214404F90DC02DC02DC02DC025A021B02DC02DC021F
S214404FA0DC026E021B02DC02DC027302DC02F5014C
S214404FB082010902D702DC029A02DC02A700DC0268
S214404FC0DC022E020AF1080A039B2B44039386E771
S214404FD05946069800F0ACFD18BBBBF80C1001F023
S214404FE01A030A2B7FF44BAFBBF90E30002BFFF6AB
S214404FF046AFDBF86430DB0705D48F0503D4DBF817
S214405000580001F0C3FA2B4642465946069800F02F
S2144050104DFD039003982DB0BDE8F08F00F0F4FEF0
S21440502009E7DBF86430D90704D4BBF80C309A059E
S21440503040F1AA844FF0FF33039303982DB0BDE8A8
S214405040F08FDBF8580001F09FFABBF90C0081B2F4
S214405050FBE67642079243F0040398F800204FE7B9
S21440506008969E0600F150840799DD060A4600F130
S214405070EF83580640F1EC830E8804310027012266
S21440508007914FF000018DF837100025611C00F0A5
S214405090168123F08001029156EA070140F0148100
S2144050A0002C40F05C83002A40F0B78313F00103E5
S2144050B0059300F057840DF1B00B30230BF8413DBB
S2144050C0059BA342B8BF234601930DB1013301931C
S2144050D0029B13F00203099302D0019B0233019313
S2144050E0029B13F084030A9340F01782089B019AB0
S2144050F09D1A002D40F31182102D40F39084109B92
S214405100119AC44ED6461027A2461946069C07E07A
S21440511001F1020C0EF1080E0146103D102D11DD76
S214405120481C1032072811928EE8C0001090EFDD20
S214405130002A40F0E481103D102D11464FF0010C3E
S214405140CE46EDDC54466146F2462A440729119283
S214405150CAF80060CAF80450109100F3EC829DF83B
S21440516037500AF1080A481C002D40F0DE81099BA2
S214405170002B00F0F88102320EA902230728119274
S21440518010908AE80A0040F3EA81002A40F08C83B7
S2144051900A9B802B4FF001001146CA4640F0E7813B
S2144051A0089B019D5E1B002E40F3E181102E9A4D18
S2144051B040F35084D4461027A246069C07E001F1EF
S2144051C0020E0CF1080C0146103E102E11DD481C54
S2144051D01032072811928CE8A0001090EFDD002ACC
S2144051E040F09D82103E102E4FF0010E1146CC46E8
S2144051F0EDDC5446E2463244BEF1070F11928AE88F
S2144052006000CDF840E000F369830AF1080A0EF129
S21440521001007146ABE1089613F0200240F08C8303
S21440522013F0100140F01A8313F0400200F016838A
S21440523007980A460146043106880791002720E76A
S214405240089643F01003E7E7089643F0100308E794
S21440525043F0800398F8002052E6A2F13001002681
S21440526018F8012B06EB860601EB4606A2F1300144
S2144052700929F5D946E60896002840F0088443F008
S21440528010039E0600F14C83DD0600F1F3825806BB
S21440529040F1F082079DB5F900602A46F7170432C0
S2144052A0304639460792002871F10002C0F25D830D
S2144052B0611C9DF837504FF001027FF4EAAE56EA83
S2144052C0070100F04D820293012A00F08C82022AE8
S2144052D040F05C820B98CB46330906F00F0143EA58
S2144052E007733A091E461746435C0BF8013D56EADB
S2144052F00703F1D1A9EB0B030593E1E6002840F044
S214405300C083990600F16783DA0600F1F1805B06F8
S21440531040F1EE80079A136804320792BDF80C20DD
S2144053201A80B8E507983D4A08960B920668782298
S214405330302104308DF8392043F0020307900027CF
S2144053408DF8381002229CE60896002899D08DF8F1
S214405350375096E798F80020002D7FF4D1AD012015
S2144053602025CDE543F0010398F80020C8E50896CF
S214405370002840F0938329490B919F0600F1E8826C
S2144053800798DE06014600F170825D0640F16D82A8
S2144053900431068807910027D80740F1228256EA52
S2144053A0070100F01E8230218DF8392043F00203B9
S2144053B08DF83810022264E60896002840F06B8389
S2144053C017490B91D9E7079908960A688DF848203F
S2144053D04FF000000A468DF8370004320120019055
S2144053E0079205900DF1480B0293002470E643F0B7
S2144053F0400398F8002083E598F800206C2A03BF05
S21440540098F8012043F0200308F1010843F0100308
S21440541076E500BF946C4400A46C4400786C44006D
S214405420646C440007990E680A46002E02F1040296
S214405430FFF60FAE079298F8002061E598F8002036
S21440544001202B255CE507990896D1F800B04FF06F
S21440545000028DF837200E1DBBF1000F00F0E582EC
S214405460671C00F0C482224600215846019301F092
S2144054701FF9019B002800F0E582A0EB0B02059285
S214405480079602939DF83750002419E698F80020B6
S2144054902A2A08F1010700F0E982A2F13001092921
S2144054A0B8464FF000043FF62DAD18F8012B04EB3C
S2144054B0840401EB4404A2F130010929F5D921E521
S2144054C043F0200398F800201AE50896002840F09C
S2144054D0DB82002A00F0E78001218DF848204FF05B
S2144054E0000201918DF8372005910DF1480B7BE7BE
S2144054F0079A136804320792039A1A60CBE40FAAFD
S21440550004992046FFF74AFC002840F0398110995C
S214405510119A01F1010CCE46FFE51099119A481CEC
S2144055209DF83750002D3FF422AE01320DF137057D
S2144055300121072811921090CAF80050CAF80410AA
S21440554040F30881002A40F0BC81099B002B3FF4C1
S2144055501FAE0EAB022208461C931D92CA46014659
S2144055600AF1080A01300A9B802B3FF419AE059BCE
S214405570E41A002C2EDD102CB34D1EDDD646102628
S214405580069FDDF810A006E0881C0EF1080E1946AE
S214405590103C102C10DD4B1C1032072B11928EE85D
S2144055A060001093F0DD002A65D1103C102C4FF0BF
S2144055B001001146CE46EEDCF24622440728119200
S2144055C0CAF80050CAF80440109000F385800AF1EB
S2144055D0080A01300599CAF800B00A440728119213
S2144055E0CAF80410109040F38280002A40F01881D8
S2144055F0029B1092580735D5089B01995C1A002CDF
S21440560040F3E780CA46102C40F3188210998F4E1C
S214405610069FDDF810B0102506E0881C0AF1080A3F
S2144056201946103C102C11DD4B1C1032072B1192E2
S214405630CAF80060CAF804501093EEDD42BB103C36
S214405640102C4FF001001146CA46EDDC22440728D4
S2144056501192CAF80060CAF80440109051DD002A42
S21440566040F09B81039B089A01998A42ACBF9B18E5
S2144056705B1803934EE00FAA51463846FFF78EFB61
S214405680002840F03F811099119A481CCE467FE78B
S2144056900FAA59463846FFF781FB60B91099119A10
S2144056A0481CCA46BDE7119BDDF810B0002B40F001
S2144056B0D48100231093DBF8643013F0010FBBF85D
S2144056C00C3002D19A0540F1DE805B063FF5B2AC65
S2144056D003982DB0BDE8F08F002A40F00681059A69
S2144056E01D9201231192CDF870B01093CA460AF16C
S2144056F0080A029B590704D5089B01995C1A002C9E
S21440570081DC039B089901988142ACBF5B181B184B
S214405710039372BB00231093CA46FFF7BCBB0FAA85
S21440572004992046FFF73AFB50BB1099119A01F1B5
S214405730010ECC4648E5002A40F040819DF83710DF
S214405740002900F01B8101220DF1370110461D9201
S2144057501C91CA4601460AF1080A013007E5029B39
S214405760012A00F09880022A0DD1029300260027D5
S214405770B0E50FAA04990698FFF710FB0028C9D099
S214405780DDF810B097E7029300260027494600E070
S2144057905946F20842EA4772F80806F007030746F9
S2144057A01646303356EA070201F8013C01F1FF3B4A
S2144057B0EED1029AD6077FF59DAD302B3FF49AADD9
S2144057C0023930230BF8013CA9EB010305938B46C5
S2144057D076E4039B089A8A42ACBF9B185B180393F7
S2144057E098E702224DE4002F08BF0A2E52D3CB463C
S2144057F0304639460A22002301F0C6FB30320BF809
S214405800012D3046394600230A2201F0BDFB0646EC
S2144058100F4656EA0703EBD16CE50594CB464FE4BA
S2144058200FAA04990698FFF7B9FA0028A8D1119A4A
S214405830CA465EE70FAA04990698FFF7AFFA002813
S2144058409ED1CA46FFF7C0BBA46C4400946C44008B
S2144058500431166807910122002712E40798014692
S21440586004310668079100270BE40E68043107915F
S214405870002791E507990E680A46F7170432079203
S214405880304639460FE5DBF8580000F07FFEBBF89F
S2144058900C301AE7029B02930DF1B00B3036012311
S2144058A00BF8416D05930BE40FAA04990698FFF791
S2144058B075FA00287FF464AF1099119A481CCA46BE
S2144058C051E60FAA04990698FFF768FA00287FF475
