:020000040040BA
:10000000F0244020610F400011104000111040000A
:1000100011104000111040001110400000000000BD
:10002000000000000000000000000000111040006F
:10003000111040000000000011104000111040009D
:100040001110400011104000111040000913400031
:10005000111040001110400011104000111040001C
:100060001110400000000000750940008D0940009B
:10007000A50940001110400011104000111040006F
:10008000BD094000D509400011104000111040008A
:1000900011104000111040001110400011104000DC
:1000A00011104000111040001110400011104000CC
:1000B00011104000111040001110400011104000BC
:1000C00011104000111040001110400011104000AC
:1000D000000000001110400000000000111040005E
:1000E000111040001110400011104000111040008C
:1000F000111040001110400011104000111040007C
:10010000111040001110400011104000111040006B
:10011000111040000000000000000000000000007E
:10012000111040001110400011104000111040004B
:10013000111040000000000011104000111040009C
:1001400010B5054C237833B9044B13B10448AFF311
:1001500000800123237010BD340440200000000003
:10016000401640000C4B43B10C480D4910B5AFF39D
:1001700000800C48036823B910BD0A48036833B9EE
:100180007047094B002BF7D0BDE810401847064BCD
:10019000002BF5D0184700BF0000000040164000BB
:1001A00038044020401640000000000080B582B0B6
:1001B00000AF78607B68072B31D801A252F823F09A
:1001C0001D024000E1014000E9014000F101400052
:1001D000F901400001024000090240001302400002
:1001E0000020114B98471AE001200F4B984716E06A
:1001F00000200E4B984712E010200C4B98470EE061
:1002000020200A4B98470AE03E210020084B9847DF
:1002100005E03E210120064B984700E000BF00BFEB
:100220000837BD4680BD00BFED0A4000590B4000B5
:10023000C90B400080B582B000AF78607B68072BA7
:1002400026D801A252F823F0690240006D02400056
:100250006D0240007F0240007F0240007F024000AC
:100260007F0240007F024000012312E00B4B9847C1
:100270000346002B14BF01230023DBB209E0084B27
:1002800098470346002B14BF01230023DBB200E094
:10029000002318460837BD4680BD00BF250B40002F
:1002A000410C400080B483B000AF78607B68072BBE
:1002B00025D801A252F823F0D9024000DF02400005
:1002C000E5024000EB024000EF024000F302400074
:1002D000F7024000FB0240004FF4FA4310E04FF4F5
:1002E00000430DE04FF400430AE0084B08E0084BE0
:1002F00006E0084B04E0074B02E0064B00E0002359
:1003000018460C37BD465DF8047B704700093D0078
:1003100000127A00001BB70080B582B000AF034620
:10032000FB7100BFFB791846054B9847034683F0E5
:100330000103DBB2002BF5D100BF0837BD4680BDFD
:100340003502400080B586B000AFF8607A603B604F
:100350000B46FB727B68002B07D13B68002B04D156
:10036000FB684FF470021A6019E0FB7A18460E4BD6
:10037000984702467B68B2FBF3F37B617B693A687E
:1003800002FB03F37B613B68013B1A04074B1340FC
:100390007A68D2B2134343F47C52FB681A6000BF00
:1003A0001837BD4680BD00BFA50240000000FF0712
:1003B00080B582B000AF786039603B68002B08D10F
:1003C000094B9847094A7B681B6843F000539362C6
:1003D00005E0064A7B681B6843F48033D36100BFA5
:1003E0000837BD4680BD00BF5D0C400000060E40D2
:1003F00080B582B000AF78607B68002B03D1054BDD
:100400009847034602E0044B9847034618460837CE
:10041000BD4680BD790C4000950C400080B582B08F
:1004200000AF0346FB71FB79033B042B08D8FB7933
:100430001846064B9847FB791846054B984700E04D
:1004400000BF00BF0837BD4680BD00BFAD01400002
:100450001903400080B582B000AF786000BF7868B3
:10046000044B98470346002BF9D000231846083761
:10047000BD4680BDF103400080B500AF0620054BAE
:100480009847024613469B0013449A0013441846AB
:1004900080BD00BFA502400080B500AF024B984769
:1004A0000346184680BD00BF7904400090B583B074
:1004B00000AF1348134B98470620134B9847381D3D
:1004C000192301220621114CA0473B1D002118468B
:1004D0000F4B984700200F4B984702200E4B984730
:1004E00000200E4B98470E4B98470E4B98470346FB
:1004F0001846044B984700BF0C37BD4690BD00BF5F
:1005000000A3E111811140001D044000450340009B
:10051000B103400055044000ED094000690A400065
:10052000191040009904400080B485B000AFF86015
:10053000B9607A607B68002B03D0FB68BA685A66A2
:1005400002E0FB68BA681A6600BF1437BD465DF862
:10055000047B704780B483B000AF786039607B68FB
:100560003A681A6300BF0C37BD465DF8047B7047DC
:1005700080B483B000AF786039607B683A685A63B2
:1005800000BF0C37BD465DF8047B704780B487B070
:1005900000AFF860B9607A60FB687A685A64BB683B
:1005A000B3F1C05F4AD0B3F1C05F08D8B3F1006FB8
:1005B00016D0B3F1805F2CD0002B69D064E0B3F18A
:1005C000205F65D0B3F1205F03D8B3F1005F4AD05C
:1005D0005AE0B3F1405F5BD0B3F1605F58D053E0B5
:1005E000FB681B6F7B61FB681A6F7B68D9437B6973
:1005F0000B401A40FB681A67FB685B6F7B61FB6806
:100600005A6F7B68D9437B690B401A40FB685A6775
:100610003AE0FB681B6F7B617A687B691A43FB6871
:100620001A67FB685B6F7B61FB685A6F7B68D94315
:100630007B690B401A40FB685A6725E0FB681B6F1B
:100640007B61FB681A6F7B68D9437B690B401A405A
:10065000FB681A67FB685B6F7B617A687B691A438A
:10066000FB685A6710E0FB681B6F7B617A687B69E7
:100670001A43FB681A67FB685B6F7B617A687B696A
:100680001A43FB685A6700BFFB687A685A6000E04B
:1006900000BF1C37BD465DF8047B704780B584B051
:1006A00000AFF860B9607A60B968F868194B98478C
:1006B0007B6803F001031A46B968F868164B98473F
:1006C0007B6803F00A03002B03D0FB68BA681A6248
:1006D00002E0FB68BA685A627B6803F00203002BF1
:1006E00004D0FB68BA68C3F8802008E07B6803F098
:1006F0000803002B03D0FB68BA68C3F88420FB68AA
:10070000BA685A61FB68BA681A6000BF1037BD4604
:1007100080BD00BF750840002905400080B584B049
:1007200000AFF860B9607A603B60B968F868124B56
:100730009847BA69B968F868104B98473B68002B2E
:1007400003D0FB68BA681A6502E0FB68BA685A65AC
:100750007B68002B03D0FB68BA681A6302E0FB6871
:10076000BA685A63FB68BA681A61FB68BA681A60AB
:1007700000BF1037BD4680BD750840002905400008
:1007800090B587B002AFF860B9607A603B60BB6833
:10079000B3F1005F16D0B3F1005F09D8B3F1805F09
:1007A00010D0B3F1C05F0DD0B3F1006F0AD03DE0BF
:1007B000B3F1405F1AD0B3F1605F17D0B3F1205F9F
:1007C0000ED033E07A68B968F8681C4B98473B68EC
:1007D00003F001031A467968F868194B984727E037
:1007E0003A687968F868174B984721E0BB68B3F11D
:1007F000605F0CBF01230023DBB21A463B6803F0A5
:100800000403002B14BF01230023DBB219463B680D
:1008100003F00103002B14BF01230023DBB200937C
:100820000B467968F868084CA04701E0002300E017
:10083000012318461437BD4690BD00BF8D0540000A
:10084000290540009D0640001D07400080B483B08C
:1008500000AF786039607B689A6B3B681340002B6F
:1008600001D1002300E0012318460C37BD465DF896
:10087000047B704780B483B000AF786039607B68D8
:100880003A685A6400BF0C37BD465DF8047B704778
:1008900080B483B000AF78607B68DB6C18460C379F
:1008A000BD465DF8047B704780B483B000AF7860CC
:1008B0007B689B6C18460C37BD465DF8047B70471F
:1008C00080B584B000AF786039607868264B98476F
:1008D000F8607868254B98470246FB681340FB6038
:1008E000FB68002B3CD00023BB6034E0204ABB688F
:1008F0001B0113441A683B689A4226D11C4ABB6804
:100900001B01134404331A68FB681340002B1CD0EE
:10091000174ABB681B0113440C331B681449BA689F
:1009200012010A4410681249BA6812010A440432DA
:100930001268114698470E4ABB681B0113440433E2
:100940001B68DB43FA681340FB60BB680133BB6084
:10095000BB68062B03D8FB68002BC7D100E000BFA3
:1009600000BF1037BD4680BD91084000A908400077
:100970005004402080B500AF0A210248024B98473E
:1009800000BF80BD000E0E40C108400080B500AF22
:100990000B210248024B984700BF80BD00100E405B
:1009A000C108400080B500AF0C210248024B9847B7
:1009B00000BF80BD00120E40C108400080B500AFEE
:1009C00010210248024B984700BF80BD00140E4022
:1009D000C108400080B500AF11210248024B984782
:1009E00000BF80BD00160E40C108400080B483B037
:1009F00000AF78607B68013B032B1AD801A252F844
:100A000023F000BF150A40001B0A4000230A4000E3
:100A10002B0A400000237B600EE04FF480737B6064
:100A20000AE04FF440737B6006E04FF400737B6094
:100A300002E000237B6000BF0A490A4B1B6B23F4D2
:100A400040727B6813430B6300BF064B9B6E03F041
:100A50000803002BF9D000BF0C37BD465DF8047BBE
:100A6000704700BF00060E4080B485B000AF7860CC
:100A70001D491D4B1B6B23F070027B6813430B63F6
:100A80004FF48053FB6007E0FB68002B01D101238A
:100A900023E0FB68013BFB60134B9B6E03F00803F4
:100AA000002BF1D0104A104B1B6B23F0030343F0D3
:100AB000020313634FF48053FB6007E0FB68002BD5
:100AC00001D1012309E0FB68013BFB60064B9B6EF3
:100AD00003F00803002BF1D0002318461437BD465D
:100AE0005DF8047B704700BF00060E4080B483B001
:100AF00000AF78607B68012B05D10749064B9A68E7
:100B0000064B13438B60044B054A1A6000BF0C3739
:100B1000BD465DF8047B704710180E40000010A51C
:100B2000080000A580B400AF094B5B6903F08003A7
:100B3000002B07D0074B9B6E03F08003002B01D0E6
:100B4000012300E000231846BD465DF8047B704792
:100B500010180E4000060E4080B483B000AF7860DD
:100B60001549154B1A6A154B13430B6200BF124B04
:100B70009B6E03F40033002BF9D00F490E4B1A6A19
:100B80000F4B13407A68134343F45C130B6200BFAE
:100B9000094B9B6E03F40033002BF9D00649064B3A
:100BA0001A6A084B134043F45C130B6200BF0C3706
:100BB000BD465DF8047B704700060E400800370014
:100BC0008FFFC8FFFFFFC8FE80B483B000AF78601E
:100BD00039607B68002B08D01349134B1B6A134AFA
:100BE0001A40134B13430B6218E00F490E4B1A6A5D
:100BF000104B13403A68120292B21A430E4B134341
:100C00000B6200BF084B9B6E03F00103002BF9D071
:100C10000549054B1A6A094B13430B6200BF0C3799
:100C2000BD465DF8047B704700060E40FCFFC8FE21
:100C300002003701FCFFC8FF010037000000370148
:100C400080B400AF044B9B6E03F480331846BD465E
:100C50005DF8047B704700BF00060E4080B400AF13
:100C6000044B4FF000529A6200BFBD465DF8047B12
:100C7000704700BF00060E4080B400AF044B9B6E6F
:100C800003F002031846BD465DF8047B704700BFC1
:100C900000060E4080B400AF044B9B6E03F040038F
:100CA0001846BD465DF8047B704700BF00060E4045
:100CB00080B483B000AF78607B683F2B01D90123FB
:100CC0002FE07B681F2B13D8194B9A6901217B6891
:100CD00001FA03F31A4001217B6801FA03F39A42F7
:100CE0001ED0134A01217B6801FA03F3136117E058
:100CF0007B68203B7B600E4BD3F8082101217B6889
:100D000001FA03F31A4001217B6801FA03F39A42C6
:100D100006D0074A01217B6801FA03F3C2F80031CB
:100D2000002318460C37BD465DF8047B704700BFB2
:100D300000060E4080B483B000AF78600B467B8025
:100D40007A88074B1B68134343F480227B681A6040
:100D5000002318460C37BD465DF8047B704700BF82
:100D6000C004402080B483B000AF78600B46FB70B5
:100D7000FB78002B0DD0104B1B6843F080730E4A9C
:100D800013607B681A680C4B1B681A437B681A60F7
:100D90000CE0094B1B6823F08073074A13607B68E3
:100DA0001A68054B1B681A437B681A6000BF0C3732
:100DB000BD465DF8047B7047C004402080B485B018
:100DC00000AF786039607B681B68FB60FA683B683D
:100DD0001343FB60064B1B68FA681343FB607B6898
:100DE000FA681A6000BF1437BD465DF8047B70478F
:100DF000C004402080B485B000AF78603960002323
:100E0000FB607B681B68FB603B68DB43FA68134050
:100E1000FB60074B1B68FA681343FB607B68FA684A
:100E20001A6000BF1437BD465DF8047B704700BFF1
:100E3000C004402080B485B000AF78607B689B68B8
:100E4000FB6002E07B689B68FB607B689A68FB68DC
:100E50009A42F7D1FB6818461437BD465DF8047B0B
:100E6000704780B483B000AF78607B68DB68184659
:100E70000C37BD465DF8047B7047000080B584B038
:100E800000AF786039607B681B6803F48033FB60D7
:100E90004FF480310D480E4B98473B68002B04D12E
:100EA0007B684FF0FF325A6003E03B685A1E7B6854
:100EB0005A60FB68002B04D04FF480310348054B87
:100EC0009847002318461037BD4680BD30180E40A5
:100ED000F50D4000BD0D400080B483B000AFEFF3CE
:100EE00010837B607B68002B0CBF01230023DBB2E7
:100EF0003B6072B6BFF35F8F044B00221A703B68F1
:100F000018460C37BD465DF8047B70470000402052
:100F100080B483B000AF78607B68002B14BF0123DE
:100F20000023DBB218460C37BD465DF8047B7047E2
:100F300080B582B000AF78607868074B9847034669
:100F4000002B05D0054B01221A70BFF35F8F62B6EC
:100F500000BF0837BD4680BD110F40000000402093
:100F600080B584B000AF1E4BFB601E4BBB60FA68BF
:100F7000BB689A420CD007E0BB681A1DBA60FA68D9
:100F8000111DF96012681A60BB68174A9342F3D3C7
:100F9000164BBB6004E0BB681A1DBA6000221A60E1
:100FA000BB68134A9342F6D3124BFB60124AFB68AC
:100FB00023F07F039360114B98477860104A104BE1
:100FC0001B6843F470031360BFF34F8FBFF36F8F41
:100FD00078680C4B98470C4B98470C4B9847FEE7AA
:100FE00040164000000040203404402034044020DB
:100FF000EC0440200000400000ED00E0D90E40006D
:1010000088ED00E0310F4000A91440005114400069
:1010100080B400AFFEE7000080B400AF524B1B6B02
:1010200003F00303012B14D0012B02D3022B38D081
:101030007AE04E4B5B6903F08003002B04D04C4BED
:101040004FF400421A606FE0494B4FF4FA421A60C5
:101050006AE0454B1B6A03F08073002B03D0444BBE
:10106000444A1A6060E0424B434A1A603E4B1B6A96
:1010700003F07003102B04D0202B08D0002B0ED0CF
:101080000EE03B4B1B685B00394A136008E0384BAD
:101090001A6813465B001344354A136000E000BF32
:1010A00042E0314B1B6A03F08073002B03D0304BBE
:1010B000304A1A601CE02E4B2F4A1A602A4B1B6ADA
:1010C00003F07003102B04D0202B08D0002B0ED07F
:1010D0000EE0274B1B685B00254A136008E0244B99
:1010E0001A6813465B001344214A136000E000BFF6
:1010F0001D4B1B6B03F00303022B14D11A4B9B6A8D
:101100001B0CC3F30A030133194A126802FB03F3F1
:10111000174A1360144B9B6ADBB2154A1268B2FB84
:10112000F3F3134A136000BF0F4B1B6B03F0700304
:10113000702B08D10E4B1B68104AA2FB03235B08DF
:101140000B4A13600AE0084B1B6B1B0903F00703F3
:10115000074A126822FA03F3054A136000BFBD462E
:101160005DF8047B704700BF00060E4010180E406B
:1011700004004020001BB70000093D00ABAAAAAA4A
:1011800080B483B000AF78607B68194A934204D87A
:10119000184B4FF080621A6023E07B68164A934236
:1011A00003D8144B154A1A601BE07B68144A93421B
:1011B00003D8104B134A1A6013E07B68124A93421B
:1011C00003D80C4B114A1A600BE07B68104A93421B
:1011D00004D8084B4FF004221A6002E0054B0D4A78
:1011E0001A6000BF0C37BD465DF8047B704700BF36
:1011F000FF2C3101000C0E40FF5962020001000477
:10120000FF86930300020004FFB3C404000300043C
:10121000FFE0F5050005000480B483B000AF03468D
:10122000FB71094997F907305B09FA7902F01F024F
:10123000012000FA02F241F8232000BF0C37BD461E
:101240005DF8047B704700BF00E100E080B483B02C
:1012500000AF0346FB71094997F907305B09FA793A
:1012600002F01F02012000FA02F2203341F823208D
:1012700000BF0C37BD465DF8047B704700E100E01D
:1012800080B483B000AF0346FB71094997F907307A
:101290005B09FA7902F01F02012000FA02F26033C2
:1012A00041F8232000BF0C37BD465DF8047B704732
:1012B00000E100E080B483B000AF03463960FB7109
:1012C00097F90730002B0BDA0D49FB7903F00F0378
:1012D000043B3A68D2B25201D2B20B441A7609E00A
:1012E000084997F907303A68D2B25201D2B20B449A
:1012F00083F8002300BF0C37BD465DF8047B7047C0
:1013000000ED00E000E100E080B582B000AF0A48E7
:101310000A4B984778607B6803F00103002B07D0E5
:101320004FF480710648074B9847074B01221A700B
:1013300000BF0837BD4680BD30180E40630E400028
:1013400000120E404D134000C404402080B582B00E
:1013500000AF7860396039687868094B9847034670
:10136000002B04D039687868064B984703E0396849
:101370007868054B984700BF0837BD4680BD00BF61
:101380004D084000710540005505400098B500AF7C
:101390000C20064B984700234FF480724FF04051C9
:1013A0000348044CA04700BF98BD00BFB10C4000EB
:1013B00000120E408107400080B584B000AF0346A4
:1013C0003960FB8000211848184B9847FB88194664
:1013D0001548174B98471448164B9847F86000BFBC
:1013E0001148144B98470246FB689A42F8D03A6875
:1013F000FB68134419460C480F4B984703200F4BCA
:10140000984703200E4B9847002103200D4B984727
:1014100003200D4B98474FF4803103480B4B9847FE
:1014200000BF1037BD4680BD30180E40650D40002E
:10143000350D4000350E40007D0E40004D1240003D
:1014400081124000B512400019124000BD0D40004D
:1014500080B582B000AF0F4B4FF400425A600E4B84
:1014600098470E4B98470E4B01221A700C4B1B7875
:10147000DBB2002BFAD04FF40053FB8008233B6013
:10148000FB8839681846074B9847054B00221A70AD
:10149000ECE700BF50180E40AD0440008D13400033
:1014A000C4044020B913400070B50F4E0F4D761B99
:1014B000B61018BF002405D0013455F8043B9847F6
:1014C000A642F9D10A4E0B4D761B00F0A7F8B610D4
:1014D00018BF002406D0013455F8043B9847A642B3
:1014E000F9D170BD70BD00BF28164000281640001D
:1014F0003016400028164000024B13B1024800F09D
:1015000005B870470000000019154000002301468F
:101510001A46184600F01EB838B50A4C0A4D641B2E
:10152000A4100AD004F18043013B05EB8305013C84
:1015300055F804399847002CF9D1BDE8384000F03F
:1015400077B800BF401640003C164000704700BF0F
:10155000704700BF2DE9F8432C4D06462868984691
:101560000F469146FFF7F2FF294B1C68D4F848312B
:10157000002B3ED05A681F2A1CDC02F1010E76B106
:1015800003EB82010124C1F88890D3F888019440CC
:101590002043022EC3F88801C1F8088123D002320B
:1015A000C3F804E0286843F82270FFF7D1FF002059
:1015B000BDE8F883174B0BB34FF4C870AFF300804E
:1015C0000346D8B1D4F848210260002141600A46A0
:1015D000C4F848014FF0010EC0F88811C0F88C1112
:1015E000002EDCD0CCE7D3F88C110C43C3F88C412F
:1015F000D5E704F5A673C4F84831BBE72868FFF7C0
:10160000A7FF4FF0FF30BDE8F88300BF3004402053
:10161000181640000000000008004020F8B500BF88
:10162000F8BC08BC9E467047F914400065014000B4
:10163000F8B500BFF8BC08BC9E46704741014000A9
:101640000100000000093D0000000000F4024020FD
:101650005C034020C40340200000000000000000A4
:10166000000000000000000000000000000000007A
:10167000000000000000000000000000000000006A
:10168000000000000000000000000000000000005A
:10169000000000000000000000000000000000004A
:1016A000000000000000000000000000000000003A
:1016B000000000000000000000000000000000002A
:1016C000000000000000000000000000000000001A
:1016D000000000000000000000000000000000000A
:1016E00000000000000000000000000000000000FA
:1016F00001000000000000000E33CDAB34126DE697
:10170000ECDE05000B0000000000000000000000FF
:1017100000000000000000000000000000000000C9
:1017200000000000000000000000000000000000B9
:1017300000000000000000000000000000000000A9
:101740000000000000000000000000000000000099
:041A7000C804402046
:0400000500400F6147
:00000001FF
