:020000040040BA
:10000000602C4020B10C4000AF0C4000AF0C400011
:10001000AF0C4000AF0C4000AF0C400000000000EF
:10002000000000000000000000000000A1104000DF
:10003000AF0C40000000000041114000A51140003D
:10004000AF0C4000AF0C4000AF0C4000AF0C4000C4
:10005000AF0C4000AF0C4000AF0C4000AF0C4000B4
:10006000AF0C400000000000090740001D074000E1
:1000700031074000AF0C40000D364000AF0C40008F
:100080004507400059074000AF0C4000AF0C40004E
:10009000AF0C4000AF0C4000AF0C4000AF0C400074
:1000A000AF0C4000AF0C4000AF0C4000AF0C400064
:1000B000AF0C4000AF0C4000AF0C4000AF0C400054
:1000C000AF0C4000AF0C4000AF0C4000AF0C400044
:1000D000AF0C4000AF0C4000AF0C4000AF0C400034
:1000E000AF0C4000AF0C4000AF0C4000AF0C400024
:1000F000AF0C4000AF0C4000AF0C4000AF0C400014
:10010000AF0C4000AF0C4000AF0C4000AF0C400003
:10011000AF0C4000000000000000000000000000E4
:10012000AF0C4000AF0C4000AF0C4000AF0C4000E3
:10013000AF0C4000AF0C4000AF0C4000AF0C4000D3
:10014000AF0C4000AF0C4000AF0C4000AF0C4000C3
:10015000AF0C4000000000000000000000000000A4
:10016000000000000000000010B5054C237833B9F2
:10017000044B13B10448AFF300800123237010BD7A
:10018000B809402000000000886F40000C4B43B1CC
:100190000C480D4910B5AFF300800C48036823B933
:1001A00010BD0A48036833B97047094B002BF7D0DC
:1001B000BDE810401847064B002BF5D0184700BF8C
:1001C00000000000886F4000BC094020886F40009C
:1001D0000000000010B51048104B98473E21002049
:1001E0000F4B98470F4CA0470028FCD00E4B984768
:1001F0000E4A0F4B9A620F4CA0470028FCD00220F9
:100200000D4B984700200D4B98470D4B98470248DF
:10021000024B984710BD00BF80D1F008850E40000A
:10022000090840005D0840006D084000013F1820AB
:1002300000060E407D0840006D074000A507400005
:10024000790D40002DE9F04180B90C469046002A16
:100250000FDD8F18084E094D306821462B689847EE
:100260000134BC42F8D14046BDE8F0814FF0FF3880
:10027000F9E78046F7E700BFDC0B4020D40B4020B5
:100280000138022815D82DE9F0410E4614469AB1DE
:100290000D46DFF838800C4FD8F8000015F8011B28
:1002A0003B68984700280ADBA81B013CF4D1BDE855
:1002B000F0814FF0FF3070471046BDE8F0814FF0FD
:1002C000FF30BDE8F08100BFD80B4020DC0B4020A0
:1002D000F8B54FF400425B4B5A60BFF34F8FBFF34A
:1002E0006F8F594B0021C3F85012BFF34F8FBFF3EC
:1002F0006F8F5A6942F400325A61BFF34F8FBFF3D8
:100300006F8FC3F88410BFF34F8FD3F88070C7F39B
:100310004E35C7F3C9076E014FEA877C43F6E07E8E
:100320001C4606EA0E0062463B4640EA0201C4F85B
:100330006012013B02F14042B3F1FF3FF5D1013DB4
:10034000203EB5F1FF3FECD1BFF34F8F3E4B5A69D2
:1003500042F480325A61BFF34F8FBFF36F8F3B4A35
:100360003B495160A1F580715160BFF34F8FBFF3DE
:100370006F8FD3F8902222F00102C3F89022D3F8B5
:10038000942222F00102C3F89422BFF34F8FBFF3EF
:100390006F8F0A202F4CA0470B20A0470C20A047AE
:1003A0001020A0471120A0472B4B4FF480721A61F8
:1003B000C3F8A0201A63A3F580634FF400625A616A
:1003C000C3F8A0205A66C3F890205A651A62C3F891
:1003D0008420196F21F400611967596F21F40061BD
:1003E0005967C3F8C020C3F8D420C3F8B0204FF435
:1003F00000121A66C3F890205A655A62C3F880202A
:10040000196F21F400111967596F21F40011596710
:100410005A60124AD2F8143143F01003C2F8143172
:100420000F4B10221A66C3F890205A655A62C3F81F
:100430008020196F11431967596F114359675A602A
:10044000F8BD00BF50180E4000ED00E0000C0E405B
:100450000C08005A8D08400000120E400080084031
:1004600000100E40016370474163704721F0006146
:10047000B1F1405F05D1836B134214BF012000200E
:100480007047C36BF8E74264B1F1C05F3AD013D84C
:10049000B1F1006F25D0B1F1805F0AD1036F134332
:1004A0000367436F416F0B4023EA020343674260D7
:1004B00070470029FBD17047B1F1205F21D009D8E6
:1004C000B1F1005FF3D1036F13430367436F13432D
:1004D0004367ECE7B1F1405F13D0B1F1605F10D03A
:1004E000E5E710B4016F046FD34321401C46194067
:1004F0000167436F416F0B402340436742605DF8E3
:10050000044B7047036F016F0B4023EA020303673C
:10051000436F13434367CAE7416412F0010F0DD1E3
:10052000016612F00A0F0BD0016212F0020F09D11E
:1005300012F0080F08D0C0F8841005E04166F0E71B
:100540004162F2E7C0F8801041610160704710B469
:10055000019C41644CB901664BB101654AB94163E4
:10056000016101605DF8044B70474166F4E7416545
:10057000F4E70163F4E7000070B582B00546164663
:100580001C46B1F1005F14D00AD9B1F1405F24D00C
:10059000B1F1605F21D0B1F1205F17D000201AE0E7
:1005A000B1F1805F05D0B1F1C05F02D0B1F1006F51
:1005B000F4D132462846114B984714F0010F02D16E
:1005C0002E66012007E06E66012004E01A463146DF
:1005D0000B4B9847012002B070BD04F0010300935B
:1005E000C4F38003B1F1605F14BF002201223146E1
:1005F0002846044CA0470120EDE700BF87044000D7
:10060000190540004F05400012F0100F12D0C0F83D
:10061000B01012F0200F07D0C0F8D41012F0400F25
:1006200005D0C0F8C0107047C0F8D010F6E7C0F889
:10063000C4107047C0F8B410704701647047C06CB4
:100640007047806C704700002DE9F04104468846F1
:100650000E4B9847054620460D4B9847054013D052
:100660000C4C04F1600603E0B4420DD010345DB1CF
:1006700020684045F8D161682942F5D0E368984781
:10068000636825EA0305EFE7BDE8F0813F06400017
:1006900043064000D4094020F8B5184C2668062EC1
:1006A0002AD84FF0000C6446154F04E00134E4B240
:1006B000A446A64209D3A64625017D598D42F5D10F
:1006C00007EB04156D689542F0D10D4D4FEA0E1EF3
:1006D00005EB0E0445F80E106260A3600699E16018
:1006E0000136664505D011461A46064B984700204C
:1006F000F8BD02490E60F6E70120F8BD440A40202B
:10070000D40940200906400008B50A210148024BDF
:10071000984708BD000E0E404906400008B50B2161
:100720000148024B984708BD00100E4049064000A2
:1007300008B50C210148024B984708BD00120E4035
:100740004906400008B510210148024B984708BDF2
:1007500000140E404906400008B511210148024B23
:10076000984708BD00160E4049064000032811D0E6
:10077000042812D002280CBF4FF480710021084ACF
:10078000136B23F440730B431363936E13F0080F42
:10079000FBD070474FF44071F1E74FF40071EEE782
:1007A00000060E40174A136B23F0700318431063C2
:1007B000936E13F0080F0AD14FF4805311498A6EDB
:1007C00012F0080F03D1013BF9D1012070470D4A07
:1007D000136B23F0030343F002031363936E13F0D0
:1007E000080F0AD14FF4805306498A6E12F0080FA1
:1007F00005D1013BF9D1012070470020704700204E
:10080000704700BF00060E40A0B90E48036A0902F7
:1008100089B20D4A1A400D4B134319430162024637
:10082000936E13F0010FFBD0064A116A084B0B437D
:100830001362704703490B6A064A1A40064B13437A
:100840000B62704700060E40FCFFC8FF0100370036
:1008500000003701FCFFC8FE02003701024B986E12
:1008600000F48030704700BF00060E404FF0005289
:10087000014B9A62704700BF00060E40024B986E13
:1008800000F00200704700BF00060E4000F07F003D
:10089000054BC3F80C01D3F80C2142F01022C3F829
:1008A0000C210020704700BF00060E40704700007A
:1008B000104A136F23F4C00343F480031367116AD3
:1008C0000D4B0B431362936E13F0080FFBD04FF4E4
:1008D000FA7300BF013BFCD1064A136A13F0080FFC
:1008E000FBD0044A136F23F4C00343F4800313675F
:1008F000704700BF00060E40040037002DE9F843A2
:10090000431E042B00F20781DFE813F00500050009
:1009100015001500F600814A136923F004031361E2
:1009200001227F4B1A70BFF35F8F62B6BFF34F8F08
:1009300030BFBDE8F883044603280CBF00204FF405
:100940000010784B984772B6BFF35F8F0022744B4C
:100950001A700122744B1A70744B1F6A1D6B744A13
:10096000D2F800809E6A734A3A431A6205F003097E
:10097000B9F1010F40F2898025F0030141F0010136
:1009800019631A46936E13F0080FFBD011F0700F25
:1009900008D021F07001654B19631A46936E13F06D
:1009A000080FFBD0644B9847604A936E13F4003FE6
:1009B000FBD05E4A116A614B0B4043F45C13136237
:1009C000936E13F4803FFBD028F47063584A136091
:1009D000042C5CD0524C01232370BFF35F8F62B6AE
:1009E000574B984772B6BFF35F8F0023237017F001
:1009F000020F55D04D4A136A52491940524B0B43CE
:100A00001362116A514B0B4043F45C131362504B59
:100A10003340002B6ED046F00056444B9E620221BC
:100A2000B9F1020F04D1414A936E13F0020FFBD0CB
:100A30003E4A136B23F0700305F070000343136309
:100A4000936E13F0080FFBD0394BC3F80080A3F569
:100A5000C0631D631A46936E13F0080FFBD0334A30
:100A6000936E0B42FCD000222F4B1A70394B1B683F
:100A70001BB198470022374B1A600122284B1A708D
:100A8000BFF35F8F62B6BDE8F88329467EE7A2F523
:100A9000C062116A304B0B4043F45C13136299E758
:100AA00017F0010FB3D0214B1B6A13F0010F0BD1CC
:100AB0001E490B6A294A1A40294B13430B620A4606
:100AC000936E13F0010FFBD0184B1B6A13F0807F5D
:100AD00008D1164A116A234B0B431362936E13F429
:100AE000803FFBD0114A116A184B0B4043F45C1352
:100AF00013628CE7002193E7084A136943F004036B
:100B00001361194A194B1A600122054B1A70BFF381
:100B10005F8F62B630BFBDE8F88300BF00ED00E034
:100B200000004020AD084000480A402000060E406A
:100B3000000C0E40080037006D084000FFFFC8FEA3
:100B4000B1084000FCFFC8FE0200370187FFC8FF64
:100B50000000FF074C0A4020FEFFC8FFFCFFC8FF53
:100B60000100370000003701040000A510180E40F6
:100B7000436913F0020F02D0C161002070470120C9
:100B80007047436913F0010F03D083690B70002095
:100B900070470120704710B40B01934214D9C9006B
:100BA0004B0803EBC202B2FBF1F2D3085C1E4FF616
:100BB000FE718C4201D9012017E0416841F4002107
:100BC00041600CE0012010E0590801EBC202B2FBC9
:100BD000F3F2D3085C1E4FF6FE718C42F2D8120479
:100BE00002F4E0221A43026200205DF8044B7047D1
:100BF000084BC0F8E43000234360436283628823DB
:100C00000360242303604FF4807303604FF40023D8
:100C1000036070470041535570B505460C461646B3
:100C20000F4B984700220F4B1A60A4B1324621683F
:100C300028460D4B9847024678B96368A1680B4374
:100C400021690B43E1680B4306490B6069680B435C
:100C50006B60104670BD0122FBE70122F9E700BF7F
:100C6000F10B4000500A4020970B400040230360E6
:100C70007047102303607047816070474069704778
:100C8000436913F0020F04D0C1F30801C1610020D1
:100C9000704701207047436913F0010F05D0836945
:100CA000C3F308030B600020704701207047FEE784
:100CB00000B583B0254B264A9A4210D0254B234AD3
:100CC0009A420CD2013B9B1A23F0030304331344D2
:100CD0001F4951F8040B42F8040B9A42F9D11E4BFC
:100CE0001E4A9A420AD2013B9B1A23F003030433A3
:100CF0001344002142F8041B9342FBD1184A194BBC
:100D000023F07F039360EFF31083B3FA83F35B095F
:100D1000019372B6BFF35F8F0022134B1A700199D3
:100D2000124A136843F470031360BFF34F8FBFF38D
:100D30006F8F29B101220C4B1A70BFF35F8F62B61F
:100D40000B4B98470B4B9847FEE700BF0000402035
:100D5000886F4000B80940205C0C4020B809402052
:100D600000ED00E0000040000000402088ED00E0C1
:100D7000E1384000613640003B4B1B6B03F003033E
:100D8000012B1DD083B1022B36D0374B1B6B03F0E8
:100D90007003702B5FD0344B1A6B3449C2F30212CC
:100DA0000B68D3400B607047314B5B6913F0800FC9
:100DB00014BF4FF400424FF4FA422C4B1A60E4E7A0
:100DC000294B1B6A13F0807F03D02A4A274B1A60F5
:100DD000DBE7294A254B1A60234B1B6A03F070039B
:100DE000102B05D0202BD0D1224A204B1A60CCE703
:100DF000224A1E4B1A60C8E71B4B1B6A13F0807F08
:100E000016D01C4A194B1A60174B1B6B03F00303D7
:100E1000022BBAD1144A916A926A1448C1F30A416A
:100E2000036801FB0333D2B2B3FBF2F30360ACE718
:100E3000114A0E4B1A600C4B1B6A03F07003102B07
:100E400005D0202BE0D10B4A084B1A60DCE70B4A97
:100E5000064B1A60D8E7054A13680949A1FB03133A
:100E60005B081360704700BF00060E40040040207E
:100E700010180E40001BB70000093D0000127A0058
:100E8000ABAAAAAA164B984213D9164B984215D969
:100E9000154B984216D9154B984217D9144B9842C6
:100EA00018D9144B984294BF134A144A144B1A6031
:100EB00070474FF08062124B1A607047114A104B16
:100EC0001A607047104A0E4B1A6070470F4A0C4B5D
:100ED0001A6070474FF00422094B1A60704700BF38
:100EE000BFF35E017FE7BD023FDB1C04FFCE7B0545
:100EF000BFC2DA067FB63908000500040006000408
:100F0000000C0E4000010004000200040003000475
:100F10000A4B1B6853B1094B1B681A1808499142C8
:100F200008DB1046054A106018467047054A034B17
:100F30001A60F0E74FF0FF30704700BF540A4020BE
:100F4000FCFF4520602E40204FF0FF3070474FF4EB
:100F500000534B600020704701207047002070470D
:100F600000F1080343604FF0FF328260C360036109
:100F700000230360704700230361704743684B60A0
:100F80009A688A609A6851609960086103680133C1
:100F90000360704730B40D68B5F1FF3F02D000F137
:100FA000080202E0026904E01A4653681C68A54280
:100FB000FAD253684B6099608A6051600861036897
:100FC0000133036030BC70470369426881689160F7
:100FD0008268416851605A68904206D000220261DE
:100FE0001A68013A1A601868704782685A60F5E713
:100FF00082B0002301930F4B1B68B3F1FF3F0AD06F
:101000004FF0800372B683F31188BFF36F8FBFF385
:101010004F8F62B6FEE74FF0800372B683F31188FC
:10102000BFF36F8FBFF34F8F62B6019B002BFCD0D5
:1010300002B070470800402008480068006880F34C
:1010400008884FF0000080F3148862B661B6BFF3E1
:101050004F8FBFF36F8F00DF00BF000008ED00E08F
:10106000DFF80C00016841F4700101607047000076
:1010700088ED00E04FF0807340F8043C21F001015E
:1010800040F8081C054B40F80C3C40F8202C6FF051
:10109000020340F8243C4438704700BFF10F400081
:1010A000074B19680868B0E8F04F80F30988BFF370
:1010B0006F8F4FF0000080F311887047AFF300800E
:1010C000600A40204FF0800372B683F31188BFF3AB
:1010D0006F8FBFF34F8F62B60B4A136801331360F3
:1010E000012B0FD1094B1B6813F0FF0F0AD04FF0F3
:1010F000800372B683F31188BFF36F8FBFF34F8FF6
:1011000062B6FEE7704700BF0800402004ED00E033
:101110000A4B1B6853B94FF0800372B683F31188F2
:10112000BFF36F8FBFF34F8F62B6FEE7013B034AF9
:1011300013600BB983F31188704700BF080040208B
:10114000EFF30980BFF36F8F154B1A681EF0100F75
:1011500008BF20ED108A20E9F04F10602DE909004A
:101160004FF0800072B680F31188BFF34F8FBFF34A
:101170006F8F62B601F0ECF94FF0000080F3118838
:1011800009BC19680868B0E8F04F1EF0100F08BFDE
:10119000B0EC108A80F30988BFF36F8F704700BFEF
:1011A000600A402008B54FF0800372B683F31188BF
:1011B000BFF36F8FBFF34F8F62B6054B984718B1DF
:1011C0004FF08052034B1A60002383F3118808BD4F
:1011D0009522400004ED00E0054B00221A6005490D
:1011E0000A600549054A116007221A60704700BF6E
:1011F00010E000E018E000E0BF27090014E000E084
:1012000010B582B02E4B1A78D2B20192FF221A701A
:101210001B78DBB28DF803309DF8033003F08003B8
:10122000284A13700722284B1A609DF8033013F0E8
:10123000800F12D0062300E00B469DF803205200D9
:10124000D2B28DF803209DF80320591E12F0800FB2
:10125000F2D11D4A1360042B0AD04FF0800372B6FE
:1012600083F31188BFF36F8FBFF34F8F62B6FEE732
:101270001B0203F4E063144A1360019BDBB2104AC3
:101280001370124B1A6842F460021A601A6842F036
:1012900060421A600E4B984700240E4B1C600E4BA8
:1012A00098470E4A136843F0404313600C4B98472D
:1012B0000C4B98470C4B9847204602B010BD00BF1E
:1012C00000E400E0580A40205C0A402020ED00E0E5
:1012D000D9114000080040206110400034EF00E0C8
:1012E0003910400051254000F10F4000EFF3058315
:1012F0000F2B11D9124A9B5CDBB2124A12789A4228
:101300000AD94FF0800372B683F31188BFF36F8F51
:10131000BFF34F8F62B6FEE70B4B1B6803F4E0632D
:101320000A4A126893420AD94FF0800372B683F3D7
:101330001188BFF36F8FBFF34F8F62B6FEE7704720
:10134000F0E300E0580A40200CED00E05C0A402089
:1013500010B50446064B98472046064B984704466E
:10136000054B98470CB1204610BD044B9847FAE74F
:101370007922400059394000DD234000F731400018
:1013800048B110B50446044B98472046034B984794
:10139000034B984710BD70477922400069394000DF
:1013A000DD23400010B50446044B9847A46B044B62
:1013B0009847B4FA84F0400910BD00BFC510400042
:1013C0001111400070B504461646856B026C52B987
:1013D0000368002B2AD14068174B984700236360AD
:1013E0000135A56370BD6EB98068144B9847A3683A
:1013F000226C1344A3606268934219D32368A360EC
:101400000020EDE7C0680D4B9847236C5B42E26813
:101410001A44E26021688A4202D262681344E3609F
:1014200045B1022E06D1013D0020D9E70020D7E7C3
:101430000020D5E70020D3E7D5284000D93E400062
:1014400070B582B00190846C74B1A26BE36B9A4268
:1014500015D34FF0800372B683F31188BFF36F8FFB
:10146000BFF34F8F62B6FEE74FF0800372B683F38F
:101470001188BFF36F8FBFF34F8F62B6FEE7A26B89
:10148000934203D80026304602B070BD0A4694F855
:1014900045506DB201A920460A4B98470646B5F162
:1014A000FF3F0AD1636A002BEDD004F12400064B04
:1014B0009847002818BF0126E5E76B1C5BB284F84B
:1014C0004530E0E7C5134000A5264000026C72B12C
:1014D00010B50346C4681444C4604068844201D314
:1014E0001868D8600846D968014B984710BD704706
:1014F000D93E40002DE9F0410546234B984795F829
:10150000454064B2002C19DD204EDFF88C80204F5E
:1015100008E06B6A93B105F12400B84760B9013C5B
:1015200064B25CB1AB6C002BF3D000212846B0470D
:101530000028F4D0C047F2E7C047F0E7FF2385F862
:101540004530144B9847104B984795F8444064B287
:10155000002C12DD2B6983B105F110070C4EDFF86A
:10156000388004E0013C64B23CB12B692BB13846B1
:10157000B0470028F6D0C047F4E7FF2385F8443091
:10158000044B9847BDE8F081C5104000411440006D
:10159000A526400011114000E927400038B530B3BE
:1015A00004460D461D4B98472268216CE36B03FBF4
:1015B00001F3D01860600020A063A2605B1A13449E
:1015C000E360FF2384F8443084F84530D5B92369BB
:1015D000FBB104F11000124B9847D0B14FF080528C
:1015E000104B1A60BFF34F8FBFF36F8F11E04FF0B6
:1015F000800372B683F31188BFF36F8FBFF34F8FF1
:1016000062B6FEE704F11000074DA84704F124007C
:10161000A847064B9847012038BD00BFC5104000C1
:10162000A526400004ED00E0610F400011114000CC
:10163000F8B550B94FF0800372B683F31188BFF349
:101640006F8FBFF34F8F62B6FEE7064617460D4613
:1016500001FB00F054300B4B9847044678B11DB1A4
:1016600000F15403036000E02060E663256401217B
:101670002046054B984784F850700023A364204609
:10168000F8BD00BF511340009D1540002DE9F04FFB
:1016900085B00192B8B1044601B3022B2CD01E468E
:1016A0000F46694B9847002834D1019B002B39D055
:1016B0004FF0800372B683F31188BFF36F8FBFF3CF
:1016C0004F8F62B6FEE74FF0800372B683F3118846
:1016D000BFF36F8FBFF34F8F62B6FEE7026C002A35
:1016E000DBD04FF0800372B683F31188BFF36F8FA6
:1016F000BFF34F8F62B6FEE7E26B012ACFD04FF007
:10170000800372B683F31188BFF36F8FBFF34F8FDF
:1017100062B6FEE70025DFF85C81DFF85CA1DFF848
:10172000349141E00025F6E7324639462046474BE2
:101730009847A36C93B131462046454B984738B142
:101740004FF08052434B1A60BFF34F8FBFF36F8F40
:10175000414B9847012005B0BDE8F08F636A73B133
:1017600004F124003D4B98470028F1D04FF08052FF
:10177000384B1A60BFF34F8FBFF36F8FE8E7002835
:10178000E6D04FF08052334B1A60BFF34F8FBFF358
:101790006F8FDDE7304B98470020DCE72046304B69
:1017A0009847304B98470125C047A26BE36B9A429C
:1017B000BAD3022EB8D0019B002BEBD00DB902A8F2
:1017C000D047254B9847284B9847C04794F844305A
:1017D0005BB2B3F1FF3F02D1002384F8443094F8A8
:1017E00045305BB2B3F1FF3F02D1002384F84530AE
:1017F000194B984701A902A81C4B9847E0B9C0476C
:10180000D4F838B0E56B144B9847AB45C6D1019975
:1018100004F11000164B98472046114B9847114B86
:1018200098470028BFD14FF08053C9F80030BFF36C
:101830004F8FBFF36F8FB6E72046094B9847094B90
:101840009847002087E700BFF5274000C5134000F8
:101850004114400004ED00E011114000A5264000B5
:10186000F5144000DD234000792240005527400058
:1018700021264000C51040003D2740002DE9F843D7
:10188000002839D00446002941D0022B4DD01F46F4
:10189000904689463A4B9847EFF311864FF0800304
:1018A00072B683F31188BFF36F8FBFF34F8F62B6A9
:1018B000A26BE36B9A4201D3022F58D194F84550A2
:1018C0006DB23A46494620462E4B9847B5F1FF3F48
:1018D00047D1A36C002B36D0394620462A4B984777
:1018E000B8F1000F45D0002843D00120C8F800000F
:1018F00086F31188BDE8F8834FF0800372B683F356
:101900001188BFF36F8FBFF34F8F62B6FEE7006C95
:101910000028BAD04FF0800372B683F31188BFF36A
:101920006F8FBFF34F8F62B6FEE7E06B0128AED03A
:101930004FF0800372B683F31188BFF36F8FBFF34C
:101940004F8F62B6FEE7636AABB104F124000F4B20
:101950009847B8F1000F10D078B10120C8F8000006
:10196000C6E76B1C5BB284F845300120C0E700205D
:10197000BEE70120BCE70120BAE70120B8E700BFBD
:10198000ED124000C513400041144000A526400060
:1019900070B170B50446036CABB14FF0800372B602
:1019A00083F31188BFF36F8FBFF34F8F62B6FEE7EB
:1019B0004FF0800372B683F31188BFF36F8FBFF3CC
:1019C0004F8F62B6FEE703683BB30E46264B98473F
:1019D000EFF311854FF0800372B683F31188BFF3E4
:1019E0006F8FBFF34F8F62B6A26BE36B9A4233D215
:1019F00094F845305BB20132A263B3F1FF3F25D1C9
:101A0000A36CC3B100212046184B984736B328B3C6
:101A10000120306085F3118870BD4368002BD4D05D
:101A20004FF0800372B683F31188BFF36F8FBFF35B
:101A30004F8F62B6FEE7636A93B104F124000C4B4A
:101A400098477EB170B101203060E3E701335BB2AB
:101A500084F845300120DDE70020DBE70120D9E7ED
:101A60000120D7E70120D5E7ED12400041144000E6
:101A7000A52640002DE9F04784B0019290B10446BC
:101A8000D9B10E46544B984728BB019B5BB34FF02E
:101A9000800372B683F31188BFF36F8FBFF34F8F4C
:101AA00062B6FEE74FF0800372B683F31188BFF38E
:101AB0006F8FBFF34F8F62B6FEE7036C002BE0D051
:101AC0004FF0800372B683F31188BFF36F8FBFF3BB
:101AD0004F8F62B6FEE70027DFF82881DFF828A1E4
:101AE000DFF8009131E00027F6E7314620463B4B16
:101AF0009847013DA563236963B104F11000384B99
:101B0000984738B14FF08052364B1A60BFF34F8F71
:101B1000BFF36F8F344B9847012004B0BDE8F087C6
:101B2000314B98470020F8E702A8D04716E0002381
:101B300084F844301DE0002384F845301FE020463F
:101B40002A4B98472A4B98470127C047A56B002D81
:101B5000CBD1019B002BE3D0002FE5D0224B98473F
:101B6000244B9847C04794F844305BB2B3F1FF3F31
:101B7000DDD094F845305BB2B3F1FF3FDBD01A4BB8
:101B8000984701A902A81C4B9847C8B920461B4B8F
:101B900098470028D3D0019904F12400184B9847A6
:101BA0002046124B9847124B98470028CCD14FF053
:101BB0008053C9F80030BFF34F8FBFF36F8FC3E777
:101BC00020460A4B98470A4B984720460B4B9847AC
:101BD0000028B9D00020A0E7F5274000CD14400030
:101BE000A526400004ED00E011114000F51440006E
:101BF000DD2340007922400055274000A513400016
:101C000021264000C51040003D2740002DE9F0434B
:101C100085B0019168B10446036CABB14FF080030D
:101C200072B683F31188BFF36F8FBFF34F8F62B625
:101C3000FEE74FF0800372B683F31188BFF36F8F16
:101C4000BFF34F8F62B6FEE75E4B984760B9019BCA
:101C500093B14FF0800372B683F31188BFF36F8F97
:101C6000BFF34F8F62B6FEE700252F46564EDFF8D2
:101C70008C91DFF8608152E000252F46F6E7013BAA
:101C8000A363236813B9514B98476060236963B11C
:101C900004F110004E4B984738B14FF080524D4B35
:101CA0001A60BFF34F8FBFF36F8F4B4B98470125DF
:101CB000284605B0BDE8F08355B14FF0800372B6F9
:101CC00083F31188BFF36F8FBFF34F8F62B6FEE7C8
:101CD000414B9847ECE702A8C84729E0002384F865
:101CE000443030E0002384F8453032E0B04760688B
:101CF0003A4B98470546384B98473AE02046384BD0
:101D00009847384B984709E02046354B9847354B64
:101D100098472046344B984700283FD10127B047C9
:101D2000A36B002BABD1019B002BC5D0002FD2D0D1
:101D3000294B98472D4B9847B04794F844305BB2F5
:101D4000B3F1FF3FCAD094F845305BB2B3F1FF3F27
:101D5000C8D0214B984701A902A8254B98470028D5
:101D6000D2D12046204B98470028C7D02368002BAB
:101D7000BCD0019904F124001E4B98472046184B13
:101D80009847184B98470028C8D14FF08053C8F89F
:101D90000030BFF34F8FBFF36F8FBFE7002D87D0A9
:101DA000094B9847636A53B1236B1968C1F1050168
:101DB0006068114B9847084B9847002578E7002149
:101DC000F6E700BFF5274000C51040005D2A40003F
:101DD000A526400004ED00E0111140001528400048
:101DE000F5144000DD234000A51340007922400097
:101DF0005527400021264000912940003D27400002
:101E000010B40B4B1B6853B10123094C54F8332019
:101E100032B10133082BF9D15DF8044B7047002330
:101E2000034A42F8331002EBC3035860F4E700BFE3
:101E3000E00B402070B504460D461646124B9847FD
:101E400094F844305BB2B3F1FF3F0DD094F84530C5
:101E50005BB2B3F1FF3F0BD00C4B9847A36B5BB168
:101E600020460B4B984770BD002384F84430EDE7C3
:101E7000002384F84530EFE73246294604F1240078
:101E8000044B9847ECE700BFC5104000111140001B
:101E9000F51440005D264000084B1B681B683BB1F1
:101EA000064B1B68DB68DB685A68054B1A60704795
:101EB0004FF0FF32024B1A60704700BF640A4020A7
:101EC000140B402070B504460E461C4B1D681C4B7D
:101ED000186804301B4B984748B9194B1A681A49BF
:101EE0000B68D06A0122824023EA02030B60B4F13E
:101EF000FF3F00D19EB92C44114B1B685C60A5428A
:101F000014D8124B18680E4B19680431104B9847BF
:101F1000104B1B689C4201D20E4B1C6070BD084BDD
:101F2000196804310C480D4B984770BD0C4B18686C
:101F3000034B19680431064B984770BD5C0B402079
:101F4000600A4020C90F4000E40A4020640A402093
:101F5000950F4000140B4020340B40207D0F4000B3
:101F6000680A402080B5184DDFF87880DFF8789057
:101F700001E0164B98472B68C3B1154F154EC0476B
:101F8000FB68DC68201DB047134A1368013B1360EF
:101F90002B68013B2B60114B9847206BDFF84CA05E
:101FA000D0472046D0472B68002BE8D10C4B1B684C
:101FB000012BDED94FF08053C9F80030BFF34F8FAB
:101FC000BFF36F8FD5E700BFD40A4020E531400052
:101FD000480B4020C90F4000D00A4020111140009A
:101FE0006C0A4020C510400004ED00E08113400061
:101FF0002DE9F04F83B083460D460193DDF834A000
:1020000096003046604B9847002800F08D800746C8
:1020100058205D4B98470446002800F082800763F3
:102020003246A5213846594B9847043E236B1E443F
:1020300026F007062B7884F834302B7863B12B46D2
:1020400004F1340205F10901587802F8010F13F880
:10205000010F08B18B42F7D1002784F83D700C9D29
:10206000042D28BF0425E562A564E76404F1040893
:102070004046DFF86C91C84704F11800C847246156
:10208000C5F10505A5616462276584F85470019A5D
:10209000594630463E4B98472060BAF1000F01D0B8
:1020A000CAF800403B4B98473B4A13680133136022
:1020B0003A4B1B68002B3AD0394B1B683BB9374B66
:1020C0001B68DA6AE36A9A4201D8344B1C60354ACD
:1020D0001368013313602364E06A334A11680123F3
:1020E00083400B43136000EB800041462F4B03EB12
:1020F00080002F4B98472F4B9847294B1B68002B8C
:102100003BD0264B1B68DA6AE36A9A4239D24FF019
:102110008052294B1A60BFF34F8FBFF36F8F01209E
:102120002CE03846254B98474FF0FF3026E01B4BFC
:102130001C601368012BCAD11C4E3046204DA847A5
:1021400006F11400A84706F12800A84706F13C0054
:10215000A84706F15000A8471A4F3846A8471A4E1C
:102160003046A8471948A8471948A8471948A8471A
:10217000194B1F60194B1E60A9E7012003B0BDE891
:10218000F08F0120FAE700BF511340000D404000DE
:1021900075104000C5104000D00A4020600A402061
:1021A000300B4020E00A4020E40A40206C0A402026
:1021B0007D0F40001111400004ED00E0811340004C
:1021C000610F4000E80A4020FC0A40201C0B402020
:1021D000480B4020340B4020640A4020680A40200D
:1021E000770F400010B582B01A4B01930023009383
:1021F0008222194919481A4CA047012804D0B0F18D
:10220000FF3F1CD002B010BD164B98470128F6D1F5
:102210004FF0800372B683F31188BFF36F8FBFF363
:102220004F8F62B64FF0FF320F4B1A6001220F4BF7
:102230001A6000220E4B1A600E4B9847E2E74FF0EF
:10224000800372B683F31188BFF36F8FBFF34F8F94
:1022500062B6FEE7100B4020586B4000651F40003F
:10226000F11F4000352B4000140B4020300B402064
:102270005C0B402001124000024A136801331360D6
:10228000704700BFDC0A4020014B1868704700BF50
:102290005C0B40202DE9F047414B1B68002B77D1A8
:1022A000404B1D6801351D60D5B93F4B1B681B684D
:1022B00053B14FF0800372B683F31188BFF36F8F71
:1022C000BFF34F8F62B6FEE7374A1168374B186885
:1022D00010601960364A136801331360354B984714
:1022E000354B1B689D4218D20024344B1B68DB6AB7
:1022F00003EB83039B00324AD358022B28BF0124EF
:10230000304B1B680BB9304B9847304B1B68002B88
:102310000CBF20460120BDE8F0870024DFF888903C
:10232000DFF8B4802A4F1FE04FF0FF32224B1A60D3
:10233000DBE7214A1360D8E706F11800C047F06ACE
:102340003A680123834013433B6000EB8000514611
:102350001B4B03EB80001F4B9847184B1B68F26A1E
:10236000DB6A9A4228BF0124D9F800301B68002B91
:10237000DAD0D9F80030DB68DE6873689D42D8D3C4
:1023800006F1040A5046C047B36A002BD4D1D6E701
:102390000C4A1368013313600B4B98470024B4E7D1
:1023A000DC0A40205C0B4020640A4020680A402080
:1023B000180B4020991E4000140B4020600A40205A
:1023C0006C0A4020D80A4020F5314000600B4020C4
:1023D000E40A40207D0F4000C90F4000364B1B68C7
:1023E00053B94FF0800372B683F31188BFF36F8F38
:1023F000BFF34F8F62B6FEE72DE9F0412F4B9847B0
:102400002D4B1A68013A1A601B68002B50D12C4BD7
:102410001B682BB900242B4B98472046BDE8F08160
:102420000024294F294E2A4D3B6803B3FB68DC6822
:1024300004F11800B04704F104084046B047E06AD0
:102440002A680123834013432B6000EB8000414640
:10245000204B03EB8000204B9847204B1B68E26A1F
:10246000DB6A9A42E0D301221D4B1A60DCE70CB113
:102470001C4B98471C4B1C686CB11C4F184E012517
:1024800001E0013C04D0B8470028FAD03560F8E7F5
:102490000022154B1A60124B1B685BB14FF0805243
:1024A000134B1A60BFF34F8FBFF36F8F0124B2E756
:1024B0000024B0E70024AEE7DC0A4020C51040004D
:1024C000D00A4020111140001C0B4020C90F4000D1
:1024D000E40A40206C0A40207D0F4000600A402042
:1024E000600B4020991E4000D80A402095224000F1
:1024F00004ED00E010B5B8B10446104B1B6853B1B1
:102500004FF0800372B683F31188BFF36F8FBFF370
:102510004F8F62B6FEE70A4B984700212046094BD1
:102520009847094B984738B94FF08052074B1A60CB
:10253000BFF34F8FBFF36F8F10BD00BFDC0A402089
:1025400079224000C51E4000DD23400004ED00E07C
:102550002D4B1B68002B2CD110B500222B4B1A6081
:102560002B4B1B681B6B1A68B2F1A53F03D15A684D
:10257000B2F1A53F21D0264B186819683431254B9C
:102580009847254B1B68B3FA83F3DBB2C3F11F03F3
:1025900003EB8302920021498A58BAB94FF08003B5
:1025A00072B683F31188BFF36F8FBFF34F8F62B69C
:1025B000FEE70122154B1A6070479A68B2F1A53FF9
:1025C000D9D1DB68B3F1A53FD5D1DAE7134A990039
:1025D000C81802EB800044686468446019440246ED
:1025E0000832944209D003EB83030C4A02EB8303C5
:1025F0005B68DA68064B1A6010BD6068074A02EB38
:1026000081025060EFE700BFDC0A4020600B4020F1
:10261000600A4020CD314000E40A40206C0A40208E
:1026200050B94FF0800372B683F31188BFF36F8FF8
:10263000BFF34F8F62B6FEE710B50C46044B196826
:102640001831044B984701212046034B984710BD91
:10265000600A4020950F4000C51E400038B578B193
:1026600014460D460C4B196818310C4B9847002C3A
:1026700021460CBF28464FF0FF30094B984738BD24
:102680004FF0800372B683F31188BFF36F8FBFF3EF
:102690004F8F62B6FEE700BF600A40207D0F40000A
:1026A000C51E400038B5C368DC6824B304F11805C2
:1026B00028461A4B98471A4B1B683BBB251D2846DA
:1026C000164B9847E06A174A1168012383400B4371
:1026D000136000EB80002946134B03EB8000134B83
:1026E0009847134B1B68E26ADB6A9A4213D90120B0
:1026F000104B186038BD4FF0800372B683F3118819
:10270000BFF36F8FBFF34F8F62B6FEE729460A48CB
:10271000064B9847E5E7002038BD00BFC90F4000D1
:10272000DC0A4020E40A40206C0A40207D0F400073
:10273000600A4020600B40201C0B4020034B1B68AC
:102740000360034B1B684360704700BF180B4020B9
:102750005C0B4020A8B170B50546E9B10C461D4B95
:1027600098471D4B1A6869682368B3F1FF3F2FD063
:102770001A4800682E68864219D08A4217D301246D
:102780001BE04FF0800372B683F31188BFF36F8FA5
:10279000BFF34F8F62B6FEE74FF0800372B683F34C
:1027A0001188BFF36F8FBFF34F8F62B6FEE7521AE7
:1027B0009A4206D3002323600124094B9847204600
:1027C00070BD9B1A23602846064B98470024F4E707
:1027D0000024F2E7C51040005C0B4020180B40209D
:1027E000111140003D2740000122014B1A60704743
:1027F000600B4020054B1B6833B1054B1B68002B59
:102800000CBF02200020704701207047300B402091
:10281000DC0A4020002850D038B50446C26A284956
:102820000968C96A8A423FD28169002905DB2449C7
:102830000968C96AC1F10501816102EB820221497F
:1028400001EB82026169914205D01D4A1268D26A89
:10285000E262012038BD251D28461B4B984770B900
:10286000E26A02EB82039B001649CB583BB917483A
:102870000368012101FA02F223EA02020260104B0E
:102880001B68D86AE062114A1168012404FA00F357
:102890000B43136000EB800029460A4B03EB8000DA
:1028A0000B4B9847204638BD054A1268806CD36AA6
:1028B00098422CBF0020012038BD0020704700BF87
:1028C000600A40206C0A4020C90F4000E40A402002
:1028D0007D0F400000284DD038B50446274A1268C5
:1028E00090420AD04FF0800372B683F31188BFF391
:1028F0006F8FBFF34F8F62B6FEE7C26C52B94FF0D5
:10290000800372B683F31188BFF36F8FBFF34F8FCD
:1029100062B6FEE7013AC264C06AA16C88422BD05D
:1029200052BB251D2846164B984768B9E16A01EB52
:1029300081039B00134AD35833B91348036801221B
:102940008A4023EA02030360A06CE062C0F1050341
:10295000A3610D4A1168012404FA00F30B431360CC
:1029600000EB80002946074B03EB8000074B98479C
:10297000204638BD00207047002038BD600A402046
:10298000C90F40006C0A4020E40A40207D0F40003F
:10299000002858D038B50446C06C50B94FF08003B9
:1029A00072B683F31188BFF36F8FBFF34F8F62B698
:1029B000FEE7A26C8A4238BF0A46E16A012841D18B
:1029C00091423FD02048006884420AD14FF08003F2
:1029D00072B683F31188BFF36F8FBFF34F8F62B668
:1029E000FEE7E262A069002802DBC2F10502A261F3
:1029F00001EB8101154A02EB810162698A4221D112
:102A0000251D2846124B984768B9E16A01EB8103FE
:102A10009B000E4AD35833B90E48036801228A40FE
:102A200023EA02030360E06A0A4A11680123834033
:102A30000B43136000EB80002946044B03EB80003E
:102A4000054B984738BD7047600A40206C0A40200B
:102A5000C90F4000E40A40207D0F4000054B1B6871
:102A600023B1044B1A68D36C0133D364014B18684B
:102A7000704700BF600A402008B541600061914284
:102A80000CD8D21A83699A4201D3012008BD011DD6
:102A9000094B1868094B9847002008BD9A4203D299
:102AA000994201D3012008BD011D054B1868034B55
:102AB0009847002008BD00BF680B4020950F4000DC
:102AC000640B402070B5104B9847104B1B6813B136
:102AD0000F4B984770BD0F4D28460F4EB0470F4C17
:102AE0002046B0470E4B1D600E4B1C60002210218B
:102AF00005200D4B9847054B18600028E8D00B497E
:102B00000B4B9847E4E700BFC5104000980B4020EE
:102B1000111140006C0B4020610F4000800B4020E1
:102B2000640B4020680B402031164000606B400071
:102B3000011E400010B582B00E4B98470E4B1B682B
:102B40006BB10E4B01930423009300234FF4827268
:102B50000B490C480C4CA04708B102B010BD4FF017
:102B6000800372B683F31188BFF36F8FBFF34F8F6B
:102B700062B6FEE7C52A4000980B40209C0B40201F
:102B8000686B4000B52C4000F11F4000D8B130B553
:102B900085B015460446154A106820B31A460091C0
:102BA00001950294052919DC114B984702284FF032
:102BB00000030CBF089A1A4669460C4800680D4C81
:102BC000A04705B030BD4FF0800372B683F3118883
:102BD000BFF36F8FBFF34F8F62B6FEE700236946E6
:102BE000054CA047EDE70020EBE700BF980B402025
:102BF000F52740008D1640007D1840002DE9F04774
:102C000082B08046244B98470746244B1B68984265
:102C10001BD30023C8F80030204B1F60384602B099
:102C2000BDE8F087002100910B46524620461C4C1F
:102C3000A04760B94FF0800372B683F31188BFF3E9
:102C40006F8FBFF34F8F62B6FEE7164D164E2B689F
:102C50001A68C2B1DB68D3F800A0DC6804F104098B
:102C60004846B047636A20469847E369012BEED196
:102C7000A36953449A45D5D26360246149462868C4
:102C80000A4B9847E3E70A4A106806490860136050
:102C90000123C8F80030BFE789224000940B402090
:102CA0008D2B4000640B4020C90F4000950F400061
:102CB000680B40202DE9F04788B0754E754FDFF85E
:102CC000FC91DFF8FC8133681A68002A00F0CE809E
:102CD000DB681C68B84704A86F4B98470546049BFF
:102CE000002B44D1A04212D20022611B6B4B18680A
:102CF0006B4B98476B4B984700283AD14FF0805365
:102D0000C9F80030BFF34F8FBFF36F8F31E0654BD1
:102D100098473368DB68D3F80CA00AF10400C04779
:102D2000DAF81C30012B04D0DAF8243050469847EA
:102D30001FE0DAF8181023462A46214450465A4D1F
:102D4000A8470028F0D0002100910B4622465046AB
:102D5000564CA0470028E7D14FF0800372B683F3AA
:102D60001188BFF36F8FBFF34F8F62B6FEE74D4BF5
:102D700098474A4D4E4C06E007990698059B9847A0
:102D8000049B002B08DA002204A92868A047002829
:102D900099D0049B002BEFDBDDF818A0DAF8143093
:102DA00013B10AF10400C04703A83B4B9847049BAA
:102DB000092BE8D801A252F823F000BFE52D40000E
:102DC000E52D4000E52D4000872D4000392E4000C4
:102DD000652E4000E52D4000E52D4000872D400088
:102DE000392E4000059CDAF818102346024621448B
:102DF00050462D4CA0470028BCD0DAF8243050466D
:102E00009847DAF81C30012BB4D1DAF818200021E9
:102E100000910B46059802445046244CA0470028D8
:102E2000A8D14FF0800372B683F31188BFF36F8F80
:102E3000BFF34F8F62B6FEE70599CAF8181031B19B
:102E40000346024601445046174CA04792E74FF014
:102E5000800372B683F31188BFF36F8FBFF34F8F78
:102E600062B6FEE75046134B984783E7B84704A87D
:102E7000094B98470546049B002B7FF478AF0E4B17
:102E80001B681A68B2FA82F2520900242DE700BFCB
:102E9000640B402079224000FD2B4000980B40201D
:102EA000351E4000DD234000792A40008D2B400074
:102EB000751A400081134000680B402004ED00E0CB
:102EC000C90F400030B583B002AC002344F8043D84
:102ED0000548064DA8472146054B1868054B9847FD
:102EE0000548A84703B030BD706B40003139400041
:102EF000240C402091194000806B400030B583B015
:102F000002AC002344F8043D0548064DA84721467D
:102F1000054B1868054B98470548A84703B030BDD6
:102F2000906B4000313940002C0C4020911940003A
:102F3000806B400030B583B002AC002344F8043D00
:102F40000548064DA8472146054B1868054B98478C
:102F50000548A84703B030BDA06B400031394000A0
:102F6000200C402091194000806B4000F0B583B0E8
:102F700005460C46002301932A4B984213D02A4B56
:102F8000984218D0294B98421DD0294B9D4222D0FF
:102F9000284B9D4227D0284B9D422ED0274B9D4247
:102FA00035D003B0F0BD1F46254E21463846B04708
:102FB0000028FAD1E9E71F46214E21463846B0479E
:102FC0000028FAD1E4E71F461D4E21463846B04797
:102FD0000028FAD1DFE71F46194E21463846B04790
:102FE0000028FAD1DAE71E46164D01A93046A84757
:102FF0000028FAD1019B2370D3E71E46114D01A989
:103000003046A8470028FAD1019B2370C9E71E4625
:103010000C4D01A93046A8470028FAD1019B237026
:10302000BFE700BF00080E40000A0E40001A0E4025
:10303000001C0E40004002400080024000C00240E0
:10304000830B4000970C400070B50C462A4B984209
:1030500013D02A4B984219D0294B98421FD0294BA4
:10306000984225D0284B98422BD0284B984231D0FB
:10307000274B984237D0002070BD1E46254D214673
:103080003046A8470028FAD1012070BD1E46214DC8
:1030900021463046A8470028FAD1012070BD1E46BF
:1030A0001C4D21463046A8470028FAD1012070BDAA
:1030B0001E46184D21463046A8470028FAD1012067
:1030C00070BD1E46144D21463046A8470028FAD14F
:1030D000012070BD1E46104D21463046A8470028ED
:1030E000FAD1012070BD1E460B4D21463046A8473F
:1030F0000028FAD1012070BD00080E40000A0E40E1
:10310000001A0E40001C0E400040024000800240A9
:1031100000C00240710B4000810C40002DE9F041DD
:103120008AB00026124D134CDFF858800EE00AAB2F
:103130003344002603F8246C40460F4B984733462F
:10314000324601A90D4800680D4FB84764220DF1C1
:1031500027012868A0470028F8D09DF827300A2BBF
:10316000E5D00AAA324402F8243C0136EEE700BF5B
:10317000280C4020751A400031394000300C4020A6
:103180008D164000CC6D40002DE9F0410B4FDFF86B
:1031900038800B4D02E040F6B830A84705240126E0
:1031A00031463846C047C820A84731463846054B07
:1031B0009847C820A847013CF2D1ECE7000E0E402A
:1031C000F5244000650440006904400008B50A4643
:1031D00001460248024B9847FEE700BFDC6D400005
:1031E0003139400008B50220014B984708BD00BFA7
:1031F000FD08400070474FF0800372B683F31188DA
:10320000BFF36F8FBFF34F8F62B6FEE738B504464A
:103210001546064B984720B929462046044B984747
:1032200038BD29462046034B984738BD6D04400001
:10323000650440006904400080B588B0404E414FAD
:1032400005E04FF480720C2130463F4B98473F4DCC
:103250003F4C642269462868A0470028F9D03D48C1
:103260003D4B98473D4968463D4B98470028E8D07C
:103270003C4968463A4B9847002834D03A4968465A
:10328000374B9847002834D038496846344B984724
:10329000002835D036496846314B9847002835D04C
:1032A000344968462E4B9847002834D03249684646
:1032B0002B4B9847002834D030496846284B984714
:1032C000002833D02E496846254B9847002832D035
:1032D0002C496846224B98470028B8D104212A4837
:1032E0002A4B9847B3E701220A213846164B9847E4
:1032F000ADE74FF080420C213046134B9847A6E7CC
:1033000004220B212048104B9847A0E701213846A2
:103310001E4B98479BE74FF0804130461C4B984727
:1033200095E7042118481A4B984790E7042116485E
:10333000164B98478BE704211348154B984786E7AF
:1033400000120E40000E0E400D324000300C4020A6
:10335000751A40000C6D400031394000286D400066
:10336000A9424000386D4000486D4000586D400053
:10337000686D4000746D4000806D40008C6D4000B1
:10338000986D4000A46D400000100E40690440009C
:103390006504400080B582B00322002101201D4B4E
:1033A00098471D4D28600A201C4B98471C4C012350
:1033B0004FF400224FF0205120461A4EB0471A4BCE
:1033C000009350234FF400220A212046174EB047A5
:1033D0004FF400212046164B9847164B4FF480625D
:1033E0001A60802283F80A232B6813B91248134B02
:1033F0009847094E124D134F4FF4FA742146306826
:10340000A8470128FAD104220B2138460E4B9847D1
:10341000F2E700BF31164000200C40208D0840002C
:10342000000E0E4079054000352F400099064000FF
:103430003B06400000E100E0B06D40003139400043
:103440000D1C400000100E400D32400080B582B0CF
:103450000322002101201D4B98471D4D28600C20A0
:103460001C4B98471C4C01234FF000424FF0205159
:1034700020461A4EB0471A4B009350234FF000429B
:103480000C212046174EB0474FF000412046164B06
:103490009847164B4FF480521A60802283F80C2311
:1034A0002B6813B91248134B9847094E124D0A4F17
:1034B0004FF4FA7421463068A8470128FAD14FF03A
:1034C00080420C2138460D4B9847F1E731164000F9
:1034D0002C0C40208D08400000120E407905400061
:1034E000FD2E4000990640003B06400000E100E050
:1034F000B06D4000313940000D1C40000D324000DD
:1035000080B582B00322002101201D4B98471D4D3C
:10351000286010201C4B98471C4C01234FF0805210
:103520004FF0205120461A4EB0471A4B00935023BB
:103530004FF0805210212046174EB0474FF0805177
:103540002046164B9847164B4FF480321A60802263
:1035500083F810232B6813B91248134B9847094E70
:10356000124D134F4FF4FA7421463068A8470128D2
:10357000FAD14FF480720C2138460E4B9847F1E790
:1035800031164000240C40208D08400000140E40ED
:1035900079054000C52E4000990640003B064000DA
:1035A00000E100E0B06D4000313940000D1C4000EA
:1035B00000120E400D32400070B582B00A200E4E4F
:1035C000B047002400942346224601210B480C4DAD
:1035D000A8470C20B0470094234622464FF0804174
:1035E0000848A8470B20B0470094234622460421F0
:1035F0000548A84702B070BD8D084000000E0E407F
:103600004F05400000120E4000100E4070B582B011
:103610000E480F4B984710F0010F01D102B070BD5A
:1036200002AC002344F8083D084E0A4D21463046BE
:10363000A8470028FAD102A9009B01F8013D002308
:103640001A4605480068054CA047E7E7008002409D
:103650007D0C4000970C4000280C40207D18400055
:103660002DE9F04F89B0002201212020684CA047AD
:10367000684B1860002220210520A047664B186087
:10368000664B9847664B9847664B98470B20DFF888
:103690003C82C0470A20C04710224FF000516248C8
:1036A000624CA0474FF400124FF000616048A04701
:1036B000604AD2F8143143F01003C2F814310E20DE
:1036C000C0475D4B5D4A1A605D4E5E4F37605E4D90
:1036D0005E4B2B604FF4E1330293C02303934FF40E
:1036E000006304930024059406940E20C047584AB2
:1036F00002A95248574B98475048DFF8D491C84721
:103700004E48DFF8D081C047DFF8CCB1DBF800309D
:1037100021469868DFF8C4A1D047DBF80030214685
:103720005868D0474548C8474448C0473760474B6A
:103730002B6001214148484B9847484B802283F831
:103740000E234FF480421A604548464DA84746492B
:103750004648A847464A47494748A8470194009425
:1037600023464FF4807245494548464CA0470128FE
:1037700001D04548A8470023019300934FF480727D
:10378000424943483F4CA047012802D04148354BAD
:1037900098470023019300934FF480723E493F48BD
:1037A000384CA047012802D03D482E4B98470023B3
:1037B000019300934FF480723A493B48314CA04743
:1037C000012802D03948274B9847002301930093E2
:1037D0004FF48072364937482A4CA047012802D05E
:1037E0003548204B98470023019300934FF4807293
:1037F00032493348234CA047012802D03148194BA5
:103800009847314B9847002009B0BDE8F08F00BFC2
:1038100031164000280C4020300C4020D5014000DB
:10382000D1024000B935400000100E40870440002E
:10383000000E0E4000800840DC0B4020008002405B
:10384000D80B402049304000D40B40206D2F400061
:1038500080D1F008190C4000790C400000E100E034
:10386000B06B400031394000CC6B4000D86B400059
:10387000E06B4000EC6B4000F86B4000106C4000C7
:1038800001354000F11F4000146C4000386C4000CE
:1038900089314000406C4000646C40004D34400071
:1038A0006C6C4000906C400095334000986C400078
:1038B000BC6C40001D314000C46C4000E46C400012
:1038C00039324000EC6C4000E52140008D0840009A
:1038D0006D0C4000730C40000C004020E54040009F
:1038E00070B50F4E0F4D761BB61018BF002405D0D3
:1038F000013455F8043B9847A642F9D10A4E0B4DC6
:10390000761B03F02BFBB61018BF002406D0013441
:1039100055F8043B9847A642F9D170BD70BD00BF71
:10392000686F4000686F4000706F4000686F400033
:103930000FB400B5074983B004AB086853F8042BF3
:103940008168019300F0CAFE03B05DF804EB04B097
:10395000704700BF0C004020024B0146186800F081
:103960000BB800BF0C004020024B0146186801F064
:10397000D1BF00BF0C0040202DE9F04F01F10B0634
:10398000162E83B0054640F29E8036F0070600F101
:10399000BD80B14200F2BA8000F086FBB6F5FC7F34
:1039A000C0F09382730A00F0B880042B00F2798192
:1039B000B30903F1390003F1380EC300BF4F3B4494
:1039C000A3F108015C68A14206D10CE0002A80F254
:1039D000AA80E468A14206D0636823F003039A1B1F
:1039E0000F2AF3DD70463C69DFF8E4E2744500F02D
:1039F000AB81636823F003039A1B0F2A00F39081C5
:103A0000002AC7F814E0C7F810E080F29D80B3F5F3
:103A1000007F80F06181DB0803F1010C99107A6866
:103A200057F83C80C4F8088001238B4007EBCC0199
:103A300013430839E1607B6047F83C40C8F80C400C
:103A40008210012494409C4200F28B801C4206D1DB
:103A500020F0030064001C4200F10400FAD007EBE0
:103A6000C009CC468046DCF80C309C4507D16DE19E
:103A7000002A80F27B81DB689C4500F067815968F1
:103A800021F003018A1B0F2AF2DDD3F80CC0D3F812
:103A9000088000939C19284646F0010642F0010573
:103AA0005E60C8F80CC0CCF808807C613C61C4F84A
:103AB0000CE0C4F808E065605A5000F0FBFA009B87
:103AC00003F108041EE0102920D800F0EDFA1026BA
:103AD00018230220794F3B44A3F108025C6894420A
:103AE00000F03D816368E168A66823F00303234486
:103AF00028465A68F16042F001028E605A6000F078
:103B0000D9FA0834204603B0BDE8F08F00240C2316
:103B100020462B6003B0BDE8F08F40204FF40073C7
:103B20004FF03F0E4AE72344E1685A68A66842F026
:103B30000102F16028468E605A6000F0BBFA08343A
:103B4000204603B0BDE8F08F234428465A6842F06F
:103B500001025A6000F0AEFA0834204603B0BDE816
:103B6000F08FBC68636823F00308B04504D3A8EB6A
:103B700006030F2B00F38580DFF85891504BD9F8DE
:103B800000201B680132334404EB080A00F0558121
:103B900003F580530F3323F47F6B2BF00F0B594643
:103BA000284600F08DFA411C024600F0FC80824558
:103BB00000F2F780434B19685944196000F04D81B9
:103BC000D9F8000001301BBFA2EB0A0A5144C9F822
:103BD0000020196012F0070100F01581C1F1080002
:103BE000C1F580510244083102EB0B09C9F30B09FE
:103BF000A1EB0909494628460193009200F060FABA
:103C0000431C9DE80C0000F04381801A484440F0BA
:103C100001001968BA604944BC425060196017D06D
:103C2000B8F10F0F40F2FB806068A8F10C0222F09F
:103C3000070204EB020E00F001004FF0050C1043E8
:103C40000F2A6060CEF804C0CEF808C000F21781D9
:103C50001D4BBC681A68914288BF19601B4B1A68DB
:103C60009142626888BF196022F003029642A2EB7B
:103C7000060301D80F2B04DC284600F01BFA0024B1
:103C800040E7A21943F0010346F0010666602846AA
:103C9000BA60536000F00EFA0834204603B0BDE865
:103CA000F08F142B71D9542B00F2A380330B03F146
:103CB0006F0003F16E0EC30080E600BF38044020A1
:103CC000D00B4020A00B4020C80B4020CC0B402044
:103CD00040044020400840205A0A042A5BD9142A94
:103CE00000F2AE8002F15C01C9005B3207EB010C0F
:103CF0007958ACF1080C8C4500F088804A6822F0B5
:103D00000302934273D289688C45F7D1DCF80C200A
:103D10007B68E260C4F808C09460CCF80C408FE681
:103D2000A11946F0010C42F00106C4F804C028466F
:103D300079613961C1F80CE0C1F808E04E60E250E9
:103D400000F0B8F90834DDE67B6879E608F101088F
:103D500018F0030F0CF1080C7FF485AE2DE0DC6841
:103D6000A34208BF02303FF43EAEBBE619441C46F6
:103D70004A68DB6854F8086F42F001024A6028463E
:103D8000F3609E6000F096F9BCE603F15C0003F17D
:103D90005B0EC30012E69A0902F13901C9003832FC
:103DA000A4E7BC4254D0BC68626822F003025DE71D
:103DB00059F80839994540F0868010F0030F00F15A
:103DC000FF30F5D17B6823EA04037B6064009C42EA
:103DD0003FF6C7AE002C3FF4C4AE1C4240467FF411
:103DE0003EAE64001C4200F10400FAD037E68C4677
:103DF0008CE7B3F5AA7F15D8F30B03F1780003F134
:103E0000770EC300DAE54FF48051EDE67B6892103F
:103E1000012101FA02F213437B60624679E7012334
:103E2000536029E740F25452934222D8B30C03F175
:103E30007D0003F17C0EC300C0E503F1100BAEE67C
:103E4000542A29D81A0B02F16F01C9006E324DE7CE
:103E5000204B196859441960B2E6CAF30B000028D8
:103E60007FF4AEAE08EB0B03BA6843F00103536076
:103E7000EEE67F204FF47E734FF07E0E9EE504F158
:103E800008012846009301F045FD009B1968DFE614
:103E900001204FF00009BCE6B2F5AA7F05D8DA0B85
:103EA00002F17801C900773220E740F254518A428A
:103EB00005D89A0C02F17D01C9007C3216E74FF457
:103EC0007E717E2212E77B6880E7F00806F1080326
:103ED00000E600BFA00B4020844641EA000313F037
:103EE00003036DD1403A41D351F8043B40F8043B01
:103EF00051F8043B40F8043B51F8043B40F8043BC4
:103F000051F8043B40F8043B51F8043B40F8043BB3
:103F100051F8043B40F8043B51F8043B40F8043BA3
:103F200051F8043B40F8043B51F8043B40F8043B93
:103F300051F8043B40F8043B51F8043B40F8043B83
:103F400051F8043B40F8043B51F8043B40F8043B73
:103F500051F8043B40F8043B51F8043B40F8043B63
:103F600051F8043B40F8043B403ABDD2303211D303
:103F700051F8043B40F8043B51F8043B40F8043B43
:103F800051F8043B40F8043B51F8043B40F8043B33
:103F9000103AEDD20C3205D351F8043B40F8043B03
:103FA000043AF9D2043208D0D2071CBF11F8013B01
:103FB00000F8013B01D30B8803806046704700BFC7
:103FC000082A13D38B078DD010F003038AD0C3F1D6
:103FD0000403D21ADB071CBF11F8013B00F8013BB8
:103FE00080D331F8023B20F8023B7BE7043AD9D377
:103FF000013A11F8013B00F8013BF9D20B7803704C
:104000004B7843708B7883706046704770B4860736
:1040100046D0541E002A41D0CAB2034602E014F131
:10402000FF343BD303F8012B9D07F8D1032C2ED985
:10403000CDB245EA05250F2C45EA054519D903F10E
:1040400010022646103E0F2E42F8105C42F80C5C1F
:1040500042F8085C42F8045C02F11002F2D8A4F1C4
:10406000100222F00F0204F00F041032032C13444C
:104070000DD91E462246043A032A46F8045BFAD8B4
:10408000221F22F003020432134404F003042CB173
:10409000C9B21C4403F8011B9C42FBD170BC7047A1
:1040A00014460346C2E700BF014801F0CDBE00BF81
:1040B000440C4020014801F0C9BE00BF440C402020
:1040C00038B5074C0023054608462360FCF720FF5F
:1040D000431C00D038BD2368002BFBD02B6038BDBB
:1040E000580C402000290CBF022200224FF48063AC
:1040F00000F000B82DE9F043614C256883B0044618
:104100000F4690461E4615B1AB6B002B64D0B8F13C
:10411000020F06D0B8F1010F00F29F80002EC0F20E
:104120009C80636ED80734D52146284601F074FA86
:10413000216B41B104F14003994202D0284601F0BD
:10414000E9FB00232363B4F90C300022A261626012
:104150001A063AD423F44A6323F00303B8F1020F9A
:10416000A3811DD001AB6A462146284601F070FEAE
:10417000A3891843A081002E32D1009E3046FFF75C
:10418000EBFB074600286BD0A38943F08003A38193
:1041900028E0A3899905C7D4A06D01F055FEC3E7B7
:1041A0000025616E002604F1430243F00203012062
:1041B000A660CE07A38122602261606101D49805C8
:1041C0003ED5284603B0BDE8F0832169284601F0BA
:1041D000A1FBB4F90C30BDE7284601F075FA96E76B
:1041E000002FCBD0AB6B002B33D0009BB4F90C204D
:1041F00027609E421CBF42F40062A281B8F1010F09
:1042000004BF42F00102A28192B212F008032761BA
:1042100066610ED0D1071AD5656E7642002315F07F
:104220000105A661A36009D00025284603B0BDE8BA
:10423000F083A360656E15F00105F5D19305C0D438
:10424000A06D01F003FE284603B0BDE8F083A66030
:10425000F0E7284601F038FAC7E74FF0FF35B0E73E
:10426000DDF80090B14504D04846FFF775FB0746DE
:1042700020B9B4F90C304FF0FF3592E74E4683E792
:104280000C004020000000000000000000000000C2
:10429000000000000000000000000000000000001E
:1042A000A2EB0300704700BF02780B78012A28BFF9
:1042B0009A42F5D16DE9044540EA0104CDE902676F
:1042C0006FF0000C4FEA447212B380EA010414F05C
:1042D000070F6AD100F0070420F0070004F003057F
:1042E00021F007014FEAC505F0E8042314F0040F9C
:1042F000F1E804670CFA05F462EA040266EA0406CF
:104300000AD063EA0403624667EA0407664603E0EC
:10431000F0E80423F1E8046782FA4CF582EA060427
:10432000A4FA8CF46CBB83FA4CF583EA0705A5FA72
:104330008CF595B950E9022351E9026782FA4CF5F0
:1043400082EA0604A4FA8CF483FA4CF583EA0705A2
:10435000A5FA8CF52543DBD09CB92DBAB5FA85F4C6
:1043600024F0070427FA04F1DDE9026723FA04F3D5
:1043700003F0FF0001F0FF01FDE80445A0EB0100A0
:10438000704724BAB4FA84F424F0070426FA04F13E
:10439000DDE9026722FA04F202F0FF0001F0FF01FA
:1043A000FDE80445A0EB0100704714F0030F3CD179
:1043B00010F0030428D150F8082B51F8083B82FA7A
:1043C0004CF582EA0305A5FA8CF55DB950F8042C8A
:1043D00051F8043C82FA4CF582EA0305A5FA8CF503
:1043E000002DE8D02DBAB5FA85F424F0070423FA9D
:1043F00004F122FA04F202F0FF0001F0FF01FDE8EF
:104400000445A0EB010070474FEAC40420F003000C
:1044100050F8082B21F0030151F8083B0CFA04F482
:1044200062EA040263EA0403C9E710F003041AD045
:10443000A1EB040120F00300E40750F8042B06D0A0
:104440000FD28B785FFAA2F4E41A06D12BB1CB78A5
:104450005FFAB2F4E41A00D11BB920465DF8104BA4
:10446000704701F1040150F8042BCC0721F003013F
:1044700051F8043B48D824D222F07F4482FA4CF50C
:1044800094EA1325A5FA8CF50AD165B951F8043BD5
:1044900084EA0204B4EB036F0ED150F8042BEBE76F
:1044A0004FEA132355E035F07F454DD10878FDE8FC
:1044B0000445C0F1000070474FEA126203F0FF03A9
:1044C00047E002EA1C4482FA4CF594EA1345A5FA47
:1044D0008CF50AD165B951F8043B84EA0204B4EBC7
:1044E000034F0CD150F8042BEBE74FEA134330E0B5
:1044F00015EA1C4528D10B884FEA124229E04FEA01
:10450000124203EA1C4324E002F0FF0482FA4CF555
:1045100094EA1365A5FA8CF50AD165B951F8043B04
:1045200084EA0204B4EB032F09D150F8042BEBE723
:104530004FEA13630DE015F0FF0F05D10B684FEA4A
:10454000122223F07F4304E04FF00000FDE8044511
:10455000704712BA1BBA82FA4CF482EA0304A4FA36
:104560008CF5B5FA85F402FA04F203FA04F34FEA83
:104570001260FDE80445A0EB1360704700000000E6
:1045800090F800F06DE9024520F007016FF0000C93
:1045900010F0070491F820F040F049804FF000043B
:1045A0006FF00700D1E9002391F840F000F1080016
:1045B00082FA4CF2A4FA8CF283FA4CF3A2FA8CF34E
:1045C0004BBBD1E9022382FA4CF200F10800A4FAB5
:1045D0008CF283FA4CF3A2FA8CF3E3B9D1E9042309
:1045E00082FA4CF200F10800A4FA8CF283FA4CF340
:1045F000A2FA8CF37BB9D1E9062301F1200182FAFA
:104600004CF200F10800A4FA8CF283FA4CF3A2FAFF
:104610008CF3002BC6D0002A04BF04301A4612BA0D
:10462000B2FA82F2FDE8024500EBD2007047D1E910
:10463000002304F00305C4F100004FEAC50514F09F
:10464000040F91F840F00CFA05F562EA05021CBF70
:1046500063EA050362464FF00004A9E72DE9F84F2D
:104660004B6E9C0493462FD59368126853B30E4645
:10467000074602F1080919E920045FEA9A0817D0F1
:10468000043D002401E0A04510D0324655F8041F37
:10469000384601F0BBF8431C04F10104F3D10023B8
:1046A000CBF80830CBF80430BDE8F88FDBF80830E1
:1046B0002AF0030AA3EB0A03CBF8083009F1080932
:1046C000002BD8D10020EAE701F00AFA0023CBF84A
:1046D0000830CBF80430BDE8F88F00BF2DE9F04F6B
:1046E000ADB01D468B4690460793069018B1836B7C
:1046F000002B00F0F380DBF86430BBF90C00DF071F
:1047000081B202D48E0540F1FC808C040AD4DBF81F
:10471000643040F4005123F40053ABF80C10CBF894
:10472000643089B2080740F1B380DBF81030002B09
:1047300000F0AE8001F01A030A2B00F0B5800023D0
:104740000DF170090B93119310930393CDF83C90E6
:10475000CA46CDF810B098F800304446FBB1252B7E
:1047600002D11CE0252B03D014F8013F002BF9D116
:10477000A4EB08059DB1109B119ACAF80080013383
:104780002A44072BCAF80450119210937ADD002AAC
:1047900040F0B084039B10922B44CA4603932378C5
:1047A000002B00F0E08300204FF000038DF837303D
:1047B00004F1010862780546064603464FF0FF34CF
:1047C00008F10108A2F12001582900F2DE82DFE899
:1047D00011F02102DC02DC022902DC02DC02DC0234
:1047E000DC02DC02DC0289029502DC02A200BD02CE
:1047F000DC029F01A401A401A401A401A401A4015D
:10480000A401A401A401DC02DC02DC02DC02DC0263
:10481000DC02DC02DC02DC02DC02B201DC02DC02D3
:10482000DC02DC02DC02DC02DC02DC02DC02DC0298
:104830009701DC02DC02DC02DC02DC029B01DC0210
:10484000DC025302DC02DC02DC02DC02DC02DC0201
:10485000DC02DC02DC02DC025A021B02DC02DC02AB
:10486000DC026E021B02DC02DC027302DC02F501D8
:1048700082010902D702DC029A02DC02A700DC02F4
:10488000DC022E020AF1080A039B2B44039386E7FD
:104890005946069800F0ACFD18BBBBF80C1001F0AF
:1048A0001A030A2B7FF44BAFBBF90E30002BFFF637
:1048B00046AFDBF86430DB0705D48F0503D4DBF8A3
:1048C000580001F0C3FA2B4642465946069800F0BC
:1048D0004DFD039003982DB0BDE8F08F00F0F4FE7D
:1048E00009E7DBF86430D90704D4BBF80C309A052B
:1048F00040F1AA844FF0FF33039303982DB0BDE835
:10490000F08FDBF8580001F09FFABBF90C0081B280
:10491000FBE67642079243F0040398F800204FE745
:1049200008969E0600F150840799DD060A4600F1BC
:10493000EF83580640F1EC830E88043100270122F2
:1049400007914FF000018DF837100025611C00F031
:10495000168123F08001029156EA070140F014818C
:10496000002C40F05C83002A40F0B78313F0010371
:10497000059300F057840DF1B00B30230BF8413D47
:10498000059BA342B8BF234601930DB101330193A8
:10499000029B13F00203099302D0019B023301939F
:1049A000029B13F084030A9340F01782089B019A3C
:1049B0009D1A002D40F31182102D40F39084109B1E
:1049C000119AC44ED6461027A2461946069C07E007
:1049D00001F1020C0EF1080E0146103D102D11DD03
:1049E000481C1032072811928EE8C0001090EFDDAD
:1049F000002A40F0E481103D102D11464FF0010CCB
:104A0000CE46EDDC54466146F2462A44072911920F
:104A1000CAF80060CAF80450109100F3EC829DF8C7
:104A200037500AF1080A481C002D40F0DE81099B2E
:104A3000002B00F0F88102320EA902230728119200
:104A400010908AE80A0040F3EA81002A40F08C8343
:104A50000A9B802B4FF001001146CA4640F0E781C7
:104A6000089B019D5E1B002E40F3E181102E9A4DA4
:104A700040F35084D4461027A246069C07E001F17B
:104A8000020E0CF1080C0146103E102E11DD481CE0
:104A90001032072811928CE8A0001090EFDD002A58
:104AA00040F09D82103E102E4FF0010E1146CC4674
:104AB000EDDC5446E2463244BEF1070F11928AE81B
:104AC0006000CDF840E000F369830AF1080A0EF1B6
:104AD00001007146ABE1089613F0200240F08C8390
:104AE00013F0100140F01A8313F0400200F0168317
:104AF00007980A460146043106880791002720E7F7
:104B0000089643F01003E7E7089643F0100308E720
:104B100043F0800398F8002052E6A2F1300100260D
:104B200018F8012B06EB860601EB4606A2F13001D0
:104B30000929F5D946E60896002840F0088443F094
:104B400010039E0600F14C83DD0600F1F382580647
:104B500040F1F082079DB5F900602A46F71704324C
:104B6000304639460792002871F10002C0F25D8399
:104B7000611C9DF837504FF001027FF4EAAE56EA0F
:104B8000070100F04D820293012A00F08C82022A74
:104B900040F05C820B98CB46330906F00F0143EAE4
:104BA00007733A091E461746435C0BF8013D56EA67
:104BB0000703F1D1A9EB0B030593E1E6002840F0D0
:104BC000C083990600F16783DA0600F1F1805B0685
:104BD00040F1EE80079A136804320792BDF80C206A
:104BE0001A80B8E507983D4A08960B920668782225
:104BF000302104308DF8392043F00203079000275C
:104C00008DF8381002229CE60896002899D08DF87D
:104C1000375096E798F80020002D7FF4D1AD0120A1
:104C20002025CDE543F0010398F80020C8E508965B
:104C3000002840F0938329490B919F0600F1E882F8
:104C40000798DE06014600F170825D0640F16D8234
:104C50000431068807910027D80740F1228256EADE
:104C6000070100F01E8230218DF8392043F0020345
:104C70008DF83810022264E60896002840F06B8315
:104C800017490B91D9E7079908960A688DF84820CB
:104C90004FF000000A468DF83700043201200190E1
:104CA000079205900DF1480B0293002470E643F043
:104CB000400398F8002083E598F800206C2A03BF91
:104CC00098F8012043F0200308F1010843F0100395
:104CD00076E500BF286E4000386E40000C6E400044
:104CE000F86D400007990E680A46002E02F1040292
:104CF000FFF60FAE079298F8002061E598F80020C3
:104D000001202B255CE507990896D1F800B04FF0FB
:104D100000028DF837200E1DBBF1000F00F0E58278
:104D2000671C00F0C482224600215846019301F01E
:104D30001FF9019B002800F0E582A0EB0B02059211
:104D4000079602939DF83750002419E698F8002042
:104D50002A2A08F1010700F0E982A2F130010929AD
:104D6000B8464FF000043FF62DAD18F8012B04EBC8
:104D7000840401EB4404A2F130010929F5D921E5AD
:104D800043F0200398F800201AE50896002840F028
:104D9000DB82002A00F0E78001218DF848204FF0E7
:104DA000000201918DF8372005910DF1480B7BE74A
:104DB000079A136804320792039A1A60CBE40FAA89
:104DC00004992046FFF74AFC002840F039811099E9
:104DD000119A01F1010CCE46FFE51099119A481C79
:104DE0009DF83750002D3FF422AE01320DF137050A
:104DF0000121072811921090CAF80050CAF8041037
:104E000040F30881002A40F0BC81099B002B3FF44D
:104E10001FAE0EAB022208461C931D92CA460146E5
:104E20000AF1080A01300A9B802B3FF419AE059B5A
:104E3000E41A002C2EDD102CB34D1EDDD6461026B4
:104E4000069FDDF810A006E0881C0EF1080E19463A
:104E5000103C102C10DD4B1C1032072B11928EE8E9
:104E600060001093F0DD002A65D1103C102C4FF04B
:104E700001001146CE46EEDCF2462244072811928C
:104E8000CAF80050CAF80440109000F385800AF177
:104E9000080A01300599CAF800B00A44072811929F
:104EA000CAF80410109040F38280002A40F0188164
:104EB000029B1092580735D5089B01995C1A002C6B
:104EC00040F3E780CA46102C40F3188210998F4EA9
:104ED000069FDDF810B0102506E0881C0AF1080ACC
:104EE0001946103C102C11DD4B1C1032072B11926F
:104EF000CAF80060CAF804501093EEDD42BB103CC3
:104F0000102C4FF001001146CA46EDDC2244072860
:104F10001192CAF80060CAF80440109051DD002ACE
:104F200040F09B81039B089A01998A42ACBF9B1871
:104F30005B1803934EE00FAA51463846FFF78EFBED
:104F4000002840F03F811099119A481CCE467FE717
:104F50000FAA59463846FFF781FB60B91099119A9C
:104F6000481CCA46BDE7119BDDF810B0002B40F08D
:104F7000D48100231093DBF8643013F0010FBBF8E9
:104F80000C3002D19A0540F1DE805B063FF5B2ACF1
:104F900003982DB0BDE8F08F002A40F00681059AF5
:104FA0001D9201231192CDF870B01093CA460AF1F8
:104FB000080A029B590704D5089B01995C1A002C2A
:104FC00081DC039B089901988142ACBF5B181B18D8
:104FD000039372BB00231093CA46FFF7BCBB0FAA12
:104FE00004992046FFF73AFB50BB1099119A01F142
:104FF000010ECC4648E5002A40F040819DF837106C
:10500000002900F01B8101220DF1370110461D928D
:105010001C91CA4601460AF1080A013007E5029BC5
:10502000012A00F09880022A0DD102930026002761
:10503000B0E50FAA04990698FFF710FB0028C9D025
:10504000DDF810B097E7029300260027494600E0FC
:105050005946F20842EA4772F80806F00703074685
:105060001646303356EA070201F8013C01F1FF3BD6
:10507000EED1029AD6077FF59DAD302B3FF49AAD65
:10508000023930230BF8013CA9EB010305938B4651
:1050900076E4039B089A8A42ACBF9B185B18039383
:1050A00098E702224DE4002F08BF0A2E52D3CB46C8
:1050B000304639460A22002301F0C6FB30320BF895
:1050C000012D3046394600230A2201F0BDFB064679
:1050D0000F4656EA0703EBD16CE50594CB464FE447
:1050E0000FAA04990698FFF7B9FA0028A8D1119AD7
:1050F000CA465EE70FAA04990698FFF7AFFA0028A0
:105100009ED1CA46FFF7C0BB386E4000286E4000F3
:105110000431166807910122002712E4079801461E
:1051200004310668079100270BE40E6804310791EB
:10513000002791E507990E680A46F717043207928F
:10514000304639460FE5DBF8580000F07FFEBBF82B
:105150000C301AE7029B02930DF1B00B303601239D
:105160000BF8416D05930BE40FAA04990698FFF71D
:1051700075FA00287FF464AF1099119A481CCA464A
:1051800051E60FAA04990698FFF768FA00287FF401
:1051900057AF1099119A481CCA4648E4002A40F0BB
:1051A000918001201146CA4641E60FAA049906984B
:1051B000FFF754FA00287FF443AF1098119A01309A
:1051C000CA4667E6D346D6E6079E073626F00702AC
:1051D00002F10801D2E9006707910122FFF7B1BB94
:1051E000079E073626F00706D6E9000106F10802F9
:1051F000079206460F46B6E4079E073626F00702DA
:1052000002F10801D2E9006707910022FFF799BB7C
:10521000079E073626F0070101F108000790D1E943
:10522000006719E5CB46FFF7ABBB2D25764267EB50
:1052300047078DF837500122FFF788BB099BB3B9A8
:1052400011460120CA46F2E5DBF8580000F0FEFDE9
:105250004FF0FF330393FFF750BB0FAA0499069852
:10526000FFF7FCF900287FF4EBAE119AA9E60EAB2C
:1052700002221C931D920120CA46D0E50FAA049970
:105280000698FFF7EBF900287FF4DAAE1099119A2F
:10529000481CCA46A4E5079A03991368CD17084627
:1052A000043229460792C3E90001FFF754BA584671
:1052B00007960293FFF764F9002405909DF8375094
:1052C000FFF75EBB0FAA04990698FFF7C7F90028FD
:1052D0007FF4B6AE1099119A481CCA46A7E51099FA
:1052E000119A204E0131FFF790BB062C28BF0624EF
:1052F000059407960194DFF870B0D5E41098194E24
:10530000013003E605949DF8375007960293044652
:10531000FFF736BB8646FFF7CEBB06980FAA594665
:10532000FFF79CF900283FF424AE24E6079998F88B
:1053300001200C68043144EAE474B8460791FFF791
:105340003FBA8DF837503CE48DF8375021E58DF8A1
:105350003750FFF7F4BB8DF8375091E48DF8375094
:1053600069E400BF286E4000206E40002DE9F04146
:105370000C46ADF58D6D8989666EE589199621F02B
:1053800002010646E069ADF80C1017464FF4806143
:10539000626AADF80E5098461AAD0023079016A821
:1053A00009920693009504950291059100F048FD3D
:1053B00043463A4669463046FFF790F9051E07DB3B
:1053C0003046694600F028F9002818BF4FF0FF3535
:1053D000BDF80C305B0603D5A38943F04003A381DD
:1053E000169800F02FFD28460DF58D6DBDE8F08173
:1053F00038B5304B1B6805460C4613B19A6B002A32
:1054000038D0B4F90C2093B218070CD52069A8B194
:1054100013F001021ED0636900225B42A361A26007
:10542000F0B1002038BDD9063CD5580726D42069F4
:1054300042F00803A3819BB20028E9D103F4207253
:10544000B2F5007FE4D02846214600F02FFDA38965
:105450002069DDE7990758BF6269A2600028E0D1A2
:10546000B4F90C301A06DDD543F04003A3814FF0A8
:10547000FF3038BD184600F027F9C2E7216B51B163
:1054800004F14003994204D0284600F043FAB4F9ED
:105490000C200023236300232069636022F0240290
:1054A0002060C5E742F0400209232B604FF0FF3037
:1054B000A28138BD0C004020024B13B1024800F01D
:1054C00005B870470000000039574000002301462E
:1054D0001A46184601F090B8B1F90C309AB22DE98D
:1054E000F0410D46110780463AD46A6843F40063E0
:1054F000002AAB816FDDAC6A002C49D000229BB240
:10550000D8F80060C8F8002013F4805267D02A6DE4
:105510005F0705D569682B6B521A0BB1EB6BD21A7A
:105520000023E9694046A047441C3CD0B5F90C3043
:105530002A692A6023F400630022AB81DB046A60DD
:1055400047D4296BC8F8006011B305F140039942B4
:1055500002D0404600F0DEF900202863BDE8F0816B
:105560002E69AEB12C682E6091070CBF6B690023C9
:10557000A41BAB600AE0234632466F6AE9694046E5
:10558000B8470028A4EB0004064404DD002CF2DC3C
:105590000020BDE8F081AB8943F04003AB814FF0C0
:1055A000FF30BDE8F081D8F800401D2CF3D8194B2E
:1055B000E340DB4313F00103EDD1B5F90C206B6040
:1055C00022F400632969AB81DA042960B9D5002C83
:1055D000B7D12865B5E7EA6B002A8CDCD8E7012350
:1055E000E9694046A047431C024602D0AB89AC6A39
:1055F0008EE7D8F80030002BF8D01D2B01D0162BE9
:1056000002D1C8F80060C3E7AB8943F04003AB8127
:10561000BDE8F0810100402038B50D46044608B1D0
:10562000836BBBB1B5F90C0088B16B6EDB0701D49D
:10563000810517D520462946FFF74EFF6B6EDA0726
:10564000044602D4AB899B0507D5204638BD0446E5
:10565000204638BD00F038F8E4E7A86D00F0F6FB0E
:10566000204638BDA86D00F0EFFBE3E7014900F0EC
:10567000AFBB00BFE166400010B500230446818146
:10568000C281036043608360436603614361836159
:10569000194608225C30FEF7B9FC07480749084A5A
:1056A000084B2062E4616162A262E36204F1580087
:1056B000BDE8104000F0C4BB2564400049644000D0
:1056C00085644000A564400010B50446124800F00F
:1056D000BBFBA26BD2B904F53B731048C4F8E832A7
:1056E0000321C4F8E022E063C4F8E41260680421F6
:1056F000FFF7C2FF01220921A068FFF7BDFF0222C8
:105700001221E068FFF7B8FF0123A3630248BDE858
:10571000104000F09BBB00BF400C40206D56400085
:10572000014800F091BB00BF540C4020014800F03C
:105730008DBB00BF540C402038B50A4C0A4D641B89
:10574000A4100AD004F18043013B05EB8305013C22
:1057500055F804399847002CF9D1BDE8384001F0DC
:1057600007BC00BF806F40007C6F40002DE9F04710
:1057700082B080468946144600F054FB012836D09A
:105780004A4604F15C0301A9404600F0E7FE421CD2
:10579000064625D0A8B39DF804E000250DF1040AC3
:1057A00009E023685A1C226083F800E00135B54205
:1057B00027D215F80AE0A368013B002BA360F0DABA
:1057C000A769BB4271462246404602DBBEF10A0F82
:1057D000E7D100F06BFE431CE8D102B0BDE8F087D2
:1057E000A38943F04003A38102B0BDE8F08709F12B
:1057F000FF33FE2BC4D85FFA89FE06468DF804E01D
:10580000CBE7484602B0BDE8F08700BF30B5536E25
:1058100013F0010FB2F90C30144683B005469AB26A
:1058200001D190051CD5900406D4626E43F4005358
:1058300042F40052A381626628462246FFF796FF93
:10584000636EDA07054602D4A3899B0502D5284674
:1058500003B030BDA06D00F0F9FA284603B030BDAA
:10586000A06D019100F0F0FAB4F90C3001999AB2F0
:10587000D9E700BFF8B5244F0C460646FEF714FCE6
:10588000BB685D68C4F57E610F3125F003052944CE
:1058900021F47F6121F00F01A1F58054B4F5805F00
:1058A00007DB00213046FEF70BFCBB682B44984217
:1058B00004D03046FEF7FEFB0020F8BD61423046C2
:1058C000FEF7FEFB01300DD0104BBA6819682D1B96
:1058D00045F001053046091B55601960FEF7EAFBEB
:1058E0000120F8BD00213046FEF7EAFBBA68831AB2
:1058F0000F2BDEDD064C0549246843F00103001B35
:1059000053600860D5E700BF38044020A00B40205A
:1059100040084020002944D02DE9F0410D46804642
:10592000FEF7C2FB55F8047C694927F00103A5F195
:105930000804E2188E685068B24220F003005ED07E
:10594000FE0750600BD455F8087CE41B01F1080EEB
:10595000A56875453B446DD0E768EF60BD601518DC
:105960006D68ED073ED543F001026260E350B3F588
:10597000007F17D2DB08581C9A104D6851F8307020
:10598000A7600123934001EBC0022B43083AE26079
:105990004B6041F83040FC604046BDE8F041FEF706
:1059A00089BB70475A0A042A52D89A0902F139076A
:1059B000FF0002F13805C819CA59083890424FD083
:1059C000516821F003018B4232D292689042F7D1A4
:1059D000C368A060E3609C60C4604046BDE8F041DD
:1059E000FEF768BB95683B4FBD42034440D0D0688A
:1059F000E86043F0010285606260E350B7E7FF07AB
:105A0000034407D455F8082CA41A1344A068E2688C
:105A1000C2609060304A126843F0010093426060B7
:105A20008C60B9D32D4B40461968FFF723FFB3E7CD
:105A30001046CDE711184968C90744D49168D26867
:105A4000CA60034443F0010091606060E350A3E743
:105A5000142A16D802F15C07FF0002F15B05AAE7E1
:105A6000AA1001234D6893402B434B600346B0E7D7
:105A700043F001024C610C61E560A5606260E35097
:105A80008AE7542A06D81A0B02F16F07FF0002F1C9
:105A90006E0590E7B2F5AA7F06D8DA0B02F1780717
:105AA000FF0002F1770586E740F25450824206D8A3
:105AB0009A0C02F17D07FF0002F17C057BE74FF4B1
:105AC0007E777E2577E743F001016160136063E72D
:105AD000380440204004402044084020D00B40209F
